{"abi":[{"type":"constructor","inputs":[{"name":"owner_","type":"address","internalType":"address"},{"name":"weth_","type":"address","internalType":"address"},{"name":"feeRecipient_","type":"address","internalType":"address"},{"name":"autoWithdrawAccount_","type":"address","internalType":"address"}],"stateMutability":"nonpayable"},{"type":"function","name":"GATEWAY","inputs":[],"outputs":[{"name":"","type":"address","internalType":"address"}],"stateMutability":"view"},{"type":"function","name":"WETH","inputs":[],"outputs":[{"name":"","type":"address","internalType":"address"}],"stateMutability":"view"},{"type":"function","name":"autoWithdrawAccount","inputs":[],"outputs":[{"name":"","type":"address","internalType":"address"}],"stateMutability":"view"},{"type":"function","name":"autoWithdrawFeeForOnce","inputs":[],"outputs":[{"name":"","type":"uint256","internalType":"uint256"}],"stateMutability":"pure"},{"type":"function","name":"availableFunds","inputs":[{"name":"streamId","type":"uint256","internalType":"uint256"},{"name":"who","type":"address","internalType":"address"}],"outputs":[{"name":"balance","type":"uint256","internalType":"uint256"}],"stateMutability":"view"},{"type":"function","name":"bulkClaimFromFlow","inputs":[{"name":"streamIds","type":"uint256[]","internalType":"uint256[]"}],"outputs":[],"stateMutability":"nonpayable"},{"type":"function","name":"bulkCreateFlow","inputs":[{"name":"createParams","type":"tuple[]","internalType":"struct Struct.initializeStreamParams[]","components":[{"name":"sender","type":"address","internalType":"address"},{"name":"recipient","type":"address","internalType":"address"},{"name":"deposit","type":"uint256","internalType":"uint256"},{"name":"tokenAddress","type":"address","internalType":"address"},{"name":"startTime","type":"uint256","internalType":"uint256"},{"name":"stopTime","type":"uint256","internalType":"uint256"},{"name":"interval","type":"uint256","internalType":"uint256"},{"name":"cliffAmount","type":"uint256","internalType":"uint256"},{"name":"cliffTime","type":"uint256","internalType":"uint256"},{"name":"autoWithdrawInterval","type":"uint256","internalType":"uint256"},{"name":"autoWithdraw","type":"bool","internalType":"bool"},{"name":"pauseable","type":"uint8","internalType":"enum Struct.Capability"},{"name":"closeable","type":"uint8","internalType":"enum Struct.Capability"},{"name":"recipientModifiable","type":"uint8","internalType":"enum Struct.Capability"}]}],"outputs":[],"stateMutability":"payable"},{"type":"function","name":"bulkExtendFlow","inputs":[{"name":"streamIds","type":"uint256[]","internalType":"uint256[]"},{"name":"stopTime","type":"uint256[]","internalType":"uint256[]"}],"outputs":[],"stateMutability":"payable"},{"type":"function","name":"bulkHaltFlow","inputs":[{"name":"streamIds","type":"uint256[]","internalType":"uint256[]"}],"outputs":[],"stateMutability":"nonpayable"},{"type":"function","name":"bulkRegisterAsset","inputs":[{"name":"tokenAddresses","type":"address[]","internalType":"address[]"},{"name":"feeRates","type":"uint256[]","internalType":"uint256[]"}],"outputs":[],"stateMutability":"nonpayable"},{"type":"function","name":"bulkRestartFlow","inputs":[{"name":"streamIds","type":"uint256[]","internalType":"uint256[]"}],"outputs":[],"stateMutability":"nonpayable"},{"type":"function","name":"bulkTerminateFlow","inputs":[{"name":"streamIds","type":"uint256[]","internalType":"uint256[]"}],"outputs":[],"stateMutability":"nonpayable"},{"type":"function","name":"bulkUpdateBeneficiary","inputs":[{"name":"streamIds","type":"uint256[]","internalType":"uint256[]"},{"name":"newRecipient","type":"address[]","internalType":"address[]"}],"outputs":[],"stateMutability":"nonpayable"},{"type":"function","name":"claimFromFlow","inputs":[{"name":"streamId","type":"uint256","internalType":"uint256"}],"outputs":[],"stateMutability":"nonpayable"},{"type":"function","name":"configureGateway","inputs":[{"name":"gateway","type":"address","internalType":"address"}],"outputs":[],"stateMutability":"nonpayable"},{"type":"function","name":"feeRecipient","inputs":[],"outputs":[{"name":"","type":"address","internalType":"address"}],"stateMutability":"view"},{"type":"function","name":"getStream","inputs":[{"name":"streamId","type":"uint256","internalType":"uint256"}],"outputs":[{"name":"","type":"tuple","internalType":"struct Struct.Stream","components":[{"name":"onBehalfOf","type":"address","internalType":"address"},{"name":"sender","type":"address","internalType":"address"},{"name":"recipient","type":"address","internalType":"address"},{"name":"deposit","type":"uint256","internalType":"uint256"},{"name":"tokenAddress","type":"address","internalType":"address"},{"name":"startTime","type":"uint256","internalType":"uint256"},{"name":"stopTime","type":"uint256","internalType":"uint256"},{"name":"interval","type":"uint256","internalType":"uint256"},{"name":"ratePerInterval","type":"uint256","internalType":"uint256"},{"name":"remainingBalance","type":"uint256","internalType":"uint256"},{"name":"lastWithdrawTime","type":"uint256","internalType":"uint256"},{"name":"createAt","type":"uint256","internalType":"uint256"},{"name":"autoWithdrawInterval","type":"uint256","internalType":"uint256"},{"name":"autoWithdraw","type":"bool","internalType":"bool"},{"name":"closed","type":"bool","internalType":"bool"},{"name":"isEntity","type":"bool","internalType":"bool"},{"name":"cliffInfo","type":"tuple","internalType":"struct Struct.CliffInfo","components":[{"name":"cliffAmount","type":"uint256","internalType":"uint256"},{"name":"cliffTime","type":"uint256","internalType":"uint256"},{"name":"cliffDone","type":"bool","internalType":"bool"}]},{"name":"featureInfo","type":"tuple","internalType":"struct Struct.FeatureInfo","components":[{"name":"pauseable","type":"uint8","internalType":"enum Struct.Capability"},{"name":"closeable","type":"uint8","internalType":"enum Struct.Capability"},{"name":"recipientModifiable","type":"uint8","internalType":"enum Struct.Capability"}]},{"name":"pauseInfo","type":"tuple","internalType":"struct Struct.PauseInfo","components":[{"name":"pauseAt","type":"uint256","internalType":"uint256"},{"name":"accPauseTime","type":"uint256","internalType":"uint256"},{"name":"pauseBy","type":"address","internalType":"address"},{"name":"isPaused","type":"bool","internalType":"bool"}]}]}],"stateMutability":"view"},{"type":"function","name":"haltFlow","inputs":[{"name":"streamId","type":"uint256","internalType":"uint256"}],"outputs":[],"stateMutability":"nonpayable"},{"type":"function","name":"initializeFlow","inputs":[{"name":"createParams","type":"tuple","internalType":"struct Struct.initializeStreamParams","components":[{"name":"sender","type":"address","internalType":"address"},{"name":"recipient","type":"address","internalType":"address"},{"name":"deposit","type":"uint256","internalType":"uint256"},{"name":"tokenAddress","type":"address","internalType":"address"},{"name":"startTime","type":"uint256","internalType":"uint256"},{"name":"stopTime","type":"uint256","internalType":"uint256"},{"name":"interval","type":"uint256","internalType":"uint256"},{"name":"cliffAmount","type":"uint256","internalType":"uint256"},{"name":"cliffTime","type":"uint256","internalType":"uint256"},{"name":"autoWithdrawInterval","type":"uint256","internalType":"uint256"},{"name":"autoWithdraw","type":"bool","internalType":"bool"},{"name":"pauseable","type":"uint8","internalType":"enum Struct.Capability"},{"name":"closeable","type":"uint8","internalType":"enum Struct.Capability"},{"name":"recipientModifiable","type":"uint8","internalType":"enum Struct.Capability"}]}],"outputs":[],"stateMutability":"payable"},{"type":"function","name":"nextStreamId","inputs":[],"outputs":[{"name":"","type":"uint256","internalType":"uint256"}],"stateMutability":"view"},{"type":"function","name":"owner","inputs":[],"outputs":[{"name":"","type":"address","internalType":"address"}],"stateMutability":"view"},{"type":"function","name":"prolongFlow","inputs":[{"name":"streamId","type":"uint256","internalType":"uint256"},{"name":"stopTime","type":"uint256","internalType":"uint256"}],"outputs":[],"stateMutability":"payable"},{"type":"function","name":"registerAsset","inputs":[{"name":"tokenAddress","type":"address","internalType":"address"},{"name":"feeRate","type":"uint256","internalType":"uint256"}],"outputs":[],"stateMutability":"nonpayable"},{"type":"function","name":"renounceOwnership","inputs":[],"outputs":[],"stateMutability":"nonpayable"},{"type":"function","name":"restartFlow","inputs":[{"name":"streamId","type":"uint256","internalType":"uint256"}],"outputs":[],"stateMutability":"nonpayable"},{"type":"function","name":"terminateFlow","inputs":[{"name":"streamId","type":"uint256","internalType":"uint256"}],"outputs":[],"stateMutability":"nonpayable"},{"type":"function","name":"timeElapsed","inputs":[{"name":"streamId","type":"uint256","internalType":"uint256"}],"outputs":[{"name":"delta","type":"uint256","internalType":"uint256"}],"stateMutability":"view"},{"type":"function","name":"tokenFeeRate","inputs":[{"name":"tokenAddress","type":"address","internalType":"address"}],"outputs":[{"name":"","type":"uint256","internalType":"uint256"}],"stateMutability":"view"},{"type":"function","name":"transferOwnership","inputs":[{"name":"newOwner","type":"address","internalType":"address"}],"outputs":[],"stateMutability":"nonpayable"},{"type":"function","name":"updateAutoClaimAccount","inputs":[{"name":"newAutoWithdrawAccount","type":"address","internalType":"address"}],"outputs":[],"stateMutability":"nonpayable"},{"type":"function","name":"updateBeneficiary","inputs":[{"name":"streamId","type":"uint256","internalType":"uint256"},{"name":"newRecipient","type":"address","internalType":"address"}],"outputs":[],"stateMutability":"nonpayable"},{"type":"function","name":"updateFeeCollector","inputs":[{"name":"newFeeRecipient","type":"address","internalType":"address"}],"outputs":[],"stateMutability":"nonpayable"},{"type":"event","name":"CloseStream","inputs":[{"name":"streamId","type":"uint256","indexed":true,"internalType":"uint256"},{"name":"operator","type":"address","indexed":true,"internalType":"address"},{"name":"senderBalance","type":"uint256","indexed":false,"internalType":"uint256"},{"name":"recipientBalance","type":"uint256","indexed":false,"internalType":"uint256"}],"anonymous":false},{"type":"event","name":"ExtendFlow","inputs":[{"name":"streamId","type":"uint256","indexed":true,"internalType":"uint256"},{"name":"operator","type":"address","indexed":true,"internalType":"address"},{"name":"stopTime","type":"uint256","indexed":false,"internalType":"uint256"},{"name":"deposit","type":"uint256","indexed":false,"internalType":"uint256"}],"anonymous":false},{"type":"event","name":"OwnershipTransferred","inputs":[{"name":"previousOwner","type":"address","indexed":true,"internalType":"address"},{"name":"newOwner","type":"address","indexed":true,"internalType":"address"}],"anonymous":false},{"type":"event","name":"PauseStream","inputs":[{"name":"streamId","type":"uint256","indexed":true,"internalType":"uint256"},{"name":"operator","type":"address","indexed":true,"internalType":"address"},{"name":"recipientBalance","type":"uint256","indexed":false,"internalType":"uint256"}],"anonymous":false},{"type":"event","name":"ResumeStream","inputs":[{"name":"streamId","type":"uint256","indexed":true,"internalType":"uint256"},{"name":"operator","type":"address","indexed":true,"internalType":"address"},{"name":"duration","type":"uint256","indexed":false,"internalType":"uint256"}],"anonymous":false},{"type":"event","name":"SetNewRecipient","inputs":[{"name":"streamId","type":"uint256","indexed":true,"internalType":"uint256"},{"name":"operator","type":"address","indexed":true,"internalType":"address"},{"name":"newRecipient","type":"address","indexed":true,"internalType":"address"}],"anonymous":false},{"type":"event","name":"TokenRegister","inputs":[{"name":"tokenAddress","type":"address","indexed":true,"internalType":"address"},{"name":"feeRate","type":"uint256","indexed":false,"internalType":"uint256"}],"anonymous":false},{"type":"event","name":"WithdrawFromFlow","inputs":[{"name":"streamId","type":"uint256","indexed":true,"internalType":"uint256"},{"name":"operator","type":"address","indexed":true,"internalType":"address"},{"name":"recipientBalance","type":"uint256","indexed":false,"internalType":"uint256"}],"anonymous":false},{"type":"event","name":"initializeStream","inputs":[{"name":"streamId","type":"uint256","indexed":true,"internalType":"uint256"},{"name":"sender","type":"address","indexed":true,"internalType":"address"},{"name":"recipient","type":"address","indexed":true,"internalType":"address"},{"name":"deposit","type":"uint256","indexed":false,"internalType":"uint256"},{"name":"tokenAddress","type":"address","indexed":false,"internalType":"address"},{"name":"startTime","type":"uint256","indexed":false,"internalType":"uint256"},{"name":"stopTime","type":"uint256","indexed":false,"internalType":"uint256"},{"name":"interval","type":"uint256","indexed":false,"internalType":"uint256"},{"name":"cliffAmount","type":"uint256","indexed":false,"internalType":"uint256"},{"name":"cliffTime","type":"uint256","indexed":false,"internalType":"uint256"},{"name":"autoWithdrawInterval","type":"uint256","indexed":false,"internalType":"uint256"},{"name":"autoWithdraw","type":"bool","indexed":false,"internalType":"bool"},{"name":"pauseable","type":"uint8","indexed":false,"internalType":"uint8"},{"name":"closeable","type":"uint8","indexed":false,"internalType":"uint8"},{"name":"recipientModifiable","type":"uint8","indexed":false,"internalType":"uint8"}],"anonymous":false}],"bytecode":{"object":"0x608060405234801561000f575f80fd5b50604051614a3a380380614a3a83398101604081905261002e916100fa565b60015f5561003b3361008e565b6100448461008e565b600280546001600160a01b039485166001600160a01b03199182161790915560058054938516938216939093179092556006805491909316911617905550620186a060045561014b565b600180546001600160a01b038381166001600160a01b0319831681179093556040519116919082907f8be0079c531659141344cd1fd0a4f28419497f9722a3daafe3b4186f6b6457e0905f90a35050565b80516001600160a01b03811681146100f5575f80fd5b919050565b5f805f806080858703121561010d575f80fd5b610116856100df565b9350610124602086016100df565b9250610132604086016100df565b9150610140606086016100df565b905092959194509250565b6148e2806101585f395ff3fe6080604052600436106101db575f3560e01c8063855f1a8c116100fd578063bb33360411610092578063daebec1111610062578063daebec1114610544578063e953943414610557578063f2fde38b14610576578063f71db56814610595575f80fd5b8063bb333604146104c8578063c61a7e4d146104e7578063d2c35ce814610506578063d7c0a97e14610525575f80fd5b8063a6054c49116100cd578063a6054c491461044e578063ad5c46481461046d578063b7785afb1461048c578063b8ae0aab146104ab575f80fd5b8063855f1a8c146103cd578063894e9a0d146103e65780638da5cb5b14610412578063a2e40c441461042f575f80fd5b806356e50c021161017357806371ade6291161014357806371ade6291461035157806374e522181461037057806375d26e441461038f57806384d3e098146103ae575f80fd5b806356e50c02146102ec57806362e9a2f51461030b5780636bcf87b91461032a578063715018a61461033d575f80fd5b806327c5cb0f116101ae57806327c5cb0f1461025a578063338c5371146102795780633e8eb5a4146102b057806346904840146102cf575f80fd5b806308913ce8146101df57806308d575cb146102115780631e99d5691461023257806326bf672914610247575b5f80fd5b3480156101ea575f80fd5b506101fe6101f93660046140a6565b6105a8565b6040519081526020015b60405180910390f35b34801561021c575f80fd5b5061023061022b366004614105565b610890565b005b34801561023d575f80fd5b506101fe60045481565b61023061025536600461416c565b61090b565b348015610265575f80fd5b5061023061027436600461417d565b610a4b565b348015610284575f80fd5b50600354610298906001600160a01b031681565b6040516001600160a01b039091168152602001610208565b3480156102bb575f80fd5b506102306102ca3660046141d7565b610a83565b3480156102da575f80fd5b506005546001600160a01b0316610298565b3480156102f7575f80fd5b5061023061030636600461417d565b610d89565b348015610316575f80fd5b50610230610325366004614201565b610dbc565b610230610338366004614221565b610de6565b348015610348575f80fd5b50610230610f82565b34801561035c575f80fd5b5061023061036b366004614201565b610f95565b34801561037b575f80fd5b506101fe61038a3660046141d7565b610fbf565b34801561039a575f80fd5b506102306103a93660046140a6565b6112cc565b3480156103b9575f80fd5b506102306103c83660046140a6565b611779565b3480156103d8575f80fd5b506611c37937e080006101fe565b3480156103f1575f80fd5b506104056104003660046140a6565b61199e565b60405161020891906142f5565b34801561041d575f80fd5b506001546001600160a01b0316610298565b34801561043a575f80fd5b506101fe610449366004614201565b611bef565b348015610459575f80fd5b5061023061046836600461417d565b611c41565b348015610478575f80fd5b50600254610298906001600160a01b031681565b348015610497575f80fd5b506102306104a636600461445c565b611c74565b3480156104b6575f80fd5b506006546001600160a01b0316610298565b3480156104d3575f80fd5b506102306104e2366004614105565b611ce0565b3480156104f2575f80fd5b506102306105013660046140a6565b611d61565b348015610511575f80fd5b50610230610520366004614201565b611e92565b348015610530575f80fd5b5061023061053f36600461417d565b611ebc565b610230610552366004614484565b611eef565b348015610562575f80fd5b506102306105713660046140a6565b611fea565b348015610581575f80fd5b50610230610590366004614201565b6126e8565b6102306105a3366004614105565b61275e565b5f818152600960205260408120600d0154829062010000900460ff166105e95760405162461bcd60e51b81526004016105e0906144a4565b60405180910390fd5b5f83815260096020818152604080842081516102608101835281546001600160a01b0390811682526001830154811682860152600283015481168285015260038084015460608085019190915260048501549092166080840152600584015460a0840152600684015460c0840152600784015460e084015260088401546101008085019190915296840154610120840152600a840154610140840152600b840154610160840152600c840154610180840152600d84015460ff80821615156101a0860152978104881615156101c0850152620100009004871615156101e084015284518083018652600e8501548152600f85015496810196909652601084015487161515868601526102008301959095528351908101909352601182018054919592946102208701949391928492169081111561072857610728614291565b600381111561073957610739614291565b81528154602090910190610100900460ff16600381111561075c5761075c614291565b600381111561076d5761076d614291565b8152815460209091019062010000900460ff16600381111561079157610791614291565b60038111156107a2576107a2614291565b9052508152604080516080810182526012840154815260138401546020808301919091526014909401546001600160a01b03811692820192909252600160a01b90910460ff161515606082015290820152610240820151015161014082015191925061080d916144e5565b42101561081d575f92505061088a565b8060c00151421115610869578060e00151816102400151602001518261014001518360c0015161084d91906144fe565b61085791906144fe565b6108619190614511565b92505061088a565b60e08101516102408201516020015161014083015161084d90426144fe565b505b50919050565b8281146108af5760405162461bcd60e51b81526004016105e090614530565b5f5b83811015610904576108fc8585838181106108ce576108ce614560565b905060200201358484848181106108e7576108e7614560565b90506020020160208101906102ca9190614201565b6001016108b1565b5050505050565b6109136128e0565b60075f6109266080840160608501614201565b6001600160a01b0316815260208101919091526040015f205460ff1661095e5760405162461bcd60e51b81526004016105e090614574565b6004546040805160c0810182526002546001600160a01b039081168252600354811660208301526005548116928201929092526006549091166060808301919091526611c37937e080006080808401919091525f936109f6939092349260a083019160089188916109d3918b01908b01614201565b6001600160a01b0316815260208101919091526040015f20549052856009612937565b90506004546001610a0791906144e5565b600455336108fc610a1883346144fe565b6040518115909202915f818181858888f19350505050158015610a3d573d5f803e3d5ffd5b5050610a4860015f55565b50565b5f5b81811015610a7e57610a76838383818110610a6a57610a6a614560565b90506020020135611779565b600101610a4d565b505050565b5f828152600960205260409020600d0154829062010000900460ff16610abb5760405162461bcd60e51b81526004016105e0906144a4565b5f838152600960205260409020600d810154610100900460ff1615610af25760405162461bcd60e51b81526004016105e0906145a2565b6014810154600160a01b900460ff1615610b3f5760405162461bcd60e51b815260206004820152600e60248201526d199b1bddc81a5cc81a185b1d195960921b60448201526064016105e0565b60018101546001600160a01b03163303610c0d576003601182015462010000900460ff166003811115610b7457610b74614291565b1480610b9e57506001601182015462010000900460ff166003811115610b9c57610b9c614291565b145b610c085760405162461bcd60e51b815260206004820152603560248201527f696e69746961746f72206973206e6f7420617574686f72697a656420746f206360448201527468616e6765207468652062656e656669636961727960581b60648201526084016105e0565b610d37565b60028101546001600160a01b03163303610cde576003601182015462010000900460ff166003811115610c4257610c42614291565b1480610c6c57506002601182015462010000900460ff166003811115610c6a57610c6a614291565b145b610c085760405162461bcd60e51b815260206004820152603760248201527f62656e6566696369617279206973206e6f7420617574686f72697a656420746f60448201527f206368616e6765207468652062656e656669636961727900000000000000000060648201526084016105e0565b60405162461bcd60e51b815260206004820152602860248201527f6e6f7420617574686f72697a656420746f206368616e6765207468652062656e604482015267656669636961727960c01b60648201526084016105e0565b6002810180546001600160a01b0319166001600160a01b038516908117909155604051339086907f2332b32c657da903f97fc41b3802c0d654be883822c4fc814f7aac8826f60242905f90a450505050565b5f5b81811015610a7e57610db4838383818110610da857610da8614560565b90506020020135611fea565b600101610d8b565b610dc46131dd565b600380546001600160a01b0319166001600160a01b0392909216919091179055565b610dee6128e0565b345f5b82811015610f485760075f858584818110610e0e57610e0e614560565b90506101c002016060016020810190610e279190614201565b6001600160a01b0316815260208101919091526040015f205460ff16610e5f5760405162461bcd60e51b81526004016105e090614574565b6004546040805160c0810182526002546001600160a01b0390811682526003548116602083015260055481169282019290925260065490911660608201526611c37937e0800060808201525f91610f1f91859060a081016008868b8b8a818110610ecb57610ecb614560565b90506101c002016060016020810190610ee49190614201565b6001600160a01b0316815260208101919091526040015f20549052888887818110610f1157610f11614560565b90506101c002016009612937565b9050610f2b81846144fe565b92506004546001610f3c91906144e5565b60045550600101610df1565b50604051339082156108fc029083905f818181858888f19350505050158015610f73573d5f803e3d5ffd5b5050610f7e60015f55565b5050565b610f8a6131dd565b610f935f613237565b565b610f9d6131dd565b600680546001600160a01b0319166001600160a01b0392909216919091179055565b5f828152600960205260408120600d0154839062010000900460ff16610ff75760405162461bcd60e51b81526004016105e0906144a4565b5f84815260096020818152604080842081516102608101835281546001600160a01b0390811682526001830154811682860152600283015481168285015260038084015460608085019190915260048501549092166080840152600584015460a0840152600684015460c0840152600784015460e084015260088401546101008085019190915296840154610120840152600a840154610140840152600b840154610160840152600c840154610180840152600d84015460ff80821615156101a0860152978104881615156101c0850152620100009004871615156101e084015284518083018652600e8501548152600f85015496810196909652601084015487161515868601526102008301959095528351908101909352601182018054919592946102208701949391928492169081111561113657611136614291565b600381111561114757611147614291565b81528154602090910190610100900460ff16600381111561116a5761116a614291565b600381111561117b5761117b614291565b8152815460209091019062010000900460ff16600381111561119f5761119f614291565b60038111156111b0576111b0614291565b9052508152604080516080810182526012840154815260138401546020808301919091526014909401546001600160a01b03811692820192909252600160a01b90910460ff161515606082015291015290505f61120c866105a8565b90505f8261010001518261122091906145ce565b610200840151604001519091501580156112435750428361020001516020015111155b1561125c576102008301515161125990826144e5565b90505b82604001516001600160a01b0316866001600160a01b0316036112835793506112c5915050565b82602001516001600160a01b0316866001600160a01b0316036112be575f818461012001516112b291906144fe565b95506112c59350505050565b5f94505050505b5092915050565b5f818152600960205260409020600d0154819062010000900460ff166113045760405162461bcd60e51b81526004016105e0906144a4565b5f8281526009602052604090206014810154600160a01b900460ff16156113665760405162461bcd60e51b8152602060048201526016602482015275199b1bddc81a5cc8185b1c9958591e481a185b1d195960521b60448201526064016105e0565b600d810154610100900460ff16156113905760405162461bcd60e51b81526004016105e0906145a2565b428160060154116113d65760405162461bcd60e51b815260206004820152601060248201526f199b1bddc81a185cc8195e1c1a5c995960821b60448201526064016105e0565b60048101546002546001600160a01b039081169116148015611401575080546001600160a01b031633145b156115c85760018101546001600160a01b031632036114e65760035b601182015460ff16600381111561143657611436614291565b148061145a57506001601182015460ff16600381111561145857611458614291565b145b6114bb5760405162461bcd60e51b815260206004820152602c60248201527f696e69746961746f72206973206e6f7420617574686f72697a656420746f206860448201526b616c742074686520666c6f7760a01b60648201526084016105e0565b60018101546014820180546001600160a01b0319166001600160a01b03909216919091179055611679565b60028101546001600160a01b03163203611580576003601182015460ff16600381111561151557611515614291565b148061153957506002601182015460ff16600381111561153757611537614291565b145b6115555760405162461bcd60e51b81526004016105e0906145e5565b60028101546014820180546001600160a01b0319166001600160a01b03909216919091179055611679565b60405162461bcd60e51b815260206004820152601f60248201527f6e6f7420617574686f72697a656420746f2068616c742074686520666c6f770060448201526064016105e0565b60018101546001600160a01b031633036115e357600361141d565b60028101546001600160a01b03163303611580576003601182015460ff16600381111561161257611612614291565b148061163657506002601182015460ff16600381111561163457611634614291565b145b6116525760405162461bcd60e51b81526004016105e0906145e5565b60028101546014820180546001600160a01b0319166001600160a01b039092169190911790555b60028101545f906116949085906001600160a01b0316610fbf565b9050801561171457611714846116a9866105a8565b6040805160c0810182526002546001600160a01b0390811682526003548116602080840191909152600554821683850152600654821660608401526611c37937e08000608084015260048901549091165f9081526008909152919091205460a0820152849086613288565b426012830155601482018054600160a01b60ff60a01b198216179091556040518281526001600160a01b039091169085907f1836062ce566b70b50773e3c19affdd6107e4c3fb04def16baed7812b7a705bc906020015b60405180910390a350505050565b5f818152600960205260409020600d0154819062010000900460ff166117b15760405162461bcd60e51b81526004016105e0906144a4565b5f8281526009602052604090206014810154600160a01b900460ff1615156001146118135760405162461bcd60e51b8152602060048201526012602482015271199b1bddc81a5cc81b9bdd081a185b1d195960721b60448201526064016105e0565b600d810154610100900460ff161561183d5760405162461bcd60e51b81526004016105e0906145a2565b60148101546001600160a01b03163314806118715750336118666001546001600160a01b031690565b6001600160a01b0316145b6118d55760405162461bcd60e51b815260206004820152602f60248201527f6f6e6c7920746865206f6e652077686f2068616c7465642074686520666c6f7760448201526e0818d85b881c995cdd185c9d081a5d608a1b60648201526084016105e0565b5f816005015442111561191a5760058201546012830154111561190857601282015461190190426144fe565b905061191a565b600582015461191790426144fe565b90505b6014820180545f601285018190556001600160a81b031990911690915560138301805483929061194b9084906144e5565b9250508190555080826006015f82825461196591906144e5565b9091555050604051818152339085907f2f1ed4ab782430de5128fcfb83b70e880e2101a6f6f6573e5fc375dc39ddd3c39060200161176b565b6119a6613f9e565b5f828152600960205260409020600d0154829062010000900460ff166119de5760405162461bcd60e51b81526004016105e0906144a4565b5f8381526009602081815260409283902083516102608101855281546001600160a01b0390811682526001830154811682850152600283015481168287015260038084015460608085019190915260048501549092166080840152600584015460a0840152600684015460c0840152600784015460e084015260088401546101008085019190915295840154610120840152600a840154610140840152600b840154610160840152600c840154610180840152600d84015460ff80821615156101a0860152968104871615156101c0850152620100009004861615156101e084015286518083018852600e8501548152600f850154958101959095526010840154861615158588015261020083019490945285519081019095526011820180549195929461022087019491928492911690811115611b1e57611b1e614291565b6003811115611b2f57611b2f614291565b81528154602090910190610100900460ff166003811115611b5257611b52614291565b6003811115611b6357611b63614291565b8152815460209091019062010000900460ff166003811115611b8757611b87614291565b6003811115611b9857611b98614291565b9052508152604080516080810182526012840154815260138401546020808301919091526014909401546001600160a01b03811692820192909252600160a01b90910460ff16151560608201529101529392505050565b6001600160a01b0381165f9081526007602052604081205460ff16611c265760405162461bcd60e51b81526004016105e090614574565b506001600160a01b03165f9081526008602052604090205490565b5f5b81811015610a7e57611c6c838383818110611c6057611c60614560565b90506020020135611d61565b600101611c43565b611c7c6131dd565b6001600160a01b0382165f818152600760209081526040808320805460ff19166001179055600882529182902084905590518381527f83bb6d7c6f5ef6b5807f5736263050cf35f0f7a47a0c4387182426d4e68da434910160405180910390a25050565b611ce86131dd565b828114611d075760405162461bcd60e51b81526004016105e090614530565b5f5b8381101561090457611d59858583818110611d2657611d26614560565b9050602002016020810190611d3b9190614201565b848484818110611d4d57611d4d614560565b90506020020135611c74565b600101611d09565b5f818152600960205260409020600d0154819062010000900460ff16611d995760405162461bcd60e51b81526004016105e0906144a4565b5f82815260096020526040812090611db0846105a8565b60028301549091505f90611dce9086906001600160a01b0316610fbf565b90505f8111611e1f5760405162461bcd60e51b815260206004820152601c60248201527f6e6f2066756e647320617661696c61626c6520666f7220636c61696d0000000060448201526064016105e0565b6040805160c0810182526002546001600160a01b0390811682526003548116602080840191909152600554821683850152600654821660608401526611c37937e08000608084015260048701549091165f9081526008909152919091205460a08201526109049086908490849087613288565b611e9a6131dd565b600580546001600160a01b0319166001600160a01b0392909216919091179055565b5f5b81811015610a7e57611ee7838383818110611edb57611edb614560565b905060200201356112cc565b600101611ebe565b611ef76128e0565b5f828152600960205260409020600d0154829062010000900460ff16611f2f5760405162461bcd60e51b81526004016105e0906144a4565b5f838152600960209081526040808320815160c0810183526002546001600160a01b039081168252600354811682860152600554811682850152600654811660608301526611c37937e080006080830152600483015416855260089093529083205460a08301529190611fa890869086903490866134ac565b9050336108fc611fb883346144fe565b6040518115909202915f818181858888f19350505050158015611fdd573d5f803e3d5ffd5b50505050610f7e60015f55565b5f818152600960205260409020600d0154819062010000900460ff166120225760405162461bcd60e51b81526004016105e0906144a4565b5f82815260096020818152604080842081516102608101835281546001600160a01b0390811682526001830154811682860152600283015481168285015260038084015460608085019190915260048501549092166080840152600584015460a0840152600684015460c0840152600784015460e084015260088401546101008085019190915296840154610120840152600a840154610140840152600b840154610160840152600c840154610180840152600d84015460ff80821615156101a0860152978104881615156101c0850152620100009004871615156101e084015284518083018652600e8501548152600f85015496810196909652601084015487161515868601526102008301959095528351908101909352601182018054919592946102208701949391928492169081111561216157612161614291565b600381111561217257612172614291565b81528154602090910190610100900460ff16600381111561219557612195614291565b60038111156121a6576121a6614291565b8152815460209091019062010000900460ff1660038111156121ca576121ca614291565b60038111156121db576121db614291565b9052508152604080516080810182526012840154815260138401546020808301919091526014909401546001600160a01b03811692820192909252600160a01b90910460ff16151560608201529101526101c0810151909150156122815760405162461bcd60e51b815260206004820152601a60248201527f666c6f7720697320616c7265616479207465726d696e6174656400000000000060448201526064016105e0565b5f61228b846105a8565b90505f61229c858460200151610fbf565b90505f6122ad868560400151610fbf565b60808501516002549192506001600160a01b0391821691161480156122db575083516001600160a01b031633145b156124525760208401516001600160a01b0316320361235857600384610220015160200151600381111561231157612311614291565b14806123375750600184610220015160200151600381111561233557612335614291565b145b6123535760405162461bcd60e51b81526004016105e090614633565b61241f565b60408401516001600160a01b031632036123cb57600384610220015160200151600381111561238957612389614291565b14806123af575060028461022001516020015160038111156123ad576123ad614291565b145b6123535760405162461bcd60e51b81526004016105e090614684565b60405162461bcd60e51b8152602060048201526024808201527f6e6f7420617574686f72697a656420746f207465726d696e6174652074686520604482015263666c6f7760e01b60648201526084016105e0565b83515f8781526009602081905260409091200154608086015161244d926001600160a01b0390911691613835565b6125ef565b60208401516001600160a01b031633036124ca57600384610220015160200151600381111561248357612483614291565b14806124a9575060018461022001516020015160038111156124a7576124a7614291565b145b6124c55760405162461bcd60e51b81526004016105e090614633565b61253d565b60408401516001600160a01b031633036123cb5760038461022001516020015160038111156124fb576124fb614291565b14806125215750600284610220015160200151600381111561251f5761251f614291565b145b6124c55760405162461bcd60e51b81526004016105e090614684565b80156125c35760808401516001600160a01b03165f908152600860205260408120546127109061256d90846145ce565b6125779190614511565b6005546080870151919250612599916001600160a01b03908116911683613835565b60408501516125c1906125ac83856144fe565b60808801516001600160a01b03169190613835565b505b81156125ef576125ef84602001518386608001516001600160a01b03166138359092919063ffffffff16565b6102008401516040015115155f0361261d575f868152600960205260409020601001805460ff191660011790555b821561267e5783610240015160200151838560e0015161263d91906145ce565b61264791906144e5565b5f878152600960205260408120600a0180549091906126679084906144e5565b90915550505f868152600960205260408120601301555b5f868152600960208181526040808420600d8101805461ff001916610100179055909201929092558051848152918201839052339188917f43acfd20cba69d3105bc741dd2309494a8078fbd9edbba352f55c1d2e8d5a073910160405180910390a3505050505050565b6126f06131dd565b6001600160a01b0381166127555760405162461bcd60e51b815260206004820152602660248201527f4f776e61626c653a206e6577206f776e657220697320746865207a65726f206160448201526564647265737360d01b60648201526084016105e0565b610a4881613237565b6127666128e0565b348382146127865760405162461bcd60e51b81526004016105e090614530565b5f5b848110156128a4575f60095f8888858181106127a6576127a6614560565b9050602002013581526020019081526020015f20905080600d0160029054906101000a900460ff166127ea5760405162461bcd60e51b81526004016105e0906144a4565b5f61288c88888581811061280057612800614560565b9050602002013587878681811061281957612819614560565b6040805160c0810182526002546001600160a01b0390811682526003548116602083810191909152600554821683850152600654821660608401526611c37937e08000608084015260048b01549091165f90815260088252929092205460a08201529102929092013591889150866134ac565b905061289881856144fe565b93505050600101612788565b50604051339082156108fc029083905f818181858888f193505050501580156128cf573d5f803e3d5ffd5b50506128da60015f55565b50505050565b60025f54036129315760405162461bcd60e51b815260206004820152601f60248201527f5265656e7472616e637947756172643a207265656e7472616e742063616c6c0060448201526064016105e0565b60025f55565b5f61294f61294a36859003850185614733565b613898565b5f61296761296236869003860186614733565b613ab0565b6040805161026081019091525f815290915060208082019061298b90870187614201565b6001600160a01b031681526020018560200160208101906129ac9190614201565b6001600160a01b031681526040808701356020830152016129d36080870160608801614201565b6001600160a01b03168152602001856080013581526020018560a0013581526020018560c0013581526020018281526020018560400135815260200185608001358152602001428152602001856101200135815260200185610140016020810190612a3e9190614812565b151581526020015f1515815260200160011515815260200160405180606001604052808760e00135815260200187610100013581526020015f15158152508152602001604051806060016040528087610160016020810190612aa0919061482d565b6003811115612ab157612ab1614291565b8152602001612ac86101a089016101808a0161482d565b6003811115612ad957612ad9614291565b8152602001612af06101c089016101a08a0161482d565b6003811115612b0157612b01614291565b9052815260408051608080820183525f80835260208381018290528385018290526060808501839052958101939093528c8152888352839020855181546001600160a01b039182166001600160a01b031991821617835587850151600184810180549285169284169290921790915588870151600285018054918516918416919091179055968801516003808501919091559388015160048401805491909316911617905560a0860151600582015560c0860151600682015560e086015160078201556101008087015160088301556101208701516009830155610140870151600a830155610160870151600b830155610180870151600c8301556101a0870151600d830180546101c08a01516101e08b01511515620100000262ff00001991151590950261ff00199415159490941661ffff199092169190911792909217919091169190911790556102008601518051600e83015592830151600f820155919092015160108201805491151560ff19928316179055610220850151805160118401805494969295909491938593921691908490811115612ca457612ca4614291565b021790555060208201518154829061ff001916610100836003811115612ccc57612ccc614291565b021790555060408201518154829062ff0000191662010000836003811115612cf657612cf6614291565b0217905550505061024091909101518051601283015560208082015160138401556040820151601490930180546060909301511515600160a01b026001600160a81b03199093166001600160a01b039485161792909217909155860151163303612d8b576020858101515f89815291859052604090912080546001600160a01b0319166001600160a01b039092169190911790555b612db633306040870135612da56080890160608a01614201565b6001600160a01b0316929190613bd0565b612dc861016085016101408601614812565b15612e9757610120840135612de5608086013560a08701356144fe565b612def9190614511565b612dfa9060016144e5565b8560800151612e0991906145ce565b915081861015612e5b5760405162461bcd60e51b815260206004820152601b60248201527f6175746f20776974686472617720666565206e6f20656e6f756768000000000060448201526064016105e0565b84606001516001600160a01b03166108fc8390811502906040515f60405180830381858888f19350505050158015612e95573d5f803e3d5ffd5b505b8360e001355f03612ec2575f878152602084905260409020601001805460ff19166001179055612fc0565b4284610100013511612fc05760208501516001600160a01b03163303612f1057612f0b3360e0860135612efb6080880160608901614201565b6001600160a01b03169190613835565b612f87565b5f6127108660a001518660e00135612f2891906145ce565b612f329190614511565b90505f612f438260e08801356144fe565b6040880151909150612f609083612efb60808a0160608b01614201565b612f84612f736040880160208901614201565b82612efb60808a0160608b01614201565b50505b5f87815260208490526040812060108101805460ff19166001179055600901805460e08701359290612fba9084906144fe565b90915550505b5f878152602084815260409182902082516102608101845281546001600160a01b0390811682526001830154811682850152600283015481168286015260038084015460608085019190915260048501549092166080840152600584015460a0840152600684015460c0840152600784015460e08401526008840154610100808501919091526009850154610120850152600a850154610140850152600b850154610160850152600c850154610180850152600d85015460ff80821615156101a0870152918104821615156101c0860152620100009004811615156101e085015286518084018852600e8601548152600f860154968101969096526010850154811615158688015261020084019590955285519182019095526011830180546131d3968e969495946102208701949392849291169081111561310457613104614291565b600381111561311557613115614291565b81528154602090910190610100900460ff16600381111561313857613138614291565b600381111561314957613149614291565b8152815460209091019062010000900460ff16600381111561316d5761316d614291565b600381111561317e5761317e614291565b9052508152604080516080810182526012840154815260138401546020808301919091526014909401546001600160a01b03811692820192909252600160a01b90910460ff1615156060820152910152613c08565b5095945050505050565b6001546001600160a01b03163314610f935760405162461bcd60e51b815260206004820181905260248201527f4f776e61626c653a2063616c6c6572206973206e6f7420746865206f776e657260448201526064016105e0565b600180546001600160a01b038381166001600160a01b0319831681179093556040519116919082907f8be0079c531659141344cd1fd0a4f28419497f9722a3daafe3b4186f6b6457e0905f90a35050565b6014810154600160a01b900460ff16156132d75760405162461bcd60e51b815260206004820152601060248201526f1cdd1c99585b481a5cc81c185d5cd95960821b60448201526064016105e0565b600d810154610100900460ff16156133245760405162461bcd60e51b815260206004820152601060248201526f1cdd1c99585b481a5cc818db1bdcd95960821b60448201526064016105e0565b82816009015461333491906144fe565b6009820155831561337c57601381015460078201546133549086906145ce565b61335e91906144e5565b81600a015f82825461337091906144e5565b90915550505f60138201555b600481015482516001600160a01b0390811691161480156133a6575080546001600160a01b031633145b156133ce57805460048201546133c9916001600160a01b03918216911685613835565b613440565b5f6127108360a00151856133e291906145ce565b6133ec9190614511565b6040840151600484015491925061340d916001600160a01b03169083613835565b600282015461343e906001600160a01b031661342983876144fe565b60048501546001600160a01b03169190613835565b505b601081015460ff161580156134595750600f8101544210155b1561346e5760108101805460ff191660011790555b604051838152339086907f1d04bd1271909efd9c053804a5059d66fd1106cf314b06f64bc78225f0f0965f9060200160405180910390a35050505050565b5f816006015485116135125760405162461bcd60e51b815260206004820152602960248201527f73746f702074696d65206e6f74206166746572207468652063757272656e742060448201526873746f702074696d6560b81b60648201526084016105e0565b6014820154600160a01b900460ff16156135615760405162461bcd60e51b815260206004820152601060248201526f1cdd1c99585b481a5cc81c185d5cd95960821b60448201526064016105e0565b600d820154610100900460ff16156135ae5760405162461bcd60e51b815260206004820152601060248201526f1cdd1c99585b481a5cc818db1bdcd95960821b60448201526064016105e0565b60018201546001600160a01b03163314806135ee5750600482015483516001600160a01b0390811691161480156135ee575081546001600160a01b031633145b61363a5760405162461bcd60e51b815260206004820181905260248201527f6e6f7420616c6c6f77656420746f20657874656e64207468652073747265616d60448201526064016105e0565b5f82600601548661364b91906144fe565b90505f83600701548261365e9190614511565b90508184600701548261367191906145ce565b146136c95760405162461bcd60e51b815260206004820152602260248201527f73746f702074696d65206e6f74206d756c7469706c65206f6620696e74657276604482015261185b60f21b60648201526084016105e0565b600d84015460ff161561378d57600c8401546136e59083614511565b6136f09060016144e5565b85608001516136ff91906145ce565b9250828610156137515760405162461bcd60e51b815260206004820152601b60248201527f6175746f20776974686472617720666565206e6f20656e6f756768000000000060448201526064016105e0565b84606001516001600160a01b03166108fc8490811502906040515f60405180830381858888f1935050505015801561378b573d5f803e3d5ffd5b505b5f84600801548261379e91906145ce565b6006860189905560038601549091506137b89082906144e5565b600386015560098501546137cd9082906144e5565b600986015560048501546137ec906001600160a01b0316333084613bd0565b604080518981526020810183905233918b917fa8a3291df9a56984eb649b8a6750e262e6f9bf1e02a64f3274b8407e2c520261910160405180910390a350505095945050505050565b6040516001600160a01b038316602482015260448101829052610a7e90849063a9059cbb60e01b906064015b60408051601f198184030181529190526020810180516001600160e01b03166001600160e01b031990931692909217909152613d41565b60208101516001600160a01b03166138f25760405162461bcd60e51b815260206004820152601a60248201527f73747265616d20746f20746865207a65726f206164647265737300000000000060448201526064016105e0565b306001600160a01b031681602001516001600160a01b0316036139575760405162461bcd60e51b815260206004820152601d60248201527f73747265616d20746f2074686520636f6e747261637420697473656c6600000060448201526064016105e0565b805f01516001600160a01b031681602001516001600160a01b0316036139b65760405162461bcd60e51b815260206004820152601460248201527339ba3932b0b6903a37903a34329031b0b63632b960611b60448201526064016105e0565b5f8160400151116139fb5760405162461bcd60e51b815260206004820152600f60248201526e6465706f736974206973207a65726f60881b60448201526064016105e0565b4281608001511015613a595760405162461bcd60e51b815260206004820152602160248201527f73746172742074696d65206265666f726520626c6f636b2e74696d657374616d6044820152600760fc1b60648201526084016105e0565b80608001518160a0015111610a485760405162461bcd60e51b815260206004820152601f60248201527f73746f702074696d65206265666f7265207468652073746172742074696d650060448201526064016105e0565b5f8082608001518360a00151613ac691906144fe565b90505f8360c0015182613ad99190614511565b9050818460c0015182613aec91906145ce565b14613b395760405162461bcd60e51b815260206004820152601d60248201527f6465706f73697420736d616c6c6572207468616e206475726174696f6e00000060448201526064016105e0565b808460e001518560400151613b4e91906144fe565b613b589190614511565b92508360e001518460400151613b6e91906144fe565b613b7882856145ce565b146108885760405162461bcd60e51b815260206004820152602260248201527f6465706f736974206e6f74206d756c7469706c65206f662074696d652064656c604482015261746160f01b60648201526084016105e0565b6040516001600160a01b03808516602483015283166044820152606481018290526128da9085906323b872dd60e01b90608401613861565b80604001516001600160a01b031681602001516001600160a01b0316837f84b2cf2d8353011c4921c23f6fddd1c8cc6d156d62bf0cca909405cbe06a962e846060015185608001518660a001518760c001518860e001518961020001515f01518a6102000151602001518b61018001518c6101a001518d61022001515f01516003811115613c9857613c98614291565b8e6102200151602001516003811115613cb357613cb3614291565b8f6102200151604001516003811115613cce57613cce614291565b604080519c8d526001600160a01b03909b1660208d0152998b019890985260608a0196909652608089019490945260a088019290925260c087015260e0860152151561010085015260ff908116610120850152908116610140840152166101608201526101800160405180910390a45050565b5f613d95826040518060400160405280602081526020017f5361666545524332303a206c6f772d6c6576656c2063616c6c206661696c6564815250856001600160a01b0316613e149092919063ffffffff16565b905080515f1480613db5575080806020019051810190613db59190614846565b610a7e5760405162461bcd60e51b815260206004820152602a60248201527f5361666545524332303a204552433230206f7065726174696f6e20646964206e6044820152691bdd081cdd58d8d9595960b21b60648201526084016105e0565b6060613e2284845f85613e2a565b949350505050565b606082471015613e8b5760405162461bcd60e51b815260206004820152602660248201527f416464726573733a20696e73756666696369656e742062616c616e636520666f6044820152651c8818d85b1b60d21b60648201526084016105e0565b5f80866001600160a01b03168587604051613ea69190614861565b5f6040518083038185875af1925050503d805f8114613ee0576040519150601f19603f3d011682016040523d82523d5f602084013e613ee5565b606091505b5091509150613ef687838387613f01565b979650505050505050565b60608315613f6f5782515f03613f68576001600160a01b0385163b613f685760405162461bcd60e51b815260206004820152601d60248201527f416464726573733a2063616c6c20746f206e6f6e2d636f6e747261637400000060448201526064016105e0565b5081613e22565b613e228383815115613f845781518083602001fd5b8060405162461bcd60e51b81526004016105e09190614877565b6040518061026001604052805f6001600160a01b031681526020015f6001600160a01b031681526020015f6001600160a01b031681526020015f81526020015f6001600160a01b031681526020015f81526020015f81526020015f81526020015f81526020015f81526020015f81526020015f81526020015f81526020015f151581526020015f151581526020015f1515815260200161405760405180606001604052805f81526020015f81526020015f151581525090565b815260200161407d6040805160608101909152805f81526020015f81526020015f905290565b8152604080516080810182525f8082526020828101829052928201819052606082015291015290565b5f602082840312156140b6575f80fd5b5035919050565b5f8083601f8401126140cd575f80fd5b50813567ffffffffffffffff8111156140e4575f80fd5b6020830191508360208260051b85010111156140fe575f80fd5b9250929050565b5f805f8060408587031215614118575f80fd5b843567ffffffffffffffff8082111561412f575f80fd5b61413b888389016140bd565b90965094506020870135915080821115614153575f80fd5b50614160878288016140bd565b95989497509550505050565b5f6101c0828403121561088a575f80fd5b5f806020838503121561418e575f80fd5b823567ffffffffffffffff8111156141a4575f80fd5b6141b0858286016140bd565b90969095509350505050565b80356001600160a01b03811681146141d2575f80fd5b919050565b5f80604083850312156141e8575f80fd5b823591506141f8602084016141bc565b90509250929050565b5f60208284031215614211575f80fd5b61421a826141bc565b9392505050565b5f8060208385031215614232575f80fd5b823567ffffffffffffffff80821115614249575f80fd5b818501915085601f83011261425c575f80fd5b81358181111561426a575f80fd5b8660206101c08302850101111561427f575f80fd5b60209290920196919550909350505050565b634e487b7160e01b5f52602160045260245ffd5b600481106142c157634e487b7160e01b5f52602160045260245ffd5b9052565b6142d08282516142a5565b60208101516142e260208401826142a5565b506040810151610a7e60408401826142a5565b81516001600160a01b031681526103408101602083015161432160208401826001600160a01b03169052565b50604083015161433c60408401826001600160a01b03169052565b5060608301516060830152608083015161436160808401826001600160a01b03169052565b5060a0838101519083015260c0808401519083015260e08084015190830152610100808401519083015261012080840151908301526101408084015190830152610160808401519083015261018080840151908301526101a0808401511515908301526101c0808401511515908301526101e08084015115159083015261020080840151805191840191909152602081015161022080850191909152604090910151151561024084015283015161441c6102608401826142c5565b5061024083015180516102c084015260208101516102e084015260408101516001600160a01b0316610300840152606081015115156103208401526112c5565b5f806040838503121561446d575f80fd5b614476836141bc565b946020939093013593505050565b5f8060408385031215614495575f80fd5b50508035926020909101359150565b602080825260139082015272199b1bddc8191bd95cc81b9bdd08195e1a5cdd606a1b604082015260600190565b634e487b7160e01b5f52601160045260245ffd5b808201808211156144f8576144f86144d1565b92915050565b818103818111156144f8576144f86144d1565b5f8261452b57634e487b7160e01b5f52601260045260245ffd5b500490565b6020808252601690820152750c2e4e4c2f2e640d8cadccee8d040dad2e6dac2e8c6d60531b604082015260600190565b634e487b7160e01b5f52603260045260245ffd5b602080825260149082015273185cdcd95d081b9bdd081c9959da5cdd195c995960621b604082015260600190565b602080825260129082015271199b1bddc81a5cc81d195c9b5a5b985d195960721b604082015260600190565b80820281158282048414176144f8576144f86144d1565b6020808252602e908201527f62656e6566696369617279206973206e6f7420617574686f72697a656420746f60408201526d2068616c742074686520666c6f7760901b606082015260800190565b60208082526031908201527f696e69746961746f72206973206e6f7420617574686f72697a656420746f207460408201527065726d696e6174652074686520666c6f7760781b606082015260800190565b60208082526033908201527f62656e6566696369617279206973206e6f7420617574686f72697a656420746f604082015272207465726d696e6174652074686520666c6f7760681b606082015260800190565b6040516101c0810167ffffffffffffffff8111828210171561470757634e487b7160e01b5f52604160045260245ffd5b60405290565b8015158114610a48575f80fd5b80356141d28161470d565b8035600481106141d2575f80fd5b5f6101c08284031215614744575f80fd5b61474c6146d7565b614755836141bc565b8152614763602084016141bc565b60208201526040830135604082015261477e606084016141bc565b60608201526080830135608082015260a083013560a082015260c083013560c082015260e083013560e08201526101008084013581830152506101208084013581830152506101406147d181850161471a565b908201526101606147e3848201614725565b908201526101806147f5848201614725565b908201526101a0614807848201614725565b908201529392505050565b5f60208284031215614822575f80fd5b813561421a8161470d565b5f6020828403121561483d575f80fd5b61421a82614725565b5f60208284031215614856575f80fd5b815161421a8161470d565b5f82518060208501845e5f920191825250919050565b602081525f82518060208401528060208501604085015e5f604082850101526040601f19601f8301168401019150509291505056fea2646970667358221220ca3cfaca5c4d6b8f610a0e16c19d7d848108ebdaa724dcba49c69181d7c1739a64736f6c63430008190033","linkReferences":{}},"methodIdentifiers":{"GATEWAY()":"338c5371","WETH()":"ad5c4648","autoWithdrawAccount()":"b8ae0aab","autoWithdrawFeeForOnce()":"855f1a8c","availableFunds(uint256,address)":"74e52218","bulkClaimFromFlow(uint256[])":"a6054c49","bulkCreateFlow((address,address,uint256,address,uint256,uint256,uint256,uint256,uint256,uint256,bool,uint8,uint8,uint8)[])":"6bcf87b9","bulkExtendFlow(uint256[],uint256[])":"f71db568","bulkHaltFlow(uint256[])":"d7c0a97e","bulkRegisterAsset(address[],uint256[])":"bb333604","bulkRestartFlow(uint256[])":"27c5cb0f","bulkTerminateFlow(uint256[])":"56e50c02","bulkUpdateBeneficiary(uint256[],address[])":"08d575cb","claimFromFlow(uint256)":"c61a7e4d","configureGateway(address)":"62e9a2f5","feeRecipient()":"46904840","getStream(uint256)":"894e9a0d","haltFlow(uint256)":"75d26e44","initializeFlow((address,address,uint256,address,uint256,uint256,uint256,uint256,uint256,uint256,bool,uint8,uint8,uint8))":"26bf6729","nextStreamId()":"1e99d569","owner()":"8da5cb5b","prolongFlow(uint256,uint256)":"daebec11","registerAsset(address,uint256)":"b7785afb","renounceOwnership()":"715018a6","restartFlow(uint256)":"84d3e098","terminateFlow(uint256)":"e9539434","timeElapsed(uint256)":"08913ce8","tokenFeeRate(address)":"a2e40c44","transferOwnership(address)":"f2fde38b","updateAutoClaimAccount(address)":"71ade629","updateBeneficiary(uint256,address)":"3e8eb5a4","updateFeeCollector(address)":"d2c35ce8"},"id":1}