{"abi":[{"type":"constructor","inputs":[{"name":"weth","type":"address","internalType":"address"},{"name":"stream","type":"address","internalType":"contract IStream"}],"stateMutability":"nonpayable"},{"type":"fallback","stateMutability":"payable"},{"type":"receive","stateMutability":"payable"},{"type":"function","name":"bulkClaimFromFlowETH","inputs":[{"name":"streamIds","type":"uint256[]","internalType":"uint256[]"}],"outputs":[],"stateMutability":"nonpayable"},{"type":"function","name":"bulkHaltFlowETH","inputs":[{"name":"streamIds","type":"uint256[]","internalType":"uint256[]"}],"outputs":[],"stateMutability":"nonpayable"},{"type":"function","name":"bulkInitializeFlowETH","inputs":[{"name":"inputParams","type":"tuple[]","internalType":"struct Struct.initializeStreamParams[]","components":[{"name":"sender","type":"address","internalType":"address"},{"name":"recipient","type":"address","internalType":"address"},{"name":"deposit","type":"uint256","internalType":"uint256"},{"name":"tokenAddress","type":"address","internalType":"address"},{"name":"startTime","type":"uint256","internalType":"uint256"},{"name":"stopTime","type":"uint256","internalType":"uint256"},{"name":"interval","type":"uint256","internalType":"uint256"},{"name":"cliffAmount","type":"uint256","internalType":"uint256"},{"name":"cliffTime","type":"uint256","internalType":"uint256"},{"name":"autoWithdrawInterval","type":"uint256","internalType":"uint256"},{"name":"autoWithdraw","type":"bool","internalType":"bool"},{"name":"pauseable","type":"uint8","internalType":"enum Struct.Capability"},{"name":"closeable","type":"uint8","internalType":"enum Struct.Capability"},{"name":"recipientModifiable","type":"uint8","internalType":"enum Struct.Capability"}]}],"outputs":[],"stateMutability":"payable"},{"type":"function","name":"bulkProlongFlowETH","inputs":[{"name":"streamIds","type":"uint256[]","internalType":"uint256[]"},{"name":"newStopTimes","type":"uint256[]","internalType":"uint256[]"}],"outputs":[],"stateMutability":"payable"},{"type":"function","name":"bulkTerminateFlowETH","inputs":[{"name":"streamIds","type":"uint256[]","internalType":"uint256[]"}],"outputs":[],"stateMutability":"nonpayable"},{"type":"function","name":"claimFromFlowETH","inputs":[{"name":"streamId","type":"uint256","internalType":"uint256"}],"outputs":[],"stateMutability":"nonpayable"},{"type":"function","name":"emergencyEtherTransfer","inputs":[{"name":"to","type":"address","internalType":"address"},{"name":"amount","type":"uint256","internalType":"uint256"}],"outputs":[],"stateMutability":"nonpayable"},{"type":"function","name":"emergencyTokenTransfer","inputs":[{"name":"token","type":"address","internalType":"address"},{"name":"to","type":"address","internalType":"address"},{"name":"amount","type":"uint256","internalType":"uint256"}],"outputs":[],"stateMutability":"nonpayable"},{"type":"function","name":"getWETHAddress","inputs":[],"outputs":[{"name":"","type":"address","internalType":"address"}],"stateMutability":"view"},{"type":"function","name":"haltFlowETH","inputs":[{"name":"streamId","type":"uint256","internalType":"uint256"}],"outputs":[],"stateMutability":"nonpayable"},{"type":"function","name":"initializeFlowETH","inputs":[{"name":"inputParams","type":"tuple","internalType":"struct Struct.initializeStreamParams","components":[{"name":"sender","type":"address","internalType":"address"},{"name":"recipient","type":"address","internalType":"address"},{"name":"deposit","type":"uint256","internalType":"uint256"},{"name":"tokenAddress","type":"address","internalType":"address"},{"name":"startTime","type":"uint256","internalType":"uint256"},{"name":"stopTime","type":"uint256","internalType":"uint256"},{"name":"interval","type":"uint256","internalType":"uint256"},{"name":"cliffAmount","type":"uint256","internalType":"uint256"},{"name":"cliffTime","type":"uint256","internalType":"uint256"},{"name":"autoWithdrawInterval","type":"uint256","internalType":"uint256"},{"name":"autoWithdraw","type":"bool","internalType":"bool"},{"name":"pauseable","type":"uint8","internalType":"enum Struct.Capability"},{"name":"closeable","type":"uint8","internalType":"enum Struct.Capability"},{"name":"recipientModifiable","type":"uint8","internalType":"enum Struct.Capability"}]}],"outputs":[],"stateMutability":"payable"},{"type":"function","name":"owner","inputs":[],"outputs":[{"name":"","type":"address","internalType":"address"}],"stateMutability":"view"},{"type":"function","name":"prolongFlowETH","inputs":[{"name":"streamId","type":"uint256","internalType":"uint256"},{"name":"newStopTime","type":"uint256","internalType":"uint256"}],"outputs":[],"stateMutability":"payable"},{"type":"function","name":"renounceOwnership","inputs":[],"outputs":[],"stateMutability":"nonpayable"},{"type":"function","name":"terminateFlowETH","inputs":[{"name":"streamId","type":"uint256","internalType":"uint256"}],"outputs":[],"stateMutability":"nonpayable"},{"type":"function","name":"transferOwnership","inputs":[{"name":"newOwner","type":"address","internalType":"address"}],"outputs":[],"stateMutability":"nonpayable"},{"type":"event","name":"OwnershipTransferred","inputs":[{"name":"previousOwner","type":"address","indexed":true,"internalType":"address"},{"name":"newOwner","type":"address","indexed":true,"internalType":"address"}],"anonymous":false}],"bytecode":{"object":"0x60c060405234801561000f575f80fd5b50604051613d60380380613d6083398101604081905261002e91610126565b610037336100c0565b600180556001600160a01b03828116608081905290821660a081905260405163095ea7b360e01b815260048101919091525f19602482015263095ea7b3906044016020604051808303815f875af1158015610094573d5f803e3d5ffd5b505050506040513d601f19601f820116820180604052508101906100b8919061015e565b505050610184565b5f80546001600160a01b038381166001600160a01b0319831681178455604051919092169283917f8be0079c531659141344cd1fd0a4f28419497f9722a3daafe3b4186f6b6457e09190a35050565b6001600160a01b0381168114610123575f80fd5b50565b5f8060408385031215610137575f80fd5b82516101428161010f565b60208401519092506101538161010f565b809150509250929050565b5f6020828403121561016e575f80fd5b8151801515811461017d575f80fd5b9392505050565b60805160a0516139f461036c5f395f818161013801528181610453015281816106f1015281816107b40152818161082401528181610a0601528181610a9301528181610c7701528181610db801528181610e2801528181610eb501528181610f5e0152818161101c015281816110d901528181611281015281816112f8015281816113b20152818161145b015281816114e501528181611662015281816116d20152818161175f01528181611808015281816118c501528181611a2401528181611ae601528181611b5401528181611eb501528181612078015281816120ef015281816121a901528181612200015281816122930152818161231e015281816123d80152818161251a015281816125a40152818161269b0152818161270b0152818161279801528181612841015281816128fe01528181612a7001528181612b5b0152612c8f01525f8181610106015281816102ed01528181610510015281816105dc0152818161078a015281816108dc01528181610c0701528181610d8e0152818161116c015281816114310152818161157c015281816116380152818161198f01528181611ab901528181611cd401528181611da001528181611f6f01528181612439015281816124f001528181612671015281816129c80152612c0701526139f45ff3fe6080604052600436106100f6575f3560e01c8063a3d5b25511610089578063c176000911610058578063c17600091461034f578063e148a47f1461036e578063eed88b8d14610381578063f2fde38b146103a0576101a3565b8063a3d5b255146102c0578063affa8817146102df578063ba6be03614610311578063bd5bbb5f14610330576101a3565b8063715018a6116100c5578063715018a61461024657806373b7d17c1461025a57806374791ae7146102795780638da5cb5b1461028c576101a3565b806323afc8a5146101e25780632f72018d146101f55780633a5a1adb146102085780635596cf0314610227576101a3565b366101a357336001600160a01b037f000000000000000000000000000000000000000000000000000000000000000016148061015a5750336001600160a01b037f000000000000000000000000000000000000000000000000000000000000000016145b6101a15760405162461bcd60e51b8152602060048201526013602482015272149958d95a5d99481b9bdd08185b1b1bddd959606a1b60448201526064015b60405180910390fd5b005b60405162461bcd60e51b815260206004820152601460248201527311985b1b189858dac81b9bdd08185b1b1bddd95960621b6044820152606401610198565b6101a16101f03660046131e6565b6103bf565b6101a1610203366004613245565b6109b1565b348015610213575f80fd5b506101a16102223660046132ac565b610d6f565b348015610232575f80fd5b506101a16102413660046132eb565b611261565b348015610251575f80fd5b506101a1611606565b348015610265575f80fd5b506101a16102743660046132ac565b611619565b6101a1610287366004613302565b611a17565b348015610297575f80fd5b505f546001600160a01b03165b6040516001600160a01b03909116815260200160405180910390f35b3480156102cb575f80fd5b506101a16102da366004613386565b612037565b3480156102ea575f80fd5b507f00000000000000000000000000000000000000000000000000000000000000006102a4565b34801561031c575f80fd5b506101a161032b3660046132eb565b612058565b34801561033b575f80fd5b506101a161034a3660046132eb565b6121e0565b34801561035a575f80fd5b506101a16103693660046132ac565b612652565b6101a161037c3660046133c4565b612a50565b34801561038c575f80fd5b506101a161039b3660046133e4565b612d16565b3480156103ab575f80fd5b506101a16103ba36600461340e565b612d28565b6103c7612d9e565b5f6103d8608083016060840161340e565b6001600160a01b0316146104385760405162461bcd60e51b815260206004820152602160248201527f746f6b656e41646472657373206d757374206265205a45524f204144445245536044820152605360f81b6064820152608401610198565b5f61044b6101608301610140840161343d565b1561050e575f7f00000000000000000000000000000000000000000000000000000000000000006001600160a01b031663855f1a8c6040518163ffffffff1660e01b8152600401602060405180830381865afa1580156104ad573d5f803e3d5ffd5b505050506040513d601f19601f820116820180604052508101906104d19190613458565b90506101208301356104eb608085013560a0860135613483565b6104f5919061349c565b6105009060016134bb565b61050a90826134ce565b9150505b7f00000000000000000000000000000000000000000000000000000000000000006001600160a01b031663d0e30db083604001356040518263ffffffff1660e01b81526004015f604051808303818588803b15801561056b575f80fd5b505af115801561057d573d5f803e3d5ffd5b50505050505f604051806101c00160405280845f0160208101906105a1919061340e565b6001600160a01b031681526020018460200160208101906105c2919061340e565b6001600160a01b03168152602001846040013581526020017f00000000000000000000000000000000000000000000000000000000000000006001600160a01b03168152602001846080013581526020018460a0013581526020018460c0013581526020018460e001358152602001846101000135815260200184610120013581526020018461014001602081019061065b919061343d565b15158152602001610674610180860161016087016134f1565b60038111156106855761068561350c565b815260200161069c6101a0860161018087016134f1565b60038111156106ad576106ad61350c565b81526020016106c46101c086016101a087016134f1565b60038111156106d5576106d561350c565b90526040516326bf672960e01b81529091506001600160a01b037f000000000000000000000000000000000000000000000000000000000000000016906326bf6729908490610728908590600401613540565b5f604051808303818588803b15801561073f575f80fd5b505af1158015610751573d5f803e3d5ffd5b5050505050428361010001351115801561076e57505f8360e00135115b15610971576040516328b9031160e21b81526001600160a01b037f0000000000000000000000000000000000000000000000000000000000000000811660048301525f917f00000000000000000000000000000000000000000000000000000000000000009091169063a2e40c4490602401602060405180830381865afa1580156107fb573d5f803e3d5ffd5b505050506040513d601f19601f8201168201806040525081019061081f9190613458565b90505f7f00000000000000000000000000000000000000000000000000000000000000006001600160a01b031663469048406040518163ffffffff1660e01b8152600401602060405180830381865afa15801561087e573d5f803e3d5ffd5b505050506040513d601f19601f820116820180604052508101906108a2919061363d565b90505f6127106108b68460e08901356134ce565b6108c0919061349c565b604051632e1a7d4d60e01b815260e088013560048201529091507f00000000000000000000000000000000000000000000000000000000000000006001600160a01b031690632e1a7d4d906024015f604051808303815f87803b158015610925575f80fd5b505af1158015610937573d5f803e3d5ffd5b506109639250610950915050604088016020890161340e565b61095e8360e08a0135613483565b612df7565b61096d8282612df7565b5050505b61097f8260408501356134bb565b3411156109a3576109a33383610999604087013534613483565b61095e9190613483565b50506109ae60018055565b50565b6109b9612d9e565b828114610a015760405162461bcd60e51b8152602060048201526016602482015275185c9c985e481b195b99dd1a081b9bdd08195c5d585b60521b6044820152606401610198565b5f805f7f00000000000000000000000000000000000000000000000000000000000000006001600160a01b031663855f1a8c6040518163ffffffff1660e01b8152600401602060405180830381865afa158015610a60573d5f803e3d5ffd5b505050506040513d601f19601f82011682018060405250810190610a849190613458565b90505f5b86811015610d3c575f7f00000000000000000000000000000000000000000000000000000000000000006001600160a01b031663894e9a0d8a8a85818110610ad257610ad2613658565b905060200201356040518263ffffffff1660e01b8152600401610af791815260200190565b61034060405180830381865afa158015610b13573d5f803e3d5ffd5b505050506040513d601f19601f82011682018060405250810190610b3791906137e8565b90505f8160c00151888885818110610b5157610b51613658565b90506020020135610b629190613483565b90505f8260e0015182610b75919061349c565b9050818360e0015182610b8891906134ce565b14610ba55760405162461bcd60e51b815260040161019890613916565b5f83610100015182610bb791906134ce565b9050610bc381896134bb565b97505f846101a0015115610c0557610180850151610be1908561349c565b610bec9060016134bb565b610bf690886134ce565b9050610c0281896134bb565b97505b7f00000000000000000000000000000000000000000000000000000000000000006001600160a01b031663d0e30db0836040518263ffffffff1660e01b81526004015f604051808303818588803b158015610c5e575f80fd5b505af1158015610c70573d5f803e3d5ffd5b50505050507f00000000000000000000000000000000000000000000000000000000000000006001600160a01b031663daebec11828f8f8a818110610cb757610cb7613658565b905060200201358e8e8b818110610cd057610cd0613658565b905060200201356040518463ffffffff1660e01b8152600401610cfd929190918252602082015260400190565b5f604051808303818588803b158015610d14575f80fd5b505af1158015610d26573d5f803e3d5ffd5b505060019098019750610a889650505050505050565b50610d4782846134bb565b341115610d5d57610d5d33836109998634613483565b505050610d6960018055565b50505050565b610d77612d9e565b6040516328b9031160e21b81526001600160a01b037f0000000000000000000000000000000000000000000000000000000000000000811660048301525f917f00000000000000000000000000000000000000000000000000000000000000009091169063a2e40c4490602401602060405180830381865afa158015610dff573d5f803e3d5ffd5b505050506040513d601f19601f82011682018060405250810190610e239190613458565b90505f7f00000000000000000000000000000000000000000000000000000000000000006001600160a01b031663469048406040518163ffffffff1660e01b8152600401602060405180830381865afa158015610e82573d5f803e3d5ffd5b505050506040513d601f19601f82011682018060405250810190610ea6919061363d565b90505f5b83811015611251575f7f00000000000000000000000000000000000000000000000000000000000000006001600160a01b031663894e9a0d878785818110610ef457610ef4613658565b905060200201356040518263ffffffff1660e01b8152600401610f1991815260200190565b61034060405180830381865afa158015610f35573d5f803e3d5ffd5b505050506040513d601f19601f82011682018060405250810190610f5991906137e8565b90505f7f00000000000000000000000000000000000000000000000000000000000000006001600160a01b03166374e52218888886818110610f9d57610f9d613658565b9050602002013584602001516040518363ffffffff1660e01b8152600401610fd89291909182526001600160a01b0316602082015260400190565b602060405180830381865afa158015610ff3573d5f803e3d5ffd5b505050506040513d601f19601f820116820180604052508101906110179190613458565b90505f7f00000000000000000000000000000000000000000000000000000000000000006001600160a01b03166374e5221889898781811061105b5761105b613658565b9050602002013585604001516040518363ffffffff1660e01b81526004016110969291909182526001600160a01b0316602082015260400190565b602060405180830381865afa1580156110b1573d5f803e3d5ffd5b505050506040513d601f19601f820116820180604052508101906110d59190613458565b90507f00000000000000000000000000000000000000000000000000000000000000006001600160a01b031663e953943489898781811061111857611118613658565b905060200201356040518263ffffffff1660e01b815260040161113d91815260200190565b5f604051808303815f87803b158015611154575f80fd5b505af1158015611166573d5f803e3d5ffd5b505050507f00000000000000000000000000000000000000000000000000000000000000006001600160a01b0316632e1a7d4d82846111a591906134bb565b6040518263ffffffff1660e01b81526004016111c391815260200190565b5f604051808303815f87803b1580156111da575f80fd5b505af11580156111ec573d5f803e3d5ffd5b505050505f82111561120657611206836020015183612df7565b8015611246575f61271061121a88846134ce565b611224919061349c565b905061123a8460400151828461095e9190613483565b6112448682612df7565b505b505050600101610eaa565b50505061125d60018055565b5050565b611269612d9e565b60405163894e9a0d60e01b8152600481018290525f907f00000000000000000000000000000000000000000000000000000000000000006001600160a01b03169063894e9a0d9060240161034060405180830381865afa1580156112cf573d5f803e3d5ffd5b505050506040513d601f19601f820116820180604052508101906112f391906137e8565b90505f7f00000000000000000000000000000000000000000000000000000000000000006001600160a01b03166374e522188484604001516040518363ffffffff1660e01b815260040161135a9291909182526001600160a01b0316602082015260400190565b602060405180830381865afa158015611375573d5f803e3d5ffd5b505050506040513d601f19601f820116820180604052508101906113999190613458565b604051631d749b9160e21b8152600481018590529091507f00000000000000000000000000000000000000000000000000000000000000006001600160a01b0316906375d26e44906024015b5f604051808303815f87803b1580156113fc575f80fd5b505af115801561140e573d5f803e3d5ffd5b505050505f8111156109a3576040516328b9031160e21b81526001600160a01b037f0000000000000000000000000000000000000000000000000000000000000000811660048301525f917f00000000000000000000000000000000000000000000000000000000000000009091169063a2e40c4490602401602060405180830381865afa1580156114a2573d5f803e3d5ffd5b505050506040513d601f19601f820116820180604052508101906114c69190613458565b90505f6127106114d683856134ce565b6114e0919061349c565b90505f7f00000000000000000000000000000000000000000000000000000000000000006001600160a01b031663469048406040518163ffffffff1660e01b8152600401602060405180830381865afa15801561153f573d5f803e3d5ffd5b505050506040513d601f19601f82011682018060405250810190611563919061363d565b604051632e1a7d4d60e01b8152600481018690529091507f00000000000000000000000000000000000000000000000000000000000000006001600160a01b031690632e1a7d4d906024015f604051808303815f87803b1580156115c5575f80fd5b505af11580156115d7573d5f803e3d5ffd5b50505060408601516115ee915061095e8487613483565b6115f88183612df7565b50505050506109ae60018055565b61160e612ea6565b6116175f612eff565b565b611621612d9e565b6040516328b9031160e21b81526001600160a01b037f0000000000000000000000000000000000000000000000000000000000000000811660048301525f917f00000000000000000000000000000000000000000000000000000000000000009091169063a2e40c4490602401602060405180830381865afa1580156116a9573d5f803e3d5ffd5b505050506040513d601f19601f820116820180604052508101906116cd9190613458565b90505f7f00000000000000000000000000000000000000000000000000000000000000006001600160a01b031663469048406040518163ffffffff1660e01b8152600401602060405180830381865afa15801561172c573d5f803e3d5ffd5b505050506040513d601f19601f82011682018060405250810190611750919061363d565b90505f5b83811015611251575f7f00000000000000000000000000000000000000000000000000000000000000006001600160a01b031663894e9a0d87878581811061179e5761179e613658565b905060200201356040518263ffffffff1660e01b81526004016117c391815260200190565b61034060405180830381865afa1580156117df573d5f803e3d5ffd5b505050506040513d601f19601f8201168201806040525081019061180391906137e8565b90505f7f00000000000000000000000000000000000000000000000000000000000000006001600160a01b03166374e5221888888681811061184757611847613658565b9050602002013584604001516040518363ffffffff1660e01b81526004016118829291909182526001600160a01b0316602082015260400190565b602060405180830381865afa15801561189d573d5f803e3d5ffd5b505050506040513d601f19601f820116820180604052508101906118c19190613458565b90507f00000000000000000000000000000000000000000000000000000000000000006001600160a01b031663c61a7e4d88888681811061190457611904613658565b905060200201356040518263ffffffff1660e01b815260040161192991815260200190565b5f604051808303815f87803b158015611940575f80fd5b505af1158015611952573d5f803e3d5ffd5b505050505f811115611a0d575f61271061196c87846134ce565b611976919061349c565b604051632e1a7d4d60e01b8152600481018490529091507f00000000000000000000000000000000000000000000000000000000000000006001600160a01b031690632e1a7d4d906024015f604051808303815f87803b1580156119d8575f80fd5b505af11580156119ea573d5f803e3d5ffd5b5050506040840151611a01915061095e8385613483565b611a0b8582612df7565b505b5050600101611754565b611a1f612d9e565b5f805f7f00000000000000000000000000000000000000000000000000000000000000006001600160a01b031663855f1a8c6040518163ffffffff1660e01b8152600401602060405180830381865afa158015611a7e573d5f803e3d5ffd5b505050506040513d601f19601f82011682018060405250810190611aa29190613458565b6040516328b9031160e21b81526001600160a01b037f0000000000000000000000000000000000000000000000000000000000000000811660048301529192505f917f0000000000000000000000000000000000000000000000000000000000000000169063a2e40c4490602401602060405180830381865afa158015611b2b573d5f803e3d5ffd5b505050506040513d601f19601f82011682018060405250810190611b4f9190613458565b90505f7f00000000000000000000000000000000000000000000000000000000000000006001600160a01b031663469048406040518163ffffffff1660e01b8152600401602060405180830381865afa158015611bae573d5f803e3d5ffd5b505050506040513d601f19601f82011682018060405250810190611bd2919061363d565b90505f5b868110156120085736888883818110611bf157611bf1613658565b6101c0029190910191505f9050611c0e608083016060840161340e565b6001600160a01b031614611c645760405162461bcd60e51b815260206004820152601960248201527f746f6b656e41646472657373206d7573742062652057455448000000000000006044820152606401610198565b5f611c776101608301610140840161343d565b15611cc257610120820135611c94608084013560a0850135613483565b611c9e919061349c565b611ca99060016134bb565b611cb390876134ce565b9050611cbf81886134bb565b96505b611cd06040830135896134bb565b97507f00000000000000000000000000000000000000000000000000000000000000006001600160a01b031663d0e30db083604001356040518263ffffffff1660e01b81526004015f604051808303818588803b158015611d2f575f80fd5b505af1158015611d41573d5f803e3d5ffd5b50505050505f604051806101c00160405280845f016020810190611d65919061340e565b6001600160a01b03168152602001846020016020810190611d86919061340e565b6001600160a01b03168152602001846040013581526020017f00000000000000000000000000000000000000000000000000000000000000006001600160a01b03168152602001846080013581526020018460a0013581526020018460c0013581526020018460e0013581526020018461010001358152602001846101200135815260200184610140016020810190611e1f919061343d565b15158152602001611e38610180860161016087016134f1565b6003811115611e4957611e4961350c565b8152602001611e606101a0860161018087016134f1565b6003811115611e7157611e7161350c565b8152602001611e886101c086016101a087016134f1565b6003811115611e9957611e9961350c565b90526040516326bf672960e01b81529091506001600160a01b037f000000000000000000000000000000000000000000000000000000000000000016906326bf6729908490611eec908590600401613540565b5f604051808303818588803b158015611f03575f80fd5b505af1158015611f15573d5f803e3d5ffd5b50505050504283610100013511158015611f3257505f8360e00135115b15611ffd575f612710611f498860e08701356134ce565b611f53919061349c565b604051632e1a7d4d60e01b815260e086013560048201529091507f00000000000000000000000000000000000000000000000000000000000000006001600160a01b031690632e1a7d4d906024015f604051808303815f87803b158015611fb8575f80fd5b505af1158015611fca573d5f803e3d5ffd5b50611ff19250611fe3915050604086016020870161340e565b61095e8360e0880135613483565b611ffb8682612df7565b505b505050600101611bd6565b5061201384866134bb565b3411156120295761202933856109998834613483565b505050505061125d60018055565b61203f612ea6565b6120536001600160a01b0384168383612f4e565b505050565b612060612d9e565b60405163894e9a0d60e01b8152600481018290525f907f00000000000000000000000000000000000000000000000000000000000000006001600160a01b03169063894e9a0d9060240161034060405180830381865afa1580156120c6573d5f803e3d5ffd5b505050506040513d601f19601f820116820180604052508101906120ea91906137e8565b90505f7f00000000000000000000000000000000000000000000000000000000000000006001600160a01b03166374e522188484604001516040518363ffffffff1660e01b81526004016121519291909182526001600160a01b0316602082015260400190565b602060405180830381865afa15801561216c573d5f803e3d5ffd5b505050506040513d601f19601f820116820180604052508101906121909190613458565b60405163c61a7e4d60e01b8152600481018590529091507f00000000000000000000000000000000000000000000000000000000000000006001600160a01b03169063c61a7e4d906024016113e5565b6121e8612d9e565b60405163894e9a0d60e01b8152600481018290525f907f00000000000000000000000000000000000000000000000000000000000000006001600160a01b03169063894e9a0d9060240161034060405180830381865afa15801561224e573d5f803e3d5ffd5b505050506040513d601f19601f8201168201806040525081019061227291906137e8565b6020810151604051630e9ca44360e31b81529192505f916001600160a01b037f000000000000000000000000000000000000000000000000000000000000000016916374e52218916122da9187916004019182526001600160a01b0316602082015260400190565b602060405180830381865afa1580156122f5573d5f803e3d5ffd5b505050506040513d601f19601f820116820180604052508101906123199190613458565b90505f7f00000000000000000000000000000000000000000000000000000000000000006001600160a01b03166374e522188585604001516040518363ffffffff1660e01b81526004016123809291909182526001600160a01b0316602082015260400190565b602060405180830381865afa15801561239b573d5f803e3d5ffd5b505050506040513d601f19601f820116820180604052508101906123bf9190613458565b604051633a54e50d60e21b8152600481018690529091507f00000000000000000000000000000000000000000000000000000000000000006001600160a01b03169063e9539434906024015f604051808303815f87803b158015612421575f80fd5b505af1158015612433573d5f803e3d5ffd5b505050507f00000000000000000000000000000000000000000000000000000000000000006001600160a01b0316632e1a7d4d828461247291906134bb565b6040518263ffffffff1660e01b815260040161249091815260200190565b5f604051808303815f87803b1580156124a7575f80fd5b505af11580156124b9573d5f803e3d5ffd5b505050505f8211156124d3576124d3836020015183612df7565b8015612646576040516328b9031160e21b81526001600160a01b037f0000000000000000000000000000000000000000000000000000000000000000811660048301525f917f00000000000000000000000000000000000000000000000000000000000000009091169063a2e40c4490602401602060405180830381865afa158015612561573d5f803e3d5ffd5b505050506040513d601f19601f820116820180604052508101906125859190613458565b90505f61271061259583856134ce565b61259f919061349c565b90505f7f00000000000000000000000000000000000000000000000000000000000000006001600160a01b031663469048406040518163ffffffff1660e01b8152600401602060405180830381865afa1580156125fe573d5f803e3d5ffd5b505050506040513d601f19601f82011682018060405250810190612622919061363d565b90506126388660400151838661095e9190613483565b6126428183612df7565b5050505b5050506109ae60018055565b61265a612d9e565b6040516328b9031160e21b81526001600160a01b037f0000000000000000000000000000000000000000000000000000000000000000811660048301525f917f00000000000000000000000000000000000000000000000000000000000000009091169063a2e40c4490602401602060405180830381865afa1580156126e2573d5f803e3d5ffd5b505050506040513d601f19601f820116820180604052508101906127069190613458565b90505f7f00000000000000000000000000000000000000000000000000000000000000006001600160a01b031663469048406040518163ffffffff1660e01b8152600401602060405180830381865afa158015612765573d5f803e3d5ffd5b505050506040513d601f19601f82011682018060405250810190612789919061363d565b90505f5b83811015611251575f7f00000000000000000000000000000000000000000000000000000000000000006001600160a01b031663894e9a0d8787858181106127d7576127d7613658565b905060200201356040518263ffffffff1660e01b81526004016127fc91815260200190565b61034060405180830381865afa158015612818573d5f803e3d5ffd5b505050506040513d601f19601f8201168201806040525081019061283c91906137e8565b90505f7f00000000000000000000000000000000000000000000000000000000000000006001600160a01b03166374e5221888888681811061288057612880613658565b9050602002013584604001516040518363ffffffff1660e01b81526004016128bb9291909182526001600160a01b0316602082015260400190565b602060405180830381865afa1580156128d6573d5f803e3d5ffd5b505050506040513d601f19601f820116820180604052508101906128fa9190613458565b90507f00000000000000000000000000000000000000000000000000000000000000006001600160a01b03166375d26e4488888681811061293d5761293d613658565b905060200201356040518263ffffffff1660e01b815260040161296291815260200190565b5f604051808303815f87803b158015612979575f80fd5b505af115801561298b573d5f803e3d5ffd5b505050505f811115612a46575f6127106129a587846134ce565b6129af919061349c565b604051632e1a7d4d60e01b8152600481018490529091507f00000000000000000000000000000000000000000000000000000000000000006001600160a01b031690632e1a7d4d906024015f604051808303815f87803b158015612a11575f80fd5b505af1158015612a23573d5f803e3d5ffd5b5050506040840151612a3a915061095e8385613483565b612a448582612df7565b505b505060010161278d565b612a58612d9e565b60405163894e9a0d60e01b8152600481018390525f907f00000000000000000000000000000000000000000000000000000000000000006001600160a01b03169063894e9a0d9060240161034060405180830381865afa158015612abe573d5f803e3d5ffd5b505050506040513d601f19601f82011682018060405250810190612ae291906137e8565b90505f8160c0015183612af59190613483565b90505f8260e0015182612b08919061349c565b9050818360e0015182612b1b91906134ce565b14612b385760405162461bcd60e51b815260040161019890613916565b5f83610100015182612b4a91906134ce565b90505f846101a0015115612c05575f7f00000000000000000000000000000000000000000000000000000000000000006001600160a01b031663855f1a8c6040518163ffffffff1660e01b8152600401602060405180830381865afa158015612bb5573d5f803e3d5ffd5b505050506040513d601f19601f82011682018060405250810190612bd99190613458565b905085610180015185612bec919061349c565b612bf79060016134bb565b612c0190826134ce565b9150505b7f00000000000000000000000000000000000000000000000000000000000000006001600160a01b031663d0e30db0836040518263ffffffff1660e01b81526004015f604051808303818588803b158015612c5e575f80fd5b505af1158015612c70573d5f803e3d5ffd5b505060405163daebec1160e01b8152600481018b9052602481018a90527f00000000000000000000000000000000000000000000000000000000000000006001600160a01b0316935063daebec1192508491506044015f604051808303818588803b158015612cdd575f80fd5b505af1158015612cef573d5f803e3d5ffd5b50505050508082612d0091906134bb565b3411156120295761202933826109998534613483565b612d1e612ea6565b61125d8282612df7565b612d30612ea6565b6001600160a01b038116612d955760405162461bcd60e51b815260206004820152602660248201527f4f776e61626c653a206e6577206f776e657220697320746865207a65726f206160448201526564647265737360d01b6064820152608401610198565b6109ae81612eff565b600260015403612df05760405162461bcd60e51b815260206004820152601f60248201527f5265656e7472616e637947756172643a207265656e7472616e742063616c6c006044820152606401610198565b6002600155565b604080515f808252602082019092526001600160a01b038416908390604051612e209190613958565b5f6040518083038185875af1925050503d805f8114612e5a576040519150601f19603f3d011682016040523d82523d5f602084013e612e5f565b606091505b50509050806120535760405162461bcd60e51b815260206004820152601360248201527211551217d514905394d1915497d19052531151606a1b6044820152606401610198565b5f546001600160a01b031633146116175760405162461bcd60e51b815260206004820181905260248201527f4f776e61626c653a2063616c6c6572206973206e6f7420746865206f776e65726044820152606401610198565b5f80546001600160a01b038381166001600160a01b0319831681178455604051919092169283917f8be0079c531659141344cd1fd0a4f28419497f9722a3daafe3b4186f6b6457e09190a35050565b604080516001600160a01b03848116602483015260448083018590528351808403909101815260649092018352602080830180516001600160e01b031663a9059cbb60e01b17905283518085019094528084527f5361666545524332303a206c6f772d6c6576656c2063616c6c206661696c656490840152612053928692915f91612fdd91851690849061305c565b905080515f1480612ffd575080806020019051810190612ffd919061396e565b6120535760405162461bcd60e51b815260206004820152602a60248201527f5361666545524332303a204552433230206f7065726174696f6e20646964206e6044820152691bdd081cdd58d8d9595960b21b6064820152608401610198565b606061306a84845f85613072565b949350505050565b6060824710156130d35760405162461bcd60e51b815260206004820152602660248201527f416464726573733a20696e73756666696369656e742062616c616e636520666f6044820152651c8818d85b1b60d21b6064820152608401610198565b5f80866001600160a01b031685876040516130ee9190613958565b5f6040518083038185875af1925050503d805f8114613128576040519150601f19603f3d011682016040523d82523d5f602084013e61312d565b606091505b509150915061313e87838387613149565b979650505050505050565b606083156131b75782515f036131b0576001600160a01b0385163b6131b05760405162461bcd60e51b815260206004820152601d60248201527f416464726573733a2063616c6c20746f206e6f6e2d636f6e74726163740000006044820152606401610198565b508161306a565b61306a83838151156131cc5781518083602001fd5b8060405162461bcd60e51b81526004016101989190613989565b5f6101c082840312156131f7575f80fd5b50919050565b5f8083601f84011261320d575f80fd5b50813567ffffffffffffffff811115613224575f80fd5b6020830191508360208260051b850101111561323e575f80fd5b9250929050565b5f805f8060408587031215613258575f80fd5b843567ffffffffffffffff8082111561326f575f80fd5b61327b888389016131fd565b90965094506020870135915080821115613293575f80fd5b506132a0878288016131fd565b95989497509550505050565b5f80602083850312156132bd575f80fd5b823567ffffffffffffffff8111156132d3575f80fd5b6132df858286016131fd565b90969095509350505050565b5f602082840312156132fb575f80fd5b5035919050565b5f8060208385031215613313575f80fd5b823567ffffffffffffffff8082111561332a575f80fd5b818501915085601f83011261333d575f80fd5b81358181111561334b575f80fd5b8660206101c083028501011115613360575f80fd5b60209290920196919550909350505050565b6001600160a01b03811681146109ae575f80fd5b5f805f60608486031215613398575f80fd5b83356133a381613372565b925060208401356133b381613372565b929592945050506040919091013590565b5f80604083850312156133d5575f80fd5b50508035926020909101359150565b5f80604083850312156133f5575f80fd5b823561340081613372565b946020939093013593505050565b5f6020828403121561341e575f80fd5b813561342981613372565b9392505050565b80151581146109ae575f80fd5b5f6020828403121561344d575f80fd5b813561342981613430565b5f60208284031215613468575f80fd5b5051919050565b634e487b7160e01b5f52601160045260245ffd5b818103818111156134965761349661346f565b92915050565b5f826134b657634e487b7160e01b5f52601260045260245ffd5b500490565b808201808211156134965761349661346f565b80820281158282048414176134965761349661346f565b600481106109ae575f80fd5b5f60208284031215613501575f80fd5b8135613429816134e5565b634e487b7160e01b5f52602160045260245ffd5b6004811061353c57634e487b7160e01b5f52602160045260245ffd5b9052565b81516001600160a01b031681526101c08101602083015161356c60208401826001600160a01b03169052565b5060408301516040830152606083015161359160608401826001600160a01b03169052565b506080830151608083015260a083015160a083015260c083015160c083015260e083015160e0830152610100808401518184015250610120808401518184015250610140808401516135e68285018215159052565b5050610160808401516135fb82850182613520565b50506101808084015161361082850182613520565b50506101a08084015161362582850182613520565b505092915050565b805161363881613372565b919050565b5f6020828403121561364d575f80fd5b815161342981613372565b634e487b7160e01b5f52603260045260245ffd5b6040516060810167ffffffffffffffff8111828210171561369b57634e487b7160e01b5f52604160045260245ffd5b60405290565b604051610260810167ffffffffffffffff8111828210171561369b57634e487b7160e01b5f52604160045260245ffd5b805161363881613430565b5f606082840312156136ec575f80fd5b6136f461366c565b90508151815260208201516020820152604082015161371281613430565b604082015292915050565b5f6060828403121561372d575f80fd5b61373561366c565b90508151613742816134e5565b81526020820151613752816134e5565b60208201526040820151613712816134e5565b5f60808284031215613775575f80fd5b6040516080810181811067ffffffffffffffff821117156137a457634e487b7160e01b5f52604160045260245ffd5b8060405250809150825181526020830151602082015260408301516137c881613372565b604082015260608301516137db81613430565b6060919091015292915050565b5f61034082840312156137f9575f80fd5b6138016136a1565b61380a8361362d565b81526138186020840161362d565b60208201526138296040840161362d565b6040820152606083015160608201526138446080840161362d565b608082015260a0838101519082015260c0808401519082015260e08084015190820152610100808401519082015261012080840151908201526101408084015190820152610160808401519082015261018080840151908201526101a06138ac8185016136d1565b908201526101c06138be8482016136d1565b908201526101e06138d08482016136d1565b908201526102006138e3858583016136dc565b908201526138f584610260850161371d565b610220820152613909846102c08501613765565b6102408201529392505050565b60208082526022908201527f73746f702074696d65206e6f74206d756c7469706c65206f6620696e74657276604082015261185b60f21b606082015260800190565b5f82518060208501845e5f920191825250919050565b5f6020828403121561397e575f80fd5b815161342981613430565b602081525f82518060208401528060208501604085015e5f604082850101526040601f19601f8301168401019150509291505056fea26469706673582212201912996e4b3a5d6d1a4b0f2560f0919d901cc8226d20ec474a46ab5ee43bb5fe64736f6c63430008190033","linkReferences":{}},"methodIdentifiers":{"bulkClaimFromFlowETH(uint256[])":"73b7d17c","bulkHaltFlowETH(uint256[])":"c1760009","bulkInitializeFlowETH((address,address,uint256,address,uint256,uint256,uint256,uint256,uint256,uint256,bool,uint8,uint8,uint8)[])":"74791ae7","bulkProlongFlowETH(uint256[],uint256[])":"2f72018d","bulkTerminateFlowETH(uint256[])":"3a5a1adb","claimFromFlowETH(uint256)":"ba6be036","emergencyEtherTransfer(address,uint256)":"eed88b8d","emergencyTokenTransfer(address,address,uint256)":"a3d5b255","getWETHAddress()":"affa8817","haltFlowETH(uint256)":"5596cf03","initializeFlowETH((address,address,uint256,address,uint256,uint256,uint256,uint256,uint256,uint256,bool,uint8,uint8,uint8))":"23afc8a5","owner()":"8da5cb5b","prolongFlowETH(uint256,uint256)":"e148a47f","renounceOwnership()":"715018a6","terminateFlowETH(uint256)":"bd5bbb5f","transferOwnership(address)":"f2fde38b"},"id":0}