{
  "address": "0x868B5c028910F3Dc22560bDCecc307bBBf0473Ba",
  "abi": [
    {
      "inputs": [
        {
          "internalType": "address",
          "name": "_weth",
          "type": "address"
        },
        {
          "internalType": "contract IStream",
          "name": "_stream",
          "type": "address"
        }
      ],
      "stateMutability": "nonpayable",
      "type": "constructor"
    },
    {
      "inputs": [],
      "name": "ArrayLengthMismatch",
      "type": "error"
    },
    {
      "inputs": [],
      "name": "FallbackNotAllowed",
      "type": "error"
    },
    {
      "inputs": [],
      "name": "InvalidStopTime",
      "type": "error"
    },
    {
      "inputs": [],
      "name": "InvalidTokenAddress",
      "type": "error"
    },
    {
      "inputs": [],
      "name": "TransferFailed",
      "type": "error"
    },
    {
      "inputs": [],
      "name": "UnauthorizedReceiver",
      "type": "error"
    },
    {
      "anonymous": false,
      "inputs": [
        {
          "indexed": true,
          "internalType": "address",
          "name": "previousOwner",
          "type": "address"
        },
        {
          "indexed": true,
          "internalType": "address",
          "name": "newOwner",
          "type": "address"
        }
      ],
      "name": "OwnershipTransferred",
      "type": "event"
    },
    {
      "stateMutability": "payable",
      "type": "fallback"
    },
    {
      "inputs": [
        {
          "internalType": "uint256[]",
          "name": "streamIds",
          "type": "uint256[]"
        }
      ],
      "name": "claimFromMultipleStreamsETH",
      "outputs": [],
      "stateMutability": "nonpayable",
      "type": "function"
    },
    {
      "inputs": [
        {
          "internalType": "uint256",
          "name": "streamId",
          "type": "uint256"
        }
      ],
      "name": "claimFromStreamETH",
      "outputs": [],
      "stateMutability": "nonpayable",
      "type": "function"
    },
    {
      "inputs": [
        {
          "components": [
            {
              "internalType": "address",
              "name": "sender",
              "type": "address"
            },
            {
              "internalType": "address",
              "name": "recipient",
              "type": "address"
            },
            {
              "internalType": "uint256",
              "name": "deposit",
              "type": "uint256"
            },
            {
              "internalType": "address",
              "name": "tokenAddress",
              "type": "address"
            },
            {
              "internalType": "uint256",
              "name": "startTime",
              "type": "uint256"
            },
            {
              "internalType": "uint256",
              "name": "stopTime",
              "type": "uint256"
            },
            {
              "internalType": "uint256",
              "name": "interval",
              "type": "uint256"
            },
            {
              "internalType": "uint256",
              "name": "cliffAmount",
              "type": "uint256"
            },
            {
              "internalType": "uint256",
              "name": "cliffTime",
              "type": "uint256"
            },
            {
              "internalType": "uint256",
              "name": "autoWithdrawInterval",
              "type": "uint256"
            },
            {
              "internalType": "bool",
              "name": "autoWithdraw",
              "type": "bool"
            },
            {
              "internalType": "enum StreamStructs.Permission",
              "name": "pauseable",
              "type": "uint8"
            },
            {
              "internalType": "enum StreamStructs.Permission",
              "name": "closeable",
              "type": "uint8"
            },
            {
              "internalType": "enum StreamStructs.Permission",
              "name": "recipientModifiable",
              "type": "uint8"
            }
          ],
          "internalType": "struct StreamStructs.initializeStreamData[]",
          "name": "params",
          "type": "tuple[]"
        }
      ],
      "name": "createMultipleStreamsETH",
      "outputs": [],
      "stateMutability": "payable",
      "type": "function"
    },
    {
      "inputs": [
        {
          "internalType": "address",
          "name": "to",
          "type": "address"
        },
        {
          "internalType": "uint256",
          "name": "amount",
          "type": "uint256"
        }
      ],
      "name": "emergencyEtherTransfer",
      "outputs": [],
      "stateMutability": "nonpayable",
      "type": "function"
    },
    {
      "inputs": [
        {
          "internalType": "address",
          "name": "token",
          "type": "address"
        },
        {
          "internalType": "address",
          "name": "to",
          "type": "address"
        },
        {
          "internalType": "uint256",
          "name": "amount",
          "type": "uint256"
        }
      ],
      "name": "emergencyTokenTransfer",
      "outputs": [],
      "stateMutability": "nonpayable",
      "type": "function"
    },
    {
      "inputs": [],
      "name": "getWETHAddress",
      "outputs": [
        {
          "internalType": "address",
          "name": "",
          "type": "address"
        }
      ],
      "stateMutability": "view",
      "type": "function"
    },
    {
      "inputs": [
        {
          "internalType": "uint256[]",
          "name": "streamIds",
          "type": "uint256[]"
        }
      ],
      "name": "haltMultipleStreamsETH",
      "outputs": [],
      "stateMutability": "nonpayable",
      "type": "function"
    },
    {
      "inputs": [
        {
          "internalType": "uint256",
          "name": "streamId",
          "type": "uint256"
        }
      ],
      "name": "haltStreamETH",
      "outputs": [],
      "stateMutability": "nonpayable",
      "type": "function"
    },
    {
      "inputs": [
        {
          "components": [
            {
              "internalType": "address",
              "name": "sender",
              "type": "address"
            },
            {
              "internalType": "address",
              "name": "recipient",
              "type": "address"
            },
            {
              "internalType": "uint256",
              "name": "deposit",
              "type": "uint256"
            },
            {
              "internalType": "address",
              "name": "tokenAddress",
              "type": "address"
            },
            {
              "internalType": "uint256",
              "name": "startTime",
              "type": "uint256"
            },
            {
              "internalType": "uint256",
              "name": "stopTime",
              "type": "uint256"
            },
            {
              "internalType": "uint256",
              "name": "interval",
              "type": "uint256"
            },
            {
              "internalType": "uint256",
              "name": "cliffAmount",
              "type": "uint256"
            },
            {
              "internalType": "uint256",
              "name": "cliffTime",
              "type": "uint256"
            },
            {
              "internalType": "uint256",
              "name": "autoWithdrawInterval",
              "type": "uint256"
            },
            {
              "internalType": "bool",
              "name": "autoWithdraw",
              "type": "bool"
            },
            {
              "internalType": "enum StreamStructs.Permission",
              "name": "pauseable",
              "type": "uint8"
            },
            {
              "internalType": "enum StreamStructs.Permission",
              "name": "closeable",
              "type": "uint8"
            },
            {
              "internalType": "enum StreamStructs.Permission",
              "name": "recipientModifiable",
              "type": "uint8"
            }
          ],
          "internalType": "struct StreamStructs.initializeStreamData",
          "name": "params",
          "type": "tuple"
        }
      ],
      "name": "initializeStreamETH",
      "outputs": [],
      "stateMutability": "payable",
      "type": "function"
    },
    {
      "inputs": [],
      "name": "owner",
      "outputs": [
        {
          "internalType": "address",
          "name": "",
          "type": "address"
        }
      ],
      "stateMutability": "view",
      "type": "function"
    },
    {
      "inputs": [
        {
          "internalType": "uint256[]",
          "name": "streamIds",
          "type": "uint256[]"
        },
        {
          "internalType": "uint256[]",
          "name": "newStopTimes",
          "type": "uint256[]"
        }
      ],
      "name": "prolongMultipleStreamsETH",
      "outputs": [],
      "stateMutability": "payable",
      "type": "function"
    },
    {
      "inputs": [
        {
          "internalType": "uint256",
          "name": "streamId",
          "type": "uint256"
        },
        {
          "internalType": "uint256",
          "name": "newStopTime",
          "type": "uint256"
        }
      ],
      "name": "prolongStreamETH",
      "outputs": [],
      "stateMutability": "payable",
      "type": "function"
    },
    {
      "inputs": [],
      "name": "renounceOwnership",
      "outputs": [],
      "stateMutability": "nonpayable",
      "type": "function"
    },
    {
      "inputs": [
        {
          "internalType": "uint256[]",
          "name": "streamIds",
          "type": "uint256[]"
        }
      ],
      "name": "terminateMultipleStreamsETH",
      "outputs": [],
      "stateMutability": "nonpayable",
      "type": "function"
    },
    {
      "inputs": [
        {
          "internalType": "uint256",
          "name": "streamId",
          "type": "uint256"
        }
      ],
      "name": "terminateStreamETH",
      "outputs": [],
      "stateMutability": "nonpayable",
      "type": "function"
    },
    {
      "inputs": [
        {
          "internalType": "address",
          "name": "newOwner",
          "type": "address"
        }
      ],
      "name": "transferOwnership",
      "outputs": [],
      "stateMutability": "nonpayable",
      "type": "function"
    },
    {
      "stateMutability": "payable",
      "type": "receive"
    }
  ],
  "transactionHash": "0x38663d33eabb6dd4602eb7b2e5542b28e13c6db312764eaede72044200a97c53",
  "args": [
    "0x7Ce5fCfFd1296d870b3578809B31D8CA8bF5aC3d",
    "0x702E327Fe043c4cB02f4e9D796A25b385e9559F5"
  ],
  "numDeployments": 5,
  "solcInputHash": "4ba73d9b78b122c8c7cd561d86631c6a",
  "bytecode": "0x60c06040523480156200001157600080fd5b50604051620035b4380380620035b4833981016040819052620000349162000139565b6200003f33620000d0565b600180556001600160a01b03828116608081905290821660a081905260405163095ea7b360e01b81526004810191909152600019602482015263095ea7b3906044016020604051808303816000875af1158015620000a1573d6000803e3d6000fd5b505050506040513d601f19601f82011682018060405250810190620000c7919062000178565b505050620001a3565b600080546001600160a01b038381166001600160a01b0319831681178455604051919092169283917f8be0079c531659141344cd1fd0a4f28419497f9722a3daafe3b4186f6b6457e09190a35050565b6001600160a01b03811681146200013657600080fd5b50565b600080604083850312156200014d57600080fd5b82516200015a8162000120565b60208401519092506200016d8162000120565b809150509250929050565b6000602082840312156200018b57600080fd5b815180151581146200019c57600080fd5b9392505050565b60805160a051613271620003436000396000818161013b015281816103cb0152818161043e01528181610558015281816105cb015281816106d5015281816107480152818161082d015281816108a00152818161094e01528181610a6301528181610bb501528181610caa01528181610d1d01528181610e4801528181610ebb015281816110d301528181611169015281816111f7015281816112b3015281816114200152818161149a015281816115560152818161169701528181611711015281816117cd0152818161187f0152818161196e01528181611bec01528181611c5f01528181611eae01528181611f7301528181611fe4015281816121bf0152818161233e015281816123cf01526125be015260008181610107015281816102d7015281816103a00152818161052d015281816106aa01528181610802015281816109d701528181610b3001528181610c7f01528181610e1d01528181611319015281816115f601528181611a8b01528181611bc101528181611d1a01528181611f450152818161213a01528181612293015261254a01526132716000f3fe6080604052600436106100f75760003560e01c806392f14f681161008a578063cb8ac71c11610059578063cb8ac71c1461031b578063e5ac38851461032e578063eed88b8d14610341578063f2fde38b146103615761017e565b806392f14f6814610288578063a3d5b255146102a8578063affa8817146102c8578063c872c725146102fb5761017e565b8063299b8202116100c6578063299b8202146102175780633e6f79f41461022a578063715018a61461023d5780638da5cb5b146102525761017e565b80630388ecdc146101975780631d875353146101b75780631e7451d2146101d757806328ec1fa6146101f75761017e565b3661017e57336001600160a01b037f0000000000000000000000000000000000000000000000000000000000000000161480159061015e5750336001600160a01b037f00000000000000000000000000000000000000000000000000000000000000001614155b1561017c576040516379f0ddd560e01b815260040160405180910390fd5b005b604051630deab4c360e41b815260040160405180910390fd5b3480156101a357600080fd5b5061017c6101b2366004612a72565b610381565b3480156101c357600080fd5b5061017c6101d2366004612a72565b61050e565b3480156101e357600080fd5b5061017c6101f2366004612ab4565b61068b565b34801561020357600080fd5b5061017c610212366004612ab4565b6107e3565b61017c610225366004612acd565b61092d565b61017c610238366004612aef565b610ae0565b34801561024957600080fd5b5061017c610c4c565b34801561025e57600080fd5b506000546001600160a01b03165b6040516001600160a01b03909116815260200160405180910390f35b34801561029457600080fd5b5061017c6102a3366004612a72565b610c60565b3480156102b457600080fd5b5061017c6102c3366004612b1d565b610ddd565b3480156102d457600080fd5b507f000000000000000000000000000000000000000000000000000000000000000061026c565b34801561030757600080fd5b5061017c610316366004612ab4565b610dfe565b61017c610329366004612b5e565b610f48565b61017c61033c366004612bd4565b610f7a565b34801561034d57600080fd5b5061017c61035c366004612c40565b610fd4565b34801561036d57600080fd5b5061017c61037c366004612c6c565b610fe6565b610389611061565b6040516328b9031160e21b81526001600160a01b037f0000000000000000000000000000000000000000000000000000000000000000811660048301526000917f00000000000000000000000000000000000000000000000000000000000000009091169063a2e40c4490602401602060405180830381865afa158015610414573d6000803e3d6000fd5b505050506040513d601f19601f820116820180604052508101906104389190612c89565b905060007f00000000000000000000000000000000000000000000000000000000000000006001600160a01b031663469048406040518163ffffffff1660e01b8152600401602060405180830381865afa15801561049a573d6000803e3d6000fd5b505050506040513d601f19601f820116820180604052508101906104be9190612cb2565b905060005b838110156104fe576104ee8585838181106104e0576104e0612ccf565b9050602002013584846110ba565b6104f781612cfb565b90506104c3565b50505061050a60018055565b5050565b610516611061565b6040516328b9031160e21b81526001600160a01b037f0000000000000000000000000000000000000000000000000000000000000000811660048301526000917f00000000000000000000000000000000000000000000000000000000000000009091169063a2e40c4490602401602060405180830381865afa1580156105a1573d6000803e3d6000fd5b505050506040513d601f19601f820116820180604052508101906105c59190612c89565b905060007f00000000000000000000000000000000000000000000000000000000000000006001600160a01b031663469048406040518163ffffffff1660e01b8152600401602060405180830381865afa158015610627573d6000803e3d6000fd5b505050506040513d601f19601f8201168201806040525081019061064b9190612cb2565b905060005b838110156104fe5761067b85858381811061066d5761066d612ccf565b905060200201358484611407565b61068481612cfb565b9050610650565b610693611061565b6040516328b9031160e21b81526001600160a01b037f0000000000000000000000000000000000000000000000000000000000000000811660048301526000917f00000000000000000000000000000000000000000000000000000000000000009091169063a2e40c4490602401602060405180830381865afa15801561071e573d6000803e3d6000fd5b505050506040513d601f19601f820116820180604052508101906107429190612c89565b905060007f00000000000000000000000000000000000000000000000000000000000000006001600160a01b031663469048406040518163ffffffff1660e01b8152600401602060405180830381865afa1580156107a4573d6000803e3d6000fd5b505050506040513d601f19601f820116820180604052508101906107c89190612cb2565b90506107d583838361167e565b50506107e060018055565b50565b6107eb611061565b6040516328b9031160e21b81526001600160a01b037f0000000000000000000000000000000000000000000000000000000000000000811660048301526000917f00000000000000000000000000000000000000000000000000000000000000009091169063a2e40c4490602401602060405180830381865afa158015610876573d6000803e3d6000fd5b505050506040513d601f19601f8201168201806040525081019061089a9190612c89565b905060007f00000000000000000000000000000000000000000000000000000000000000006001600160a01b031663469048406040518163ffffffff1660e01b8152600401602060405180830381865afa1580156108fc573d6000803e3d6000fd5b505050506040513d601f19601f820116820180604052508101906109209190612cb2565b90506107d5838383611407565b610935611061565b60405163894e9a0d60e01b8152600481018390526000907f00000000000000000000000000000000000000000000000000000000000000006001600160a01b03169063894e9a0d9060240161034060405180830381865afa15801561099e573d6000803e3d6000fd5b505050506040513d601f19601f820116820180604052508101906109c29190612eb7565b90506000806109d18385611804565b915091507f00000000000000000000000000000000000000000000000000000000000000006001600160a01b031663d0e30db0836040518263ffffffff1660e01b81526004016000604051808303818588803b158015610a3057600080fd5b505af1158015610a44573d6000803e3d6000fd5b50506040516350e5099f60e11b815260048101899052602481018890527f00000000000000000000000000000000000000000000000000000000000000006001600160a01b0316935063a1ca133e92508491506044016000604051808303818588803b158015610ab357600080fd5b505af1158015610ac7573d6000803e3d6000fd5b50505050506104fe8183610adb9190612fe7565b611934565b610ae8611061565b6000610afa6080830160608401612c6c565b6001600160a01b031614610b2157604051630f58058360e11b815260040160405180910390fd5b6000610b2c8261194a565b90507f00000000000000000000000000000000000000000000000000000000000000006001600160a01b031663d0e30db083604001356040518263ffffffff1660e01b81526004016000604051808303818588803b158015610b8d57600080fd5b505af1158015610ba1573d6000803e3d6000fd5b50505050506000610bb183611a2e565b90507f00000000000000000000000000000000000000000000000000000000000000006001600160a01b0316632b501d9783836040518363ffffffff1660e01b8152600401610c009190613038565b6000604051808303818588803b158015610c1957600080fd5b505af1158015610c2d573d6000803e3d6000fd5b5050505050610c3b83611b8c565b6107d5610adb836040860135612fe7565b610c54611dab565b610c5e6000611e05565b565b610c68611061565b6040516328b9031160e21b81526001600160a01b037f0000000000000000000000000000000000000000000000000000000000000000811660048301526000917f00000000000000000000000000000000000000000000000000000000000000009091169063a2e40c4490602401602060405180830381865afa158015610cf3573d6000803e3d6000fd5b505050506040513d601f19601f82011682018060405250810190610d179190612c89565b905060007f00000000000000000000000000000000000000000000000000000000000000006001600160a01b031663469048406040518163ffffffff1660e01b8152600401602060405180830381865afa158015610d79573d6000803e3d6000fd5b505050506040513d601f19601f82011682018060405250810190610d9d9190612cb2565b905060005b838110156104fe57610dcd858583818110610dbf57610dbf612ccf565b90506020020135848461167e565b610dd681612cfb565b9050610da2565b610de5611dab565b610df96001600160a01b0384168383611e55565b505050565b610e06611061565b6040516328b9031160e21b81526001600160a01b037f0000000000000000000000000000000000000000000000000000000000000000811660048301526000917f00000000000000000000000000000000000000000000000000000000000000009091169063a2e40c4490602401602060405180830381865afa158015610e91573d6000803e3d6000fd5b505050506040513d601f19601f82011682018060405250810190610eb59190612c89565b905060007f00000000000000000000000000000000000000000000000000000000000000006001600160a01b031663469048406040518163ffffffff1660e01b8152600401602060405180830381865afa158015610f17573d6000803e3d6000fd5b505050506040513d601f19601f82011682018060405250810190610f3b9190612cb2565b90506107d58383836110ba565b610f50611061565b600080610f5d8484611ea7565b9092509050610f6f610adb8284612fe7565b505061050a60018055565b610f82611061565b828114610fa25760405163512509d360e11b815260040160405180910390fd5b600080610fb186868686612337565b9092509050610fc3610adb8284612fe7565b5050610fce60018055565b50505050565b610fdc611dab565b61050a8282612697565b610fee611dab565b6001600160a01b0381166110585760405162461bcd60e51b815260206004820152602660248201527f4f776e61626c653a206e6577206f776e657220697320746865207a65726f206160448201526564647265737360d01b60648201526084015b60405180910390fd5b6107e081611e05565b6002600154036110b35760405162461bcd60e51b815260206004820152601f60248201527f5265656e7472616e637947756172643a207265656e7472616e742063616c6c00604482015260640161104f565b6002600155565b60405163894e9a0d60e01b8152600481018490526000907f00000000000000000000000000000000000000000000000000000000000000006001600160a01b03169063894e9a0d9060240161034060405180830381865afa158015611123573d6000803e3d6000fd5b505050506040513d601f19601f820116820180604052508101906111479190612eb7565b6020810151604051631b2b776160e11b81529192506000916001600160a01b037f00000000000000000000000000000000000000000000000000000000000000001691633656eec2916111b09189916004019182526001600160a01b0316602082015260400190565b602060405180830381865afa1580156111cd573d6000803e3d6000fd5b505050506040513d601f19601f820116820180604052508101906111f19190612c89565b905060007f00000000000000000000000000000000000000000000000000000000000000006001600160a01b0316633656eec28785604001516040518363ffffffff1660e01b81526004016112599291909182526001600160a01b0316602082015260400190565b602060405180830381865afa158015611276573d6000803e3d6000fd5b505050506040513d601f19601f8201168201806040525081019061129a9190612c89565b604051631d1b7b7760e01b8152600481018890529091507f00000000000000000000000000000000000000000000000000000000000000006001600160a01b031690631d1b7b7790602401600060405180830381600087803b1580156112ff57600080fd5b505af1158015611313573d6000803e3d6000fd5b505050507f00000000000000000000000000000000000000000000000000000000000000006001600160a01b0316632e1a7d4d82846113529190612fe7565b6040518263ffffffff1660e01b815260040161137091815260200190565b600060405180830381600087803b15801561138a57600080fd5b505af115801561139e573d6000803e3d6000fd5b5050505060008211156113b9576113b9836020015183612697565b80156113ff5760006127106113ce8784613125565b6113d8919061313c565b90506113f3846040015182846113ee919061315e565b612697565b6113fd8582612697565b505b505050505050565b60405163894e9a0d60e01b8152600481018490526000907f00000000000000000000000000000000000000000000000000000000000000006001600160a01b03169063894e9a0d9060240161034060405180830381865afa158015611470573d6000803e3d6000fd5b505050506040513d601f19601f820116820180604052508101906114949190612eb7565b905060007f00000000000000000000000000000000000000000000000000000000000000006001600160a01b0316633656eec28684604001516040518363ffffffff1660e01b81526004016114fc9291909182526001600160a01b0316602082015260400190565b602060405180830381865afa158015611519573d6000803e3d6000fd5b505050506040513d601f19601f8201168201806040525081019061153d9190612c89565b60405163074b2fe960e31b8152600481018790529091507f00000000000000000000000000000000000000000000000000000000000000006001600160a01b031690633a597f48906024015b600060405180830381600087803b1580156115a357600080fd5b505af11580156115b7573d6000803e3d6000fd5b5050505060008111156116775760006127106115d38684613125565b6115dd919061313c565b604051632e1a7d4d60e01b8152600481018490529091507f00000000000000000000000000000000000000000000000000000000000000006001600160a01b031690632e1a7d4d90602401600060405180830381600087803b15801561164257600080fd5b505af1158015611656573d6000803e3d6000fd5b505050604084015161166d91506113ee838561315e565b6113ff8482612697565b5050505050565b60405163894e9a0d60e01b8152600481018490526000907f00000000000000000000000000000000000000000000000000000000000000006001600160a01b03169063894e9a0d9060240161034060405180830381865afa1580156116e7573d6000803e3d6000fd5b505050506040513d601f19601f8201168201806040525081019061170b9190612eb7565b905060007f00000000000000000000000000000000000000000000000000000000000000006001600160a01b0316633656eec28684604001516040518363ffffffff1660e01b81526004016117739291909182526001600160a01b0316602082015260400190565b602060405180830381865afa158015611790573d6000803e3d6000fd5b505050506040513d601f19601f820116820180604052508101906117b49190612c89565b60405163746ff13d60e01b8152600481018790529091507f00000000000000000000000000000000000000000000000000000000000000006001600160a01b03169063746ff13d90602401611589565b60008060008460c0015184611819919061315e565b905060008560e001518261182d919061313c565b9050818660e00151826118409190613125565b1461185e57604051635f5ab34960e01b815260040160405180910390fd5b61010086015161186e9082613125565b9350856101a001511561192b5760007f00000000000000000000000000000000000000000000000000000000000000006001600160a01b031663855f1a8c6040518163ffffffff1660e01b8152600401602060405180830381865afa1580156118db573d6000803e3d6000fd5b505050506040513d601f19601f820116820180604052508101906118ff9190612c89565b905086610180015183611912919061313c565b61191d906001612fe7565b6119279082613125565b9350505b50509250929050565b803411156107e0576107e0336113ee833461315e565b600061195e61016083016101408401613171565b61196a57506000919050565b60007f00000000000000000000000000000000000000000000000000000000000000006001600160a01b031663855f1a8c6040518163ffffffff1660e01b8152600401602060405180830381865afa1580156119ca573d6000803e3d6000fd5b505050506040513d601f19601f820116820180604052508101906119ee9190612c89565b9050610120830135611a08608085013560a086013561315e565b611a12919061313c565b611a1d906001612fe7565b611a279082613125565b9392505050565b611a3661298a565b604080516101c0810190915280611a506020850185612c6c565b6001600160a01b03168152602001836020016020810190611a719190612c6c565b6001600160a01b03168152602001836040013581526020017f00000000000000000000000000000000000000000000000000000000000000006001600160a01b03168152602001836080013581526020018360a0013581526020018360c0013581526020018360e0013581526020018361010001358152602001836101200135815260200183610140016020810190611b0a9190613171565b15158152602001611b236101808501610160860161318e565b6003811115611b3457611b34613000565b8152602001611b4b6101a08501610180860161318e565b6003811115611b5c57611b5c613000565b8152602001611b736101c085016101a0860161318e565b6003811115611b8457611b84613000565b905292915050565b4281610100013511158015611ba5575060008160e00135115b156107e0576040516328b9031160e21b81526001600160a01b037f0000000000000000000000000000000000000000000000000000000000000000811660048301526000917f00000000000000000000000000000000000000000000000000000000000000009091169063a2e40c4490602401602060405180830381865afa158015611c35573d6000803e3d6000fd5b505050506040513d601f19601f82011682018060405250810190611c599190612c89565b905060007f00000000000000000000000000000000000000000000000000000000000000006001600160a01b031663469048406040518163ffffffff1660e01b8152600401602060405180830381865afa158015611cbb573d6000803e3d6000fd5b505050506040513d601f19601f82011682018060405250810190611cdf9190612cb2565b90506000612710611cf48460e0870135613125565b611cfe919061313c565b604051632e1a7d4d60e01b815260e086013560048201529091507f00000000000000000000000000000000000000000000000000000000000000006001600160a01b031690632e1a7d4d90602401600060405180830381600087803b158015611d6657600080fd5b505af1158015611d7a573d6000803e3d6000fd5b50611da19250611d939150506040860160208701612c6c565b6113ee8360e088013561315e565b610fce8282612697565b6000546001600160a01b03163314610c5e5760405162461bcd60e51b815260206004820181905260248201527f4f776e61626c653a2063616c6c6572206973206e6f7420746865206f776e6572604482015260640161104f565b600080546001600160a01b038381166001600160a01b0319831681178455604051919092169283917f8be0079c531659141344cd1fd0a4f28419497f9722a3daafe3b4186f6b6457e09190a35050565b604080516001600160a01b038416602482015260448082018490528251808303909101815260649091019091526020810180516001600160e01b031663a9059cbb60e01b179052610df9908490612725565b60008060007f00000000000000000000000000000000000000000000000000000000000000006001600160a01b031663855f1a8c6040518163ffffffff1660e01b8152600401602060405180830381865afa158015611f0a573d6000803e3d6000fd5b505050506040513d601f19601f82011682018060405250810190611f2e9190612c89565b6040516328b9031160e21b81526001600160a01b037f0000000000000000000000000000000000000000000000000000000000000000811660048301529192506000917f0000000000000000000000000000000000000000000000000000000000000000169063a2e40c4490602401602060405180830381865afa158015611fba573d6000803e3d6000fd5b505050506040513d601f19601f82011682018060405250810190611fde9190612c89565b905060007f00000000000000000000000000000000000000000000000000000000000000006001600160a01b031663469048406040518163ffffffff1660e01b8152600401602060405180830381865afa158015612040573d6000803e3d6000fd5b505050506040513d601f19601f820116820180604052508101906120649190612cb2565b905060005b8681101561232c573688888381811061208457612084612ccf565b6101c002919091019150600090506120a26080830160608401612c6c565b6001600160a01b0316146120c957604051630f58058360e11b815260040160405180910390fd5b60006120dd61016083016101408401613171565b15612128576101208201356120fa608084013560a085013561315e565b612104919061313c565b61210f906001612fe7565b6121199087613125565b90506121258188612fe7565b96505b612136604083013589612fe7565b97507f00000000000000000000000000000000000000000000000000000000000000006001600160a01b031663d0e30db083604001356040518263ffffffff1660e01b81526004016000604051808303818588803b15801561219757600080fd5b505af11580156121ab573d6000803e3d6000fd5b505050505060006121bb83611a2e565b90507f00000000000000000000000000000000000000000000000000000000000000006001600160a01b0316632b501d9783836040518363ffffffff1660e01b815260040161220a9190613038565b6000604051808303818588803b15801561222357600080fd5b505af1158015612237573d6000803e3d6000fd5b50505050504283610100013511158015612255575060008360e00135115b1561231857600061271061226d8860e0870135613125565b612277919061313c565b604051632e1a7d4d60e01b815260e086013560048201529091507f00000000000000000000000000000000000000000000000000000000000000006001600160a01b031690632e1a7d4d90602401600060405180830381600087803b1580156122df57600080fd5b505af11580156122f3573d6000803e3d6000fd5b5061230c9250611d939150506040860160208701612c6c565b6123168682612697565b505b5050508061232590612cfb565b9050612069565b505050509250929050565b60008060007f00000000000000000000000000000000000000000000000000000000000000006001600160a01b031663855f1a8c6040518163ffffffff1660e01b8152600401602060405180830381865afa15801561239a573d6000803e3d6000fd5b505050506040513d601f19601f820116820180604052508101906123be9190612c89565b905060005b8681101561268c5760007f00000000000000000000000000000000000000000000000000000000000000006001600160a01b031663894e9a0d8a8a8581811061240e5761240e612ccf565b905060200201356040518263ffffffff1660e01b815260040161243391815260200190565b61034060405180830381865afa158015612451573d6000803e3d6000fd5b505050506040513d601f19601f820116820180604052508101906124759190612eb7565b905060008160c0015188888581811061249057612490612ccf565b905060200201356124a1919061315e565b905060008260e00151826124b5919061313c565b9050818360e00151826124c89190613125565b146124e657604051635f5ab34960e01b815260040160405180910390fd5b6000836101000151826124f99190613125565b90506125058189612fe7565b97506000846101a001511561254857610180850151612524908561313c565b61252f906001612fe7565b6125399088613125565b90506125458189612fe7565b97505b7f00000000000000000000000000000000000000000000000000000000000000006001600160a01b031663d0e30db0836040518263ffffffff1660e01b81526004016000604051808303818588803b1580156125a357600080fd5b505af11580156125b7573d6000803e3d6000fd5b50505050507f00000000000000000000000000000000000000000000000000000000000000006001600160a01b031663a1ca133e828f8f8a8181106125fe576125fe612ccf565b905060200201358e8e8b81811061261757612617612ccf565b905060200201356040518463ffffffff1660e01b8152600401612644929190918252602082015260400190565b6000604051808303818588803b15801561265d57600080fd5b505af1158015612671573d6000803e3d6000fd5b505050505050505050508061268590612cfb565b90506123c3565b505094509492505050565b604080516000808252602082019092526001600160a01b0384169083906040516126c191906131cf565b60006040518083038185875af1925050503d80600081146126fe576040519150601f19603f3d011682016040523d82523d6000602084013e612703565b606091505b5050905080610df9576040516312171d8360e31b815260040160405180910390fd5b600061277a826040518060400160405280602081526020017f5361666545524332303a206c6f772d6c6576656c2063616c6c206661696c6564815250856001600160a01b03166127fa9092919063ffffffff16565b905080516000148061279b57508080602001905181019061279b91906131eb565b610df95760405162461bcd60e51b815260206004820152602a60248201527f5361666545524332303a204552433230206f7065726174696f6e20646964206e6044820152691bdd081cdd58d8d9595960b21b606482015260840161104f565b60606128098484600085612811565b949350505050565b6060824710156128725760405162461bcd60e51b815260206004820152602660248201527f416464726573733a20696e73756666696369656e742062616c616e636520666f6044820152651c8818d85b1b60d21b606482015260840161104f565b600080866001600160a01b0316858760405161288e91906131cf565b60006040518083038185875af1925050503d80600081146128cb576040519150601f19603f3d011682016040523d82523d6000602084013e6128d0565b606091505b50915091506128e1878383876128ec565b979650505050505050565b6060831561295b578251600003612954576001600160a01b0385163b6129545760405162461bcd60e51b815260206004820152601d60248201527f416464726573733a2063616c6c20746f206e6f6e2d636f6e7472616374000000604482015260640161104f565b5081612809565b61280983838151156129705781518083602001fd5b8060405162461bcd60e51b815260040161104f9190613208565b604051806101c0016040528060006001600160a01b0316815260200160006001600160a01b031681526020016000815260200160006001600160a01b0316815260200160008152602001600081526020016000815260200160008152602001600081526020016000815260200160001515815260200160006003811115612a1357612a13613000565b8152602001600081526020016000905290565b60008083601f840112612a3857600080fd5b50813567ffffffffffffffff811115612a5057600080fd5b6020830191508360208260051b8501011115612a6b57600080fd5b9250929050565b60008060208385031215612a8557600080fd5b823567ffffffffffffffff811115612a9c57600080fd5b612aa885828601612a26565b90969095509350505050565b600060208284031215612ac657600080fd5b5035919050565b60008060408385031215612ae057600080fd5b50508035926020909101359150565b60006101c08284031215612b0257600080fd5b50919050565b6001600160a01b03811681146107e057600080fd5b600080600060608486031215612b3257600080fd5b8335612b3d81612b08565b92506020840135612b4d81612b08565b929592945050506040919091013590565b60008060208385031215612b7157600080fd5b823567ffffffffffffffff80821115612b8957600080fd5b818501915085601f830112612b9d57600080fd5b813581811115612bac57600080fd5b8660206101c083028501011115612bc257600080fd5b60209290920196919550909350505050565b60008060008060408587031215612bea57600080fd5b843567ffffffffffffffff80821115612c0257600080fd5b612c0e88838901612a26565b90965094506020870135915080821115612c2757600080fd5b50612c3487828801612a26565b95989497509550505050565b60008060408385031215612c5357600080fd5b8235612c5e81612b08565b946020939093013593505050565b600060208284031215612c7e57600080fd5b8135611a2781612b08565b600060208284031215612c9b57600080fd5b5051919050565b8051612cad81612b08565b919050565b600060208284031215612cc457600080fd5b8151611a2781612b08565b634e487b7160e01b600052603260045260246000fd5b634e487b7160e01b600052601160045260246000fd5b600060018201612d0d57612d0d612ce5565b5060010190565b6040516060810167ffffffffffffffff81118282101715612d4557634e487b7160e01b600052604160045260246000fd5b60405290565b604051610260810167ffffffffffffffff81118282101715612d4557634e487b7160e01b600052604160045260246000fd5b80151581146107e057600080fd5b8051612cad81612d7d565b600060608284031215612da857600080fd5b612db0612d14565b905081518152602082015160208201526040820151612dce81612d7d565b604082015292915050565b600481106107e057600080fd5b600060608284031215612df857600080fd5b612e00612d14565b90508151612e0d81612dd9565b81526020820151612e1d81612dd9565b60208201526040820151612dce81612dd9565b600060808284031215612e4257600080fd5b6040516080810181811067ffffffffffffffff82111715612e7357634e487b7160e01b600052604160045260246000fd5b806040525080915082518152602083015160208201526040830151612e9781612b08565b60408201526060830151612eaa81612d7d565b6060919091015292915050565b60006103408284031215612eca57600080fd5b612ed2612d4b565b612edb83612ca2565b8152612ee960208401612ca2565b6020820152612efa60408401612ca2565b604082015260608301516060820152612f1560808401612ca2565b608082015260a0838101519082015260c0808401519082015260e08084015190820152610100808401519082015261012080840151908201526101408084015190820152610160808401519082015261018080840151908201526101a0612f7d818501612d8b565b908201526101c0612f8f848201612d8b565b908201526101e0612fa1848201612d8b565b90820152610200612fb485858301612d96565b90820152612fc6846102608501612de6565b610220820152612fda846102c08501612e30565b6102408201529392505050565b80820180821115612ffa57612ffa612ce5565b92915050565b634e487b7160e01b600052602160045260246000fd5b6004811061303457634e487b7160e01b600052602160045260246000fd5b9052565b81516001600160a01b031681526101c08101602083015161306460208401826001600160a01b03169052565b5060408301516040830152606083015161308960608401826001600160a01b03169052565b506080830151608083015260a083015160a083015260c083015160c083015260e083015160e0830152610100808401518184015250610120808401518184015250610140808401516130de8285018215159052565b5050610160808401516130f382850182613016565b50506101808084015161310882850182613016565b50506101a08084015161311d82850182613016565b505092915050565b8082028115828204841417612ffa57612ffa612ce5565b60008261315957634e487b7160e01b600052601260045260246000fd5b500490565b81810381811115612ffa57612ffa612ce5565b60006020828403121561318357600080fd5b8135611a2781612d7d565b6000602082840312156131a057600080fd5b8135611a2781612dd9565b60005b838110156131c65781810151838201526020016131ae565b50506000910152565b600082516131e18184602087016131ab565b9190910192915050565b6000602082840312156131fd57600080fd5b8151611a2781612d7d565b60208152600082518060208401526132278160408501602087016131ab565b601f01601f1916919091016040019291505056fea2646970667358221220644e932a1966be5ea603edf3a7fc1d1cd928c8c3328e8d2a9f2317fc206e3a1864736f6c63430008130033",
  "devdoc": {
    "kind": "dev",
    "methods": {
      "owner()": {
        "details": "Returns the address of the current owner."
      },
      "renounceOwnership()": {
        "details": "Leaves the contract without owner. It will not be possible to call `onlyOwner` functions. Can only be called by the current owner. NOTE: Renouncing ownership will leave the contract without an owner, thereby disabling any functionality that is only available to the owner."
      },
      "transferOwnership(address)": {
        "details": "Transfers ownership of the contract to a new account (`newOwner`). Can only be called by the current owner."
      }
    },
    "version": 1
  },
  "userdoc": {
    "kind": "user",
    "methods": {},
    "version": 1
  },
  "storageLayout": {
    "storage": [
      {
        "astId": 7,
        "contract": "contracts/ETHStreamInterface.sol:ETHStreamInterface",
        "label": "_owner",
        "offset": 0,
        "slot": "0",
        "type": "t_address"
      },
      {
        "astId": 148,
        "contract": "contracts/ETHStreamInterface.sol:ETHStreamInterface",
        "label": "_status",
        "offset": 0,
        "slot": "1",
        "type": "t_uint256"
      }
    ],
    "types": {
      "t_address": {
        "encoding": "inplace",
        "label": "address",
        "numberOfBytes": "20"
      },
      "t_uint256": {
        "encoding": "inplace",
        "label": "uint256",
        "numberOfBytes": "32"
      }
    }
  }
}