{
  "address": "0x7E27A65D25E71c69BB9c321eb2A716F861b21ad5",
  "abi": [
    {
      "inputs": [
        {
          "internalType": "address",
          "name": "weth",
          "type": "address"
        },
        {
          "internalType": "contract IStream",
          "name": "stream",
          "type": "address"
        }
      ],
      "stateMutability": "nonpayable",
      "type": "constructor"
    },
    {
      "anonymous": false,
      "inputs": [
        {
          "indexed": true,
          "internalType": "address",
          "name": "previousOwner",
          "type": "address"
        },
        {
          "indexed": true,
          "internalType": "address",
          "name": "newOwner",
          "type": "address"
        }
      ],
      "name": "OwnershipTransferred",
      "type": "event"
    },
    {
      "stateMutability": "payable",
      "type": "fallback"
    },
    {
      "inputs": [
        {
          "internalType": "uint256[]",
          "name": "streamIds",
          "type": "uint256[]"
        }
      ],
      "name": "bulkClaimFromFlowETH",
      "outputs": [],
      "stateMutability": "nonpayable",
      "type": "function"
    },
    {
      "inputs": [
        {
          "internalType": "uint256[]",
          "name": "streamIds",
          "type": "uint256[]"
        }
      ],
      "name": "bulkHaltFlowETH",
      "outputs": [],
      "stateMutability": "nonpayable",
      "type": "function"
    },
    {
      "inputs": [
        {
          "components": [
            {
              "internalType": "address",
              "name": "sender",
              "type": "address"
            },
            {
              "internalType": "address",
              "name": "recipient",
              "type": "address"
            },
            {
              "internalType": "uint256",
              "name": "deposit",
              "type": "uint256"
            },
            {
              "internalType": "address",
              "name": "tokenAddress",
              "type": "address"
            },
            {
              "internalType": "uint256",
              "name": "startTime",
              "type": "uint256"
            },
            {
              "internalType": "uint256",
              "name": "stopTime",
              "type": "uint256"
            },
            {
              "internalType": "uint256",
              "name": "interval",
              "type": "uint256"
            },
            {
              "internalType": "uint256",
              "name": "cliffAmount",
              "type": "uint256"
            },
            {
              "internalType": "uint256",
              "name": "cliffTime",
              "type": "uint256"
            },
            {
              "internalType": "uint256",
              "name": "autoWithdrawInterval",
              "type": "uint256"
            },
            {
              "internalType": "bool",
              "name": "autoWithdraw",
              "type": "bool"
            },
            {
              "internalType": "enum Struct.Capability",
              "name": "pauseable",
              "type": "uint8"
            },
            {
              "internalType": "enum Struct.Capability",
              "name": "closeable",
              "type": "uint8"
            },
            {
              "internalType": "enum Struct.Capability",
              "name": "recipientModifiable",
              "type": "uint8"
            }
          ],
          "internalType": "struct Struct.initializeStreamParams[]",
          "name": "inputParams",
          "type": "tuple[]"
        }
      ],
      "name": "bulkInitializeFlowETH",
      "outputs": [],
      "stateMutability": "payable",
      "type": "function"
    },
    {
      "inputs": [
        {
          "internalType": "uint256[]",
          "name": "streamIds",
          "type": "uint256[]"
        },
        {
          "internalType": "uint256[]",
          "name": "newStopTimes",
          "type": "uint256[]"
        }
      ],
      "name": "bulkProlongFlowETH",
      "outputs": [],
      "stateMutability": "payable",
      "type": "function"
    },
    {
      "inputs": [
        {
          "internalType": "uint256[]",
          "name": "streamIds",
          "type": "uint256[]"
        }
      ],
      "name": "bulkTerminateFlowETH",
      "outputs": [],
      "stateMutability": "nonpayable",
      "type": "function"
    },
    {
      "inputs": [
        {
          "internalType": "uint256",
          "name": "streamId",
          "type": "uint256"
        }
      ],
      "name": "claimFromFlowETH",
      "outputs": [],
      "stateMutability": "nonpayable",
      "type": "function"
    },
    {
      "inputs": [
        {
          "internalType": "address",
          "name": "to",
          "type": "address"
        },
        {
          "internalType": "uint256",
          "name": "amount",
          "type": "uint256"
        }
      ],
      "name": "emergencyEtherTransfer",
      "outputs": [],
      "stateMutability": "nonpayable",
      "type": "function"
    },
    {
      "inputs": [
        {
          "internalType": "address",
          "name": "token",
          "type": "address"
        },
        {
          "internalType": "address",
          "name": "to",
          "type": "address"
        },
        {
          "internalType": "uint256",
          "name": "amount",
          "type": "uint256"
        }
      ],
      "name": "emergencyTokenTransfer",
      "outputs": [],
      "stateMutability": "nonpayable",
      "type": "function"
    },
    {
      "inputs": [],
      "name": "getAutoWithdrawFee",
      "outputs": [
        {
          "internalType": "uint256",
          "name": "",
          "type": "uint256"
        }
      ],
      "stateMutability": "pure",
      "type": "function"
    },
    {
      "inputs": [],
      "name": "getWETHAddress",
      "outputs": [
        {
          "internalType": "address",
          "name": "",
          "type": "address"
        }
      ],
      "stateMutability": "view",
      "type": "function"
    },
    {
      "inputs": [
        {
          "internalType": "uint256",
          "name": "streamId",
          "type": "uint256"
        }
      ],
      "name": "haltFlowETH",
      "outputs": [],
      "stateMutability": "nonpayable",
      "type": "function"
    },
    {
      "inputs": [
        {
          "components": [
            {
              "internalType": "address",
              "name": "sender",
              "type": "address"
            },
            {
              "internalType": "address",
              "name": "recipient",
              "type": "address"
            },
            {
              "internalType": "uint256",
              "name": "deposit",
              "type": "uint256"
            },
            {
              "internalType": "address",
              "name": "tokenAddress",
              "type": "address"
            },
            {
              "internalType": "uint256",
              "name": "startTime",
              "type": "uint256"
            },
            {
              "internalType": "uint256",
              "name": "stopTime",
              "type": "uint256"
            },
            {
              "internalType": "uint256",
              "name": "interval",
              "type": "uint256"
            },
            {
              "internalType": "uint256",
              "name": "cliffAmount",
              "type": "uint256"
            },
            {
              "internalType": "uint256",
              "name": "cliffTime",
              "type": "uint256"
            },
            {
              "internalType": "uint256",
              "name": "autoWithdrawInterval",
              "type": "uint256"
            },
            {
              "internalType": "bool",
              "name": "autoWithdraw",
              "type": "bool"
            },
            {
              "internalType": "enum Struct.Capability",
              "name": "pauseable",
              "type": "uint8"
            },
            {
              "internalType": "enum Struct.Capability",
              "name": "closeable",
              "type": "uint8"
            },
            {
              "internalType": "enum Struct.Capability",
              "name": "recipientModifiable",
              "type": "uint8"
            }
          ],
          "internalType": "struct Struct.initializeStreamParams",
          "name": "inputParams",
          "type": "tuple"
        }
      ],
      "name": "initializeFlowETH",
      "outputs": [],
      "stateMutability": "payable",
      "type": "function"
    },
    {
      "inputs": [],
      "name": "owner",
      "outputs": [
        {
          "internalType": "address",
          "name": "",
          "type": "address"
        }
      ],
      "stateMutability": "view",
      "type": "function"
    },
    {
      "inputs": [
        {
          "internalType": "uint256",
          "name": "streamId",
          "type": "uint256"
        },
        {
          "internalType": "uint256",
          "name": "newStopTime",
          "type": "uint256"
        }
      ],
      "name": "prolongFlowETH",
      "outputs": [],
      "stateMutability": "payable",
      "type": "function"
    },
    {
      "inputs": [],
      "name": "renounceOwnership",
      "outputs": [],
      "stateMutability": "nonpayable",
      "type": "function"
    },
    {
      "inputs": [
        {
          "internalType": "uint256",
          "name": "streamId",
          "type": "uint256"
        }
      ],
      "name": "terminateFlowETH",
      "outputs": [],
      "stateMutability": "nonpayable",
      "type": "function"
    },
    {
      "inputs": [
        {
          "internalType": "address",
          "name": "newOwner",
          "type": "address"
        }
      ],
      "name": "transferOwnership",
      "outputs": [],
      "stateMutability": "nonpayable",
      "type": "function"
    },
    {
      "stateMutability": "payable",
      "type": "receive"
    }
  ],
  "transactionHash": "0xee390933b495f79464c533ff803cf5e49dccf0ab1be055fe3d91d1ddaf66dedf",
  "args": [
    "0x1401b4FF86A31737a75513039435131578704a25",
    "0xeE245CF7b6995f0b05197477BC63b34FD0ED7727"
  ],
  "numDeployments": 6,
  "solcInputHash": "7a46c203abf4242607563c5060a6becf",
  "bytecode": "0x60c06040523480156200001157600080fd5b5060405162003d6238038062003d62833981016040819052620000349162000139565b6200003f33620000d0565b600180556001600160a01b03828116608081905290821660a081905260405163095ea7b360e01b81526004810191909152600019602482015263095ea7b3906044016020604051808303816000875af1158015620000a1573d6000803e3d6000fd5b505050506040513d601f19601f82011682018060405250810190620000c7919062000178565b505050620001a3565b600080546001600160a01b038381166001600160a01b0319831681178455604051919092169283917f8be0079c531659141344cd1fd0a4f28419497f9722a3daafe3b4186f6b6457e09190a35050565b6001600160a01b03811681146200013657600080fd5b50565b600080604083850312156200014d57600080fd5b82516200015a8162000120565b60208401519092506200016d8162000120565b809150509250929050565b6000602082840312156200018b57600080fd5b815180151581146200019c57600080fd5b9392505050565b60805160a0516139ee6200037460003960008181610144015281816106b801528181610781015281816107f4015281816109eb01528181610be001528181610d2c01528181610d9f01528181610e3001528181610edc01528181610f9d0152818161105c0152818161121c0152818161129601528181611352015281816114020152818161149001528181611616015281816116890152818161171a015281816117c60152818161188501528181611a3c01528181611aaf01528181611e2201528181611ffb0152818161207501528181612131015281816121890152818161221f015281816122ad01528181612369015281816124b7015281816125450152818161263f015281816126b201528181612743015281816127ef015281816128ae01528181612a380152612be301526000818161011201528181610302015281816104d1015281816105a301528181610756015281816108af01528181610b6c01528181610d01015281816110f4015281816113d701528181611529015281816115eb0152818161195601528181611a0d01528181611c3b01528181611d0d01528181611ee2015281816123cf0152818161248c015281816126140152818161297f0152612b5701526139ee6000f3fe6080604052600436106101025760003560e01c8063a3d5b25511610095578063c176000911610064578063c176000914610366578063d056155e14610386578063e148a47f146103a8578063eed88b8d146103bb578063f2fde38b146103db576101af565b8063a3d5b255146102d3578063affa8817146102f3578063ba6be03614610326578063bd5bbb5f14610346576101af565b8063715018a6116100d1578063715018a61461025457806373b7d17c1461026957806374791ae7146102895780638da5cb5b1461029c576101af565b806323afc8a5146101ee5780632f72018d146102015780633a5a1adb146102145780635596cf0314610234576101af565b366101af57336001600160a01b037f00000000000000000000000000000000000000000000000000000000000000001614806101665750336001600160a01b037f000000000000000000000000000000000000000000000000000000000000000016145b6101ad5760405162461bcd60e51b8152602060048201526013602482015272149958d95a5d99481b9bdd08185b1b1bddd959606a1b60448201526064015b60405180910390fd5b005b60405162461bcd60e51b815260206004820152601460248201527311985b1b189858dac81b9bdd08185b1b1bddd95960621b60448201526064016101a4565b6101ad6101fc36600461315a565b6103fb565b6101ad61020f3660046131bf565b610989565b34801561022057600080fd5b506101ad61022f36600461322b565b610ce2565b34801561024057600080fd5b506101ad61024f36600461326d565b6111fb565b34801561026057600080fd5b506101ad6115b8565b34801561027557600080fd5b506101ad61028436600461322b565b6115cc565b6101ad610297366004613286565b6119ee565b3480156102a857600080fd5b506000546001600160a01b03165b6040516001600160a01b0390911681526020015b60405180910390f35b3480156102df57600080fd5b506101ad6102ee366004613311565b611fb9565b3480156102ff57600080fd5b507f00000000000000000000000000000000000000000000000000000000000000006102b6565b34801561033257600080fd5b506101ad61034136600461326d565b611fda565b34801561035257600080fd5b506101ad61036136600461326d565b612168565b34801561037257600080fd5b506101ad61038136600461322b565b6125f5565b34801561039257600080fd5b506040516611c37937e0800081526020016102ca565b6101ad6103b6366004613352565b612a17565b3480156103c757600080fd5b506101ad6103d6366004613374565b612c7c565b3480156103e757600080fd5b506101ad6103f63660046133a0565b612c8e565b610403612d04565b600061041560808301606084016133a0565b6001600160a01b0316146104755760405162461bcd60e51b815260206004820152602160248201527f746f6b656e41646472657373206d757374206265205a45524f204144445245536044820152605360f81b60648201526084016101a4565b6000610489610160830161014084016133d2565b156104cf576101208201356104a6608084013560a0850135613405565b6104b0919061341e565b6104bb906001613440565b6104cc906611c37937e08000613453565b90505b7f00000000000000000000000000000000000000000000000000000000000000006001600160a01b031663d0e30db083604001356040518263ffffffff1660e01b81526004016000604051808303818588803b15801561052e57600080fd5b505af1158015610542573d6000803e3d6000fd5b50505050506000604051806101c0016040528084600001602081019061056891906133a0565b6001600160a01b0316815260200184602001602081019061058991906133a0565b6001600160a01b03168152602001846040013581526020017f00000000000000000000000000000000000000000000000000000000000000006001600160a01b03168152602001846080013581526020018460a0013581526020018460c0013581526020018460e001358152602001846101000135815260200184610120013581526020018461014001602081019061062291906133d2565b1515815260200161063b61018086016101608701613477565b600381111561064c5761064c613494565b81526020016106636101a086016101808701613477565b600381111561067457610674613494565b815260200161068b6101c086016101a08701613477565b600381111561069c5761069c613494565b90526040516326bf672960e01b81529091506001600160a01b037f000000000000000000000000000000000000000000000000000000000000000016906326bf67299084906106ef9085906004016134cc565b6000604051808303818588803b15801561070857600080fd5b505af115801561071c573d6000803e3d6000fd5b5050505050428361010001351115801561073a575060008360e00135115b15610949576040516328b9031160e21b81526001600160a01b037f0000000000000000000000000000000000000000000000000000000000000000811660048301526000917f00000000000000000000000000000000000000000000000000000000000000009091169063a2e40c4490602401602060405180830381865afa1580156107ca573d6000803e3d6000fd5b505050506040513d601f19601f820116820180604052508101906107ee91906135b9565b905060007f00000000000000000000000000000000000000000000000000000000000000006001600160a01b031663469048406040518163ffffffff1660e01b8152600401602060405180830381865afa158015610850573d6000803e3d6000fd5b505050506040513d601f19601f8201168201806040525081019061087491906135e2565b905060006127106108898460e0890135613453565b610893919061341e565b604051632e1a7d4d60e01b815260e088013560048201529091507f00000000000000000000000000000000000000000000000000000000000000006001600160a01b031690632e1a7d4d90602401600060405180830381600087803b1580156108fb57600080fd5b505af115801561090f573d6000803e3d6000fd5b5061093b925061092891505060408801602089016133a0565b6109368360e08a0135613405565b612d5d565b6109458282612d5d565b5050505b610957826040850135613440565b34111561097b5761097b3383610971604087013534613405565b6109369190613405565b505061098660018055565b50565b610991612d04565b8281146109d95760405162461bcd60e51b8152602060048201526016602482015275185c9c985e481b195b99dd1a081b9bdd08195c5d585b60521b60448201526064016101a4565b60008060005b85811015610cb05760007f00000000000000000000000000000000000000000000000000000000000000006001600160a01b031663894e9a0d898985818110610a2a57610a2a6135ff565b905060200201356040518263ffffffff1660e01b8152600401610a4f91815260200190565b61034060405180830381865afa158015610a6d573d6000803e3d6000fd5b505050506040513d601f19601f82011682018060405250810190610a91919061379d565b905060008160c00151878785818110610aac57610aac6135ff565b90506020020135610abd9190613405565b905060008260e0015182610ad1919061341e565b9050818360e0015182610ae49190613453565b14610b015760405162461bcd60e51b81526004016101a4906138cd565b600083610100015182610b149190613453565b9050610b208188613440565b96506000846101a0015115610b6a57610180850151610b3f908561341e565b610b4a906001613440565b610b5b906611c37937e08000613453565b9050610b678188613440565b96505b7f00000000000000000000000000000000000000000000000000000000000000006001600160a01b031663d0e30db0836040518263ffffffff1660e01b81526004016000604051808303818588803b158015610bc557600080fd5b505af1158015610bd9573d6000803e3d6000fd5b50505050507f00000000000000000000000000000000000000000000000000000000000000006001600160a01b031663daebec11828e8e8a818110610c2057610c206135ff565b905060200201358d8d8b818110610c3957610c396135ff565b905060200201356040518463ffffffff1660e01b8152600401610c66929190918252602082015260400190565b6000604051808303818588803b158015610c7f57600080fd5b505af1158015610c93573d6000803e3d6000fd5b505050505050505050508080610ca89061390f565b9150506109df565b50610cbb8183613440565b341115610cd157610cd133826109718534613405565b5050610cdc60018055565b50505050565b610cea612d04565b6040516328b9031160e21b81526001600160a01b037f0000000000000000000000000000000000000000000000000000000000000000811660048301526000917f00000000000000000000000000000000000000000000000000000000000000009091169063a2e40c4490602401602060405180830381865afa158015610d75573d6000803e3d6000fd5b505050506040513d601f19601f82011682018060405250810190610d9991906135b9565b905060007f00000000000000000000000000000000000000000000000000000000000000006001600160a01b031663469048406040518163ffffffff1660e01b8152600401602060405180830381865afa158015610dfb573d6000803e3d6000fd5b505050506040513d601f19601f82011682018060405250810190610e1f91906135e2565b905060005b838110156111eb5760007f00000000000000000000000000000000000000000000000000000000000000006001600160a01b031663894e9a0d878785818110610e6f57610e6f6135ff565b905060200201356040518263ffffffff1660e01b8152600401610e9491815260200190565b61034060405180830381865afa158015610eb2573d6000803e3d6000fd5b505050506040513d601f19601f82011682018060405250810190610ed6919061379d565b905060007f00000000000000000000000000000000000000000000000000000000000000006001600160a01b03166374e52218888886818110610f1b57610f1b6135ff565b9050602002013584602001516040518363ffffffff1660e01b8152600401610f569291909182526001600160a01b0316602082015260400190565b602060405180830381865afa158015610f73573d6000803e3d6000fd5b505050506040513d601f19601f82011682018060405250810190610f9791906135b9565b905060007f00000000000000000000000000000000000000000000000000000000000000006001600160a01b03166374e52218898987818110610fdc57610fdc6135ff565b9050602002013585604001516040518363ffffffff1660e01b81526004016110179291909182526001600160a01b0316602082015260400190565b602060405180830381865afa158015611034573d6000803e3d6000fd5b505050506040513d601f19601f8201168201806040525081019061105891906135b9565b90507f00000000000000000000000000000000000000000000000000000000000000006001600160a01b031663e953943489898781811061109b5761109b6135ff565b905060200201356040518263ffffffff1660e01b81526004016110c091815260200190565b600060405180830381600087803b1580156110da57600080fd5b505af11580156110ee573d6000803e3d6000fd5b505050507f00000000000000000000000000000000000000000000000000000000000000006001600160a01b0316632e1a7d4d828461112d9190613440565b6040518263ffffffff1660e01b815260040161114b91815260200190565b600060405180830381600087803b15801561116557600080fd5b505af1158015611179573d6000803e3d6000fd5b50505050600082111561119457611194836020015183612d5d565b80156111d55760006127106111a98884613453565b6111b3919061341e565b90506111c9846040015182846109369190613405565b6111d38682612d5d565b505b50505080806111e39061390f565b915050610e24565b5050506111f760018055565b5050565b611203612d04565b60405163894e9a0d60e01b8152600481018290526000907f00000000000000000000000000000000000000000000000000000000000000006001600160a01b03169063894e9a0d9060240161034060405180830381865afa15801561126c573d6000803e3d6000fd5b505050506040513d601f19601f82011682018060405250810190611290919061379d565b905060007f00000000000000000000000000000000000000000000000000000000000000006001600160a01b03166374e522188484604001516040518363ffffffff1660e01b81526004016112f89291909182526001600160a01b0316602082015260400190565b602060405180830381865afa158015611315573d6000803e3d6000fd5b505050506040513d601f19601f8201168201806040525081019061133991906135b9565b604051631d749b9160e21b8152600481018590529091507f00000000000000000000000000000000000000000000000000000000000000006001600160a01b0316906375d26e44906024015b600060405180830381600087803b15801561139f57600080fd5b505af11580156113b3573d6000803e3d6000fd5b50505050600081111561097b576040516328b9031160e21b81526001600160a01b037f0000000000000000000000000000000000000000000000000000000000000000811660048301526000917f00000000000000000000000000000000000000000000000000000000000000009091169063a2e40c4490602401602060405180830381865afa15801561144b573d6000803e3d6000fd5b505050506040513d601f19601f8201168201806040525081019061146f91906135b9565b905060006127106114808385613453565b61148a919061341e565b905060007f00000000000000000000000000000000000000000000000000000000000000006001600160a01b031663469048406040518163ffffffff1660e01b8152600401602060405180830381865afa1580156114ec573d6000803e3d6000fd5b505050506040513d601f19601f8201168201806040525081019061151091906135e2565b604051632e1a7d4d60e01b8152600481018690529091507f00000000000000000000000000000000000000000000000000000000000000006001600160a01b031690632e1a7d4d90602401600060405180830381600087803b15801561157557600080fd5b505af1158015611589573d6000803e3d6000fd5b50505060408601516115a091506109368487613405565b6115aa8183612d5d565b505050505061098660018055565b6115c0612e10565b6115ca6000612e6a565b565b6115d4612d04565b6040516328b9031160e21b81526001600160a01b037f0000000000000000000000000000000000000000000000000000000000000000811660048301526000917f00000000000000000000000000000000000000000000000000000000000000009091169063a2e40c4490602401602060405180830381865afa15801561165f573d6000803e3d6000fd5b505050506040513d601f19601f8201168201806040525081019061168391906135b9565b905060007f00000000000000000000000000000000000000000000000000000000000000006001600160a01b031663469048406040518163ffffffff1660e01b8152600401602060405180830381865afa1580156116e5573d6000803e3d6000fd5b505050506040513d601f19601f8201168201806040525081019061170991906135e2565b905060005b838110156111eb5760007f00000000000000000000000000000000000000000000000000000000000000006001600160a01b031663894e9a0d878785818110611759576117596135ff565b905060200201356040518263ffffffff1660e01b815260040161177e91815260200190565b61034060405180830381865afa15801561179c573d6000803e3d6000fd5b505050506040513d601f19601f820116820180604052508101906117c0919061379d565b905060007f00000000000000000000000000000000000000000000000000000000000000006001600160a01b03166374e52218888886818110611805576118056135ff565b9050602002013584604001516040518363ffffffff1660e01b81526004016118409291909182526001600160a01b0316602082015260400190565b602060405180830381865afa15801561185d573d6000803e3d6000fd5b505050506040513d601f19601f8201168201806040525081019061188191906135b9565b90507f00000000000000000000000000000000000000000000000000000000000000006001600160a01b031663c61a7e4d8888868181106118c4576118c46135ff565b905060200201356040518263ffffffff1660e01b81526004016118e991815260200190565b600060405180830381600087803b15801561190357600080fd5b505af1158015611917573d6000803e3d6000fd5b5050505060008111156119d95760006127106119338784613453565b61193d919061341e565b604051632e1a7d4d60e01b8152600481018490529091507f00000000000000000000000000000000000000000000000000000000000000006001600160a01b031690632e1a7d4d90602401600060405180830381600087803b1580156119a257600080fd5b505af11580156119b6573d6000803e3d6000fd5b50505060408401516119cd91506109368385613405565b6119d78582612d5d565b505b505080806119e69061390f565b91505061170e565b6119f6612d04565b6040516328b9031160e21b81526001600160a01b037f000000000000000000000000000000000000000000000000000000000000000081166004830152600091829182917f00000000000000000000000000000000000000000000000000000000000000009091169063a2e40c4490602401602060405180830381865afa158015611a85573d6000803e3d6000fd5b505050506040513d601f19601f82011682018060405250810190611aa991906135b9565b905060007f00000000000000000000000000000000000000000000000000000000000000006001600160a01b031663469048406040518163ffffffff1660e01b8152600401602060405180830381865afa158015611b0b573d6000803e3d6000fd5b505050506040513d601f19601f82011682018060405250810190611b2f91906135e2565b905060005b85811015611f8b5736878783818110611b4f57611b4f6135ff565b6101c00291909101915060009050611b6d60808301606084016133a0565b6001600160a01b031614611bc35760405162461bcd60e51b815260206004820152601960248201527f746f6b656e41646472657373206d75737420626520574554480000000000000060448201526064016101a4565b6000611bd7610160830161014084016133d2565b15611c2957610120820135611bf4608084013560a0850135613405565b611bfe919061341e565b611c09906001613440565b611c1a906611c37937e08000613453565b9050611c268187613440565b95505b611c37604083013588613440565b96507f00000000000000000000000000000000000000000000000000000000000000006001600160a01b031663d0e30db083604001356040518263ffffffff1660e01b81526004016000604051808303818588803b158015611c9857600080fd5b505af1158015611cac573d6000803e3d6000fd5b50505050506000604051806101c00160405280846000016020810190611cd291906133a0565b6001600160a01b03168152602001846020016020810190611cf391906133a0565b6001600160a01b03168152602001846040013581526020017f00000000000000000000000000000000000000000000000000000000000000006001600160a01b03168152602001846080013581526020018460a0013581526020018460c0013581526020018460e0013581526020018461010001358152602001846101200135815260200184610140016020810190611d8c91906133d2565b15158152602001611da561018086016101608701613477565b6003811115611db657611db6613494565b8152602001611dcd6101a086016101808701613477565b6003811115611dde57611dde613494565b8152602001611df56101c086016101a08701613477565b6003811115611e0657611e06613494565b90526040516326bf672960e01b81529091506001600160a01b037f000000000000000000000000000000000000000000000000000000000000000016906326bf6729908490611e599085906004016134cc565b6000604051808303818588803b158015611e7257600080fd5b505af1158015611e86573d6000803e3d6000fd5b50505050504283610100013511158015611ea4575060008360e00135115b15611f75576000612710611ebc8860e0870135613453565b611ec6919061341e565b604051632e1a7d4d60e01b815260e086013560048201529091507f00000000000000000000000000000000000000000000000000000000000000006001600160a01b031690632e1a7d4d90602401600060405180830381600087803b158015611f2e57600080fd5b505af1158015611f42573d6000803e3d6000fd5b50611f699250611f5b91505060408601602087016133a0565b6109368360e0880135613405565b611f738682612d5d565b505b5050508080611f839061390f565b915050611b34565b50611f968385613440565b341115611fac57611fac33846109718734613405565b505050506111f760018055565b611fc1612e10565b611fd56001600160a01b0384168383612eba565b505050565b611fe2612d04565b60405163894e9a0d60e01b8152600481018290526000907f00000000000000000000000000000000000000000000000000000000000000006001600160a01b03169063894e9a0d9060240161034060405180830381865afa15801561204b573d6000803e3d6000fd5b505050506040513d601f19601f8201168201806040525081019061206f919061379d565b905060007f00000000000000000000000000000000000000000000000000000000000000006001600160a01b03166374e522188484604001516040518363ffffffff1660e01b81526004016120d79291909182526001600160a01b0316602082015260400190565b602060405180830381865afa1580156120f4573d6000803e3d6000fd5b505050506040513d601f19601f8201168201806040525081019061211891906135b9565b60405163c61a7e4d60e01b8152600481018590529091507f00000000000000000000000000000000000000000000000000000000000000006001600160a01b03169063c61a7e4d90602401611385565b612170612d04565b60405163894e9a0d60e01b8152600481018290526000907f00000000000000000000000000000000000000000000000000000000000000006001600160a01b03169063894e9a0d9060240161034060405180830381865afa1580156121d9573d6000803e3d6000fd5b505050506040513d601f19601f820116820180604052508101906121fd919061379d565b6020810151604051630e9ca44360e31b81529192506000916001600160a01b037f000000000000000000000000000000000000000000000000000000000000000016916374e52218916122669187916004019182526001600160a01b0316602082015260400190565b602060405180830381865afa158015612283573d6000803e3d6000fd5b505050506040513d601f19601f820116820180604052508101906122a791906135b9565b905060007f00000000000000000000000000000000000000000000000000000000000000006001600160a01b03166374e522188585604001516040518363ffffffff1660e01b815260040161230f9291909182526001600160a01b0316602082015260400190565b602060405180830381865afa15801561232c573d6000803e3d6000fd5b505050506040513d601f19601f8201168201806040525081019061235091906135b9565b604051633a54e50d60e21b8152600481018690529091507f00000000000000000000000000000000000000000000000000000000000000006001600160a01b03169063e953943490602401600060405180830381600087803b1580156123b557600080fd5b505af11580156123c9573d6000803e3d6000fd5b505050507f00000000000000000000000000000000000000000000000000000000000000006001600160a01b0316632e1a7d4d82846124089190613440565b6040518263ffffffff1660e01b815260040161242691815260200190565b600060405180830381600087803b15801561244057600080fd5b505af1158015612454573d6000803e3d6000fd5b50505050600082111561246f5761246f836020015183612d5d565b80156125e9576040516328b9031160e21b81526001600160a01b037f0000000000000000000000000000000000000000000000000000000000000000811660048301526000917f00000000000000000000000000000000000000000000000000000000000000009091169063a2e40c4490602401602060405180830381865afa158015612500573d6000803e3d6000fd5b505050506040513d601f19601f8201168201806040525081019061252491906135b9565b905060006127106125358385613453565b61253f919061341e565b905060007f00000000000000000000000000000000000000000000000000000000000000006001600160a01b031663469048406040518163ffffffff1660e01b8152600401602060405180830381865afa1580156125a1573d6000803e3d6000fd5b505050506040513d601f19601f820116820180604052508101906125c591906135e2565b90506125db866040015183866109369190613405565b6125e58183612d5d565b5050505b50505061098660018055565b6125fd612d04565b6040516328b9031160e21b81526001600160a01b037f0000000000000000000000000000000000000000000000000000000000000000811660048301526000917f00000000000000000000000000000000000000000000000000000000000000009091169063a2e40c4490602401602060405180830381865afa158015612688573d6000803e3d6000fd5b505050506040513d601f19601f820116820180604052508101906126ac91906135b9565b905060007f00000000000000000000000000000000000000000000000000000000000000006001600160a01b031663469048406040518163ffffffff1660e01b8152600401602060405180830381865afa15801561270e573d6000803e3d6000fd5b505050506040513d601f19601f8201168201806040525081019061273291906135e2565b905060005b838110156111eb5760007f00000000000000000000000000000000000000000000000000000000000000006001600160a01b031663894e9a0d878785818110612782576127826135ff565b905060200201356040518263ffffffff1660e01b81526004016127a791815260200190565b61034060405180830381865afa1580156127c5573d6000803e3d6000fd5b505050506040513d601f19601f820116820180604052508101906127e9919061379d565b905060007f00000000000000000000000000000000000000000000000000000000000000006001600160a01b03166374e5221888888681811061282e5761282e6135ff565b9050602002013584604001516040518363ffffffff1660e01b81526004016128699291909182526001600160a01b0316602082015260400190565b602060405180830381865afa158015612886573d6000803e3d6000fd5b505050506040513d601f19601f820116820180604052508101906128aa91906135b9565b90507f00000000000000000000000000000000000000000000000000000000000000006001600160a01b03166375d26e448888868181106128ed576128ed6135ff565b905060200201356040518263ffffffff1660e01b815260040161291291815260200190565b600060405180830381600087803b15801561292c57600080fd5b505af1158015612940573d6000803e3d6000fd5b505050506000811115612a0257600061271061295c8784613453565b612966919061341e565b604051632e1a7d4d60e01b8152600481018490529091507f00000000000000000000000000000000000000000000000000000000000000006001600160a01b031690632e1a7d4d90602401600060405180830381600087803b1580156129cb57600080fd5b505af11580156129df573d6000803e3d6000fd5b50505060408401516129f691506109368385613405565b612a008582612d5d565b505b50508080612a0f9061390f565b915050612737565b612a1f612d04565b60405163894e9a0d60e01b8152600481018390526000907f00000000000000000000000000000000000000000000000000000000000000006001600160a01b03169063894e9a0d9060240161034060405180830381865afa158015612a88573d6000803e3d6000fd5b505050506040513d601f19601f82011682018060405250810190612aac919061379d565b905060008160c0015183612ac09190613405565b905060008260e0015182612ad4919061341e565b9050818360e0015182612ae79190613453565b14612b045760405162461bcd60e51b81526004016101a4906138cd565b600083610100015182612b179190613453565b90506000846101a0015115612b5557610180850151612b36908561341e565b612b41906001613440565b612b52906611c37937e08000613453565b90505b7f00000000000000000000000000000000000000000000000000000000000000006001600160a01b031663d0e30db0836040518263ffffffff1660e01b81526004016000604051808303818588803b158015612bb057600080fd5b505af1158015612bc4573d6000803e3d6000fd5b505060405163daebec1160e01b8152600481018b9052602481018a90527f00000000000000000000000000000000000000000000000000000000000000006001600160a01b0316935063daebec1192508491506044016000604051808303818588803b158015612c3357600080fd5b505af1158015612c47573d6000803e3d6000fd5b50505050508082612c589190613440565b341115612c6e57612c6e33826109718534613405565b50505050506111f760018055565b612c84612e10565b6111f78282612d5d565b612c96612e10565b6001600160a01b038116612cfb5760405162461bcd60e51b815260206004820152602660248201527f4f776e61626c653a206e6577206f776e657220697320746865207a65726f206160448201526564647265737360d01b60648201526084016101a4565b61098681612e6a565b600260015403612d565760405162461bcd60e51b815260206004820152601f60248201527f5265656e7472616e637947756172643a207265656e7472616e742063616c6c0060448201526064016101a4565b6002600155565b604080516000808252602082019092526001600160a01b038416908390604051612d87919061394c565b60006040518083038185875af1925050503d8060008114612dc4576040519150601f19603f3d011682016040523d82523d6000602084013e612dc9565b606091505b5050905080611fd55760405162461bcd60e51b815260206004820152601360248201527211551217d514905394d1915497d19052531151606a1b60448201526064016101a4565b6000546001600160a01b031633146115ca5760405162461bcd60e51b815260206004820181905260248201527f4f776e61626c653a2063616c6c6572206973206e6f7420746865206f776e657260448201526064016101a4565b600080546001600160a01b038381166001600160a01b0319831681178455604051919092169283917f8be0079c531659141344cd1fd0a4f28419497f9722a3daafe3b4186f6b6457e09190a35050565b604080516001600160a01b03848116602483015260448083018590528351808403909101815260649092018352602080830180516001600160e01b031663a9059cbb60e01b17905283518085019094528084527f5361666545524332303a206c6f772d6c6576656c2063616c6c206661696c656490840152611fd592869291600091612f4a918516908490612fca565b9050805160001480612f6b575080806020019051810190612f6b9190613968565b611fd55760405162461bcd60e51b815260206004820152602a60248201527f5361666545524332303a204552433230206f7065726174696f6e20646964206e6044820152691bdd081cdd58d8d9595960b21b60648201526084016101a4565b6060612fd98484600085612fe1565b949350505050565b6060824710156130425760405162461bcd60e51b815260206004820152602660248201527f416464726573733a20696e73756666696369656e742062616c616e636520666f6044820152651c8818d85b1b60d21b60648201526084016101a4565b600080866001600160a01b0316858760405161305e919061394c565b60006040518083038185875af1925050503d806000811461309b576040519150601f19603f3d011682016040523d82523d6000602084013e6130a0565b606091505b50915091506130b1878383876130bc565b979650505050505050565b6060831561312b578251600003613124576001600160a01b0385163b6131245760405162461bcd60e51b815260206004820152601d60248201527f416464726573733a2063616c6c20746f206e6f6e2d636f6e747261637400000060448201526064016101a4565b5081612fd9565b612fd983838151156131405781518083602001fd5b8060405162461bcd60e51b81526004016101a49190613985565b60006101c0828403121561316d57600080fd5b50919050565b60008083601f84011261318557600080fd5b50813567ffffffffffffffff81111561319d57600080fd5b6020830191508360208260051b85010111156131b857600080fd5b9250929050565b600080600080604085870312156131d557600080fd5b843567ffffffffffffffff808211156131ed57600080fd5b6131f988838901613173565b9096509450602087013591508082111561321257600080fd5b5061321f87828801613173565b95989497509550505050565b6000806020838503121561323e57600080fd5b823567ffffffffffffffff81111561325557600080fd5b61326185828601613173565b90969095509350505050565b60006020828403121561327f57600080fd5b5035919050565b6000806020838503121561329957600080fd5b823567ffffffffffffffff808211156132b157600080fd5b818501915085601f8301126132c557600080fd5b8135818111156132d457600080fd5b8660206101c0830285010111156132ea57600080fd5b60209290920196919550909350505050565b6001600160a01b038116811461098657600080fd5b60008060006060848603121561332657600080fd5b8335613331816132fc565b92506020840135613341816132fc565b929592945050506040919091013590565b6000806040838503121561336557600080fd5b50508035926020909101359150565b6000806040838503121561338757600080fd5b8235613392816132fc565b946020939093013593505050565b6000602082840312156133b257600080fd5b81356133bd816132fc565b9392505050565b801515811461098657600080fd5b6000602082840312156133e457600080fd5b81356133bd816133c4565b634e487b7160e01b600052601160045260246000fd5b81810381811115613418576134186133ef565b92915050565b60008261343b57634e487b7160e01b600052601260045260246000fd5b500490565b80820180821115613418576134186133ef565b8082028115828204841417613418576134186133ef565b6004811061098657600080fd5b60006020828403121561348957600080fd5b81356133bd8161346a565b634e487b7160e01b600052602160045260246000fd5b600481106134c857634e487b7160e01b600052602160045260246000fd5b9052565b81516001600160a01b031681526101c0810160208301516134f860208401826001600160a01b03169052565b5060408301516040830152606083015161351d60608401826001600160a01b03169052565b506080830151608083015260a083015160a083015260c083015160c083015260e083015160e0830152610100808401518184015250610120808401518184015250610140808401516135728285018215159052565b505061016080840151613587828501826134aa565b50506101808084015161359c828501826134aa565b50506101a0808401516135b1828501826134aa565b505092915050565b6000602082840312156135cb57600080fd5b5051919050565b80516135dd816132fc565b919050565b6000602082840312156135f457600080fd5b81516133bd816132fc565b634e487b7160e01b600052603260045260246000fd5b6040516060810167ffffffffffffffff8111828210171561364657634e487b7160e01b600052604160045260246000fd5b60405290565b604051610260810167ffffffffffffffff8111828210171561364657634e487b7160e01b600052604160045260246000fd5b80516135dd816133c4565b60006060828403121561369b57600080fd5b6136a3613615565b9050815181526020820151602082015260408201516136c1816133c4565b604082015292915050565b6000606082840312156136de57600080fd5b6136e6613615565b905081516136f38161346a565b815260208201516137038161346a565b602082015260408201516136c18161346a565b60006080828403121561372857600080fd5b6040516080810181811067ffffffffffffffff8211171561375957634e487b7160e01b600052604160045260246000fd5b80604052508091508251815260208301516020820152604083015161377d816132fc565b60408201526060830151613790816133c4565b6060919091015292915050565b600061034082840312156137b057600080fd5b6137b861364c565b6137c1836135d2565b81526137cf602084016135d2565b60208201526137e0604084016135d2565b6040820152606083015160608201526137fb608084016135d2565b608082015260a0838101519082015260c0808401519082015260e08084015190820152610100808401519082015261012080840151908201526101408084015190820152610160808401519082015261018080840151908201526101a061386381850161367e565b908201526101c061387584820161367e565b908201526101e061388784820161367e565b9082015261020061389a85858301613689565b908201526138ac8461026085016136cc565b6102208201526138c0846102c08501613716565b6102408201529392505050565b60208082526022908201527f73746f702074696d65206e6f74206d756c7469706c65206f6620696e74657276604082015261185b60f21b606082015260800190565b600060018201613921576139216133ef565b5060010190565b60005b8381101561394357818101518382015260200161392b565b50506000910152565b6000825161395e818460208701613928565b9190910192915050565b60006020828403121561397a57600080fd5b81516133bd816133c4565b60208152600082518060208401526139a4816040850160208701613928565b601f01601f1916919091016040019291505056fea2646970667358221220391c518e47bc69854b58d718dc3600e0f7df69d04c4b5f4203975bef6ce9856764736f6c63430008130033",
  "devdoc": {
    "kind": "dev",
    "methods": {
      "emergencyEtherTransfer(address,uint256)": {
        "details": "transfer native Ether from the utility contract, for native Ether recovery in case of stuck Ether due to selfdestructs or ether transfers to the pre-computed contract address before deployment.",
        "params": {
          "amount": "amount to send",
          "to": "recipient of the transfer"
        }
      },
      "emergencyTokenTransfer(address,address,uint256)": {
        "details": "transfer ERC20 from the utility contract, for ERC20 recovery in case of stuck tokens due direct transfers to the contract address.",
        "params": {
          "amount": "amount to send",
          "to": "recipient of the transfer",
          "token": "token to transfer"
        }
      },
      "getAutoWithdrawFee()": {
        "returns": {
          "_0": "The fixed auto-withdrawal fee of 0.005 ETH"
        }
      },
      "getWETHAddress()": {
        "details": "Get WETH address used by WrappedTokenGatewayV3"
      },
      "owner()": {
        "details": "Returns the address of the current owner."
      },
      "renounceOwnership()": {
        "details": "Leaves the contract without owner. It will not be possible to call `onlyOwner` functions. Can only be called by the current owner. NOTE: Renouncing ownership will leave the contract without an owner, thereby disabling any functionality that is only available to the owner."
      },
      "transferOwnership(address)": {
        "details": "Transfers ownership of the contract to a new account (`newOwner`). Can only be called by the current owner."
      }
    },
    "version": 1
  },
  "userdoc": {
    "kind": "user",
    "methods": {
      "getAutoWithdrawFee()": {
        "notice": "Get the fixed auto-withdrawal fee"
      }
    },
    "version": 1
  },
  "storageLayout": {
    "storage": [
      {
        "astId": 7,
        "contract": "contracts/StreamGateway.sol:FlowEntry",
        "label": "_owner",
        "offset": 0,
        "slot": "0",
        "type": "t_address"
      },
      {
        "astId": 123,
        "contract": "contracts/StreamGateway.sol:FlowEntry",
        "label": "_status",
        "offset": 0,
        "slot": "1",
        "type": "t_uint256"
      }
    ],
    "types": {
      "t_address": {
        "encoding": "inplace",
        "label": "address",
        "numberOfBytes": "20"
      },
      "t_uint256": {
        "encoding": "inplace",
        "label": "uint256",
        "numberOfBytes": "32"
      }
    }
  }
}