{
  "address": "0xeE245CF7b6995f0b05197477BC63b34FD0ED7727",
  "abi": [
    {
      "inputs": [
        {
          "internalType": "address",
          "name": "owner_",
          "type": "address"
        },
        {
          "internalType": "address",
          "name": "weth_",
          "type": "address"
        },
        {
          "internalType": "address",
          "name": "feeRecipient_",
          "type": "address"
        },
        {
          "internalType": "address",
          "name": "autoWithdrawAccount_",
          "type": "address"
        }
      ],
      "stateMutability": "nonpayable",
      "type": "constructor"
    },
    {
      "anonymous": false,
      "inputs": [
        {
          "indexed": true,
          "internalType": "uint256",
          "name": "streamId",
          "type": "uint256"
        },
        {
          "indexed": true,
          "internalType": "address",
          "name": "operator",
          "type": "address"
        },
        {
          "indexed": false,
          "internalType": "uint256",
          "name": "senderBalance",
          "type": "uint256"
        },
        {
          "indexed": false,
          "internalType": "uint256",
          "name": "recipientBalance",
          "type": "uint256"
        }
      ],
      "name": "CloseStream",
      "type": "event"
    },
    {
      "anonymous": false,
      "inputs": [
        {
          "indexed": true,
          "internalType": "address",
          "name": "previousOwner",
          "type": "address"
        },
        {
          "indexed": true,
          "internalType": "address",
          "name": "newOwner",
          "type": "address"
        }
      ],
      "name": "OwnershipTransferred",
      "type": "event"
    },
    {
      "anonymous": false,
      "inputs": [
        {
          "indexed": true,
          "internalType": "uint256",
          "name": "streamId",
          "type": "uint256"
        },
        {
          "indexed": true,
          "internalType": "address",
          "name": "operator",
          "type": "address"
        },
        {
          "indexed": false,
          "internalType": "uint256",
          "name": "recipientBalance",
          "type": "uint256"
        }
      ],
      "name": "PauseStream",
      "type": "event"
    },
    {
      "anonymous": false,
      "inputs": [
        {
          "indexed": true,
          "internalType": "uint256",
          "name": "streamId",
          "type": "uint256"
        },
        {
          "indexed": true,
          "internalType": "address",
          "name": "operator",
          "type": "address"
        },
        {
          "indexed": false,
          "internalType": "uint256",
          "name": "duration",
          "type": "uint256"
        }
      ],
      "name": "ResumeStream",
      "type": "event"
    },
    {
      "anonymous": false,
      "inputs": [
        {
          "indexed": true,
          "internalType": "uint256",
          "name": "streamId",
          "type": "uint256"
        },
        {
          "indexed": true,
          "internalType": "address",
          "name": "operator",
          "type": "address"
        },
        {
          "indexed": true,
          "internalType": "address",
          "name": "newRecipient",
          "type": "address"
        }
      ],
      "name": "SetNewRecipient",
      "type": "event"
    },
    {
      "anonymous": false,
      "inputs": [
        {
          "indexed": true,
          "internalType": "address",
          "name": "tokenAddress",
          "type": "address"
        },
        {
          "indexed": false,
          "internalType": "uint256",
          "name": "feeRate",
          "type": "uint256"
        }
      ],
      "name": "TokenRegister",
      "type": "event"
    },
    {
      "inputs": [],
      "name": "GATEWAY",
      "outputs": [
        {
          "internalType": "address",
          "name": "",
          "type": "address"
        }
      ],
      "stateMutability": "view",
      "type": "function"
    },
    {
      "inputs": [],
      "name": "WETH",
      "outputs": [
        {
          "internalType": "address",
          "name": "",
          "type": "address"
        }
      ],
      "stateMutability": "view",
      "type": "function"
    },
    {
      "inputs": [],
      "name": "autoWithdrawAccount",
      "outputs": [
        {
          "internalType": "address",
          "name": "",
          "type": "address"
        }
      ],
      "stateMutability": "view",
      "type": "function"
    },
    {
      "inputs": [],
      "name": "autoWithdrawFeeForOnce",
      "outputs": [
        {
          "internalType": "uint256",
          "name": "",
          "type": "uint256"
        }
      ],
      "stateMutability": "pure",
      "type": "function"
    },
    {
      "inputs": [
        {
          "internalType": "uint256",
          "name": "streamId",
          "type": "uint256"
        },
        {
          "internalType": "address",
          "name": "who",
          "type": "address"
        }
      ],
      "name": "availableFunds",
      "outputs": [
        {
          "internalType": "uint256",
          "name": "balance",
          "type": "uint256"
        }
      ],
      "stateMutability": "view",
      "type": "function"
    },
    {
      "inputs": [
        {
          "internalType": "uint256[]",
          "name": "streamIds",
          "type": "uint256[]"
        }
      ],
      "name": "bulkClaimFromFlow",
      "outputs": [],
      "stateMutability": "nonpayable",
      "type": "function"
    },
    {
      "inputs": [
        {
          "components": [
            {
              "internalType": "address",
              "name": "sender",
              "type": "address"
            },
            {
              "internalType": "address",
              "name": "recipient",
              "type": "address"
            },
            {
              "internalType": "uint256",
              "name": "deposit",
              "type": "uint256"
            },
            {
              "internalType": "address",
              "name": "tokenAddress",
              "type": "address"
            },
            {
              "internalType": "uint256",
              "name": "startTime",
              "type": "uint256"
            },
            {
              "internalType": "uint256",
              "name": "stopTime",
              "type": "uint256"
            },
            {
              "internalType": "uint256",
              "name": "interval",
              "type": "uint256"
            },
            {
              "internalType": "uint256",
              "name": "cliffAmount",
              "type": "uint256"
            },
            {
              "internalType": "uint256",
              "name": "cliffTime",
              "type": "uint256"
            },
            {
              "internalType": "uint256",
              "name": "autoWithdrawInterval",
              "type": "uint256"
            },
            {
              "internalType": "bool",
              "name": "autoWithdraw",
              "type": "bool"
            },
            {
              "internalType": "enum Struct.Capability",
              "name": "pauseable",
              "type": "uint8"
            },
            {
              "internalType": "enum Struct.Capability",
              "name": "closeable",
              "type": "uint8"
            },
            {
              "internalType": "enum Struct.Capability",
              "name": "recipientModifiable",
              "type": "uint8"
            }
          ],
          "internalType": "struct Struct.initializeStreamParams[]",
          "name": "createParams",
          "type": "tuple[]"
        }
      ],
      "name": "bulkCreateFlow",
      "outputs": [],
      "stateMutability": "payable",
      "type": "function"
    },
    {
      "inputs": [
        {
          "internalType": "uint256[]",
          "name": "streamIds",
          "type": "uint256[]"
        },
        {
          "internalType": "uint256[]",
          "name": "stopTime",
          "type": "uint256[]"
        }
      ],
      "name": "bulkExtendFlow",
      "outputs": [],
      "stateMutability": "payable",
      "type": "function"
    },
    {
      "inputs": [
        {
          "internalType": "uint256[]",
          "name": "streamIds",
          "type": "uint256[]"
        }
      ],
      "name": "bulkHaltFlow",
      "outputs": [],
      "stateMutability": "nonpayable",
      "type": "function"
    },
    {
      "inputs": [
        {
          "internalType": "address[]",
          "name": "tokenAddresses",
          "type": "address[]"
        },
        {
          "internalType": "uint256[]",
          "name": "feeRates",
          "type": "uint256[]"
        }
      ],
      "name": "bulkRegisterAsset",
      "outputs": [],
      "stateMutability": "nonpayable",
      "type": "function"
    },
    {
      "inputs": [
        {
          "internalType": "uint256[]",
          "name": "streamIds",
          "type": "uint256[]"
        }
      ],
      "name": "bulkRestartFlow",
      "outputs": [],
      "stateMutability": "nonpayable",
      "type": "function"
    },
    {
      "inputs": [
        {
          "internalType": "uint256[]",
          "name": "streamIds",
          "type": "uint256[]"
        }
      ],
      "name": "bulkTerminateFlow",
      "outputs": [],
      "stateMutability": "nonpayable",
      "type": "function"
    },
    {
      "inputs": [
        {
          "internalType": "uint256[]",
          "name": "streamIds",
          "type": "uint256[]"
        },
        {
          "internalType": "address[]",
          "name": "newRecipient",
          "type": "address[]"
        }
      ],
      "name": "bulkUpdateBeneficiary",
      "outputs": [],
      "stateMutability": "nonpayable",
      "type": "function"
    },
    {
      "inputs": [
        {
          "internalType": "uint256",
          "name": "streamId",
          "type": "uint256"
        }
      ],
      "name": "claimFromFlow",
      "outputs": [],
      "stateMutability": "nonpayable",
      "type": "function"
    },
    {
      "inputs": [
        {
          "internalType": "address",
          "name": "gateway",
          "type": "address"
        }
      ],
      "name": "configureGateway",
      "outputs": [],
      "stateMutability": "nonpayable",
      "type": "function"
    },
    {
      "inputs": [],
      "name": "feeRecipient",
      "outputs": [
        {
          "internalType": "address",
          "name": "",
          "type": "address"
        }
      ],
      "stateMutability": "view",
      "type": "function"
    },
    {
      "inputs": [
        {
          "internalType": "uint256",
          "name": "streamId",
          "type": "uint256"
        }
      ],
      "name": "getStream",
      "outputs": [
        {
          "components": [
            {
              "internalType": "address",
              "name": "onBehalfOf",
              "type": "address"
            },
            {
              "internalType": "address",
              "name": "sender",
              "type": "address"
            },
            {
              "internalType": "address",
              "name": "recipient",
              "type": "address"
            },
            {
              "internalType": "uint256",
              "name": "deposit",
              "type": "uint256"
            },
            {
              "internalType": "address",
              "name": "tokenAddress",
              "type": "address"
            },
            {
              "internalType": "uint256",
              "name": "startTime",
              "type": "uint256"
            },
            {
              "internalType": "uint256",
              "name": "stopTime",
              "type": "uint256"
            },
            {
              "internalType": "uint256",
              "name": "interval",
              "type": "uint256"
            },
            {
              "internalType": "uint256",
              "name": "ratePerInterval",
              "type": "uint256"
            },
            {
              "internalType": "uint256",
              "name": "remainingBalance",
              "type": "uint256"
            },
            {
              "internalType": "uint256",
              "name": "lastWithdrawTime",
              "type": "uint256"
            },
            {
              "internalType": "uint256",
              "name": "createAt",
              "type": "uint256"
            },
            {
              "internalType": "uint256",
              "name": "autoWithdrawInterval",
              "type": "uint256"
            },
            {
              "internalType": "bool",
              "name": "autoWithdraw",
              "type": "bool"
            },
            {
              "internalType": "bool",
              "name": "closed",
              "type": "bool"
            },
            {
              "internalType": "bool",
              "name": "isEntity",
              "type": "bool"
            },
            {
              "components": [
                {
                  "internalType": "uint256",
                  "name": "cliffAmount",
                  "type": "uint256"
                },
                {
                  "internalType": "uint256",
                  "name": "cliffTime",
                  "type": "uint256"
                },
                {
                  "internalType": "bool",
                  "name": "cliffDone",
                  "type": "bool"
                }
              ],
              "internalType": "struct Struct.CliffInfo",
              "name": "cliffInfo",
              "type": "tuple"
            },
            {
              "components": [
                {
                  "internalType": "enum Struct.Capability",
                  "name": "pauseable",
                  "type": "uint8"
                },
                {
                  "internalType": "enum Struct.Capability",
                  "name": "closeable",
                  "type": "uint8"
                },
                {
                  "internalType": "enum Struct.Capability",
                  "name": "recipientModifiable",
                  "type": "uint8"
                }
              ],
              "internalType": "struct Struct.FeatureInfo",
              "name": "featureInfo",
              "type": "tuple"
            },
            {
              "components": [
                {
                  "internalType": "uint256",
                  "name": "pauseAt",
                  "type": "uint256"
                },
                {
                  "internalType": "uint256",
                  "name": "accPauseTime",
                  "type": "uint256"
                },
                {
                  "internalType": "address",
                  "name": "pauseBy",
                  "type": "address"
                },
                {
                  "internalType": "bool",
                  "name": "isPaused",
                  "type": "bool"
                }
              ],
              "internalType": "struct Struct.PauseInfo",
              "name": "pauseInfo",
              "type": "tuple"
            }
          ],
          "internalType": "struct Struct.Stream",
          "name": "",
          "type": "tuple"
        }
      ],
      "stateMutability": "view",
      "type": "function"
    },
    {
      "inputs": [
        {
          "internalType": "uint256",
          "name": "streamId",
          "type": "uint256"
        }
      ],
      "name": "haltFlow",
      "outputs": [],
      "stateMutability": "nonpayable",
      "type": "function"
    },
    {
      "inputs": [
        {
          "components": [
            {
              "internalType": "address",
              "name": "sender",
              "type": "address"
            },
            {
              "internalType": "address",
              "name": "recipient",
              "type": "address"
            },
            {
              "internalType": "uint256",
              "name": "deposit",
              "type": "uint256"
            },
            {
              "internalType": "address",
              "name": "tokenAddress",
              "type": "address"
            },
            {
              "internalType": "uint256",
              "name": "startTime",
              "type": "uint256"
            },
            {
              "internalType": "uint256",
              "name": "stopTime",
              "type": "uint256"
            },
            {
              "internalType": "uint256",
              "name": "interval",
              "type": "uint256"
            },
            {
              "internalType": "uint256",
              "name": "cliffAmount",
              "type": "uint256"
            },
            {
              "internalType": "uint256",
              "name": "cliffTime",
              "type": "uint256"
            },
            {
              "internalType": "uint256",
              "name": "autoWithdrawInterval",
              "type": "uint256"
            },
            {
              "internalType": "bool",
              "name": "autoWithdraw",
              "type": "bool"
            },
            {
              "internalType": "enum Struct.Capability",
              "name": "pauseable",
              "type": "uint8"
            },
            {
              "internalType": "enum Struct.Capability",
              "name": "closeable",
              "type": "uint8"
            },
            {
              "internalType": "enum Struct.Capability",
              "name": "recipientModifiable",
              "type": "uint8"
            }
          ],
          "internalType": "struct Struct.initializeStreamParams",
          "name": "createParams",
          "type": "tuple"
        }
      ],
      "name": "initializeFlow",
      "outputs": [],
      "stateMutability": "payable",
      "type": "function"
    },
    {
      "inputs": [],
      "name": "nextStreamId",
      "outputs": [
        {
          "internalType": "uint256",
          "name": "",
          "type": "uint256"
        }
      ],
      "stateMutability": "view",
      "type": "function"
    },
    {
      "inputs": [],
      "name": "owner",
      "outputs": [
        {
          "internalType": "address",
          "name": "",
          "type": "address"
        }
      ],
      "stateMutability": "view",
      "type": "function"
    },
    {
      "inputs": [
        {
          "internalType": "uint256",
          "name": "streamId",
          "type": "uint256"
        },
        {
          "internalType": "uint256",
          "name": "stopTime",
          "type": "uint256"
        }
      ],
      "name": "prolongFlow",
      "outputs": [],
      "stateMutability": "payable",
      "type": "function"
    },
    {
      "inputs": [
        {
          "internalType": "address",
          "name": "tokenAddress",
          "type": "address"
        },
        {
          "internalType": "uint256",
          "name": "feeRate",
          "type": "uint256"
        }
      ],
      "name": "registerAsset",
      "outputs": [],
      "stateMutability": "nonpayable",
      "type": "function"
    },
    {
      "inputs": [],
      "name": "renounceOwnership",
      "outputs": [],
      "stateMutability": "nonpayable",
      "type": "function"
    },
    {
      "inputs": [
        {
          "internalType": "uint256",
          "name": "streamId",
          "type": "uint256"
        }
      ],
      "name": "restartFlow",
      "outputs": [],
      "stateMutability": "nonpayable",
      "type": "function"
    },
    {
      "inputs": [
        {
          "internalType": "uint256",
          "name": "streamId",
          "type": "uint256"
        }
      ],
      "name": "terminateFlow",
      "outputs": [],
      "stateMutability": "nonpayable",
      "type": "function"
    },
    {
      "inputs": [
        {
          "internalType": "uint256",
          "name": "streamId",
          "type": "uint256"
        }
      ],
      "name": "timeElapsed",
      "outputs": [
        {
          "internalType": "uint256",
          "name": "delta",
          "type": "uint256"
        }
      ],
      "stateMutability": "view",
      "type": "function"
    },
    {
      "inputs": [
        {
          "internalType": "address",
          "name": "tokenAddress",
          "type": "address"
        }
      ],
      "name": "tokenFeeRate",
      "outputs": [
        {
          "internalType": "uint256",
          "name": "",
          "type": "uint256"
        }
      ],
      "stateMutability": "view",
      "type": "function"
    },
    {
      "inputs": [
        {
          "internalType": "address",
          "name": "newOwner",
          "type": "address"
        }
      ],
      "name": "transferOwnership",
      "outputs": [],
      "stateMutability": "nonpayable",
      "type": "function"
    },
    {
      "inputs": [
        {
          "internalType": "address",
          "name": "newAutoWithdrawAccount",
          "type": "address"
        }
      ],
      "name": "updateAutoClaimAccount",
      "outputs": [],
      "stateMutability": "nonpayable",
      "type": "function"
    },
    {
      "inputs": [
        {
          "internalType": "uint256",
          "name": "streamId",
          "type": "uint256"
        },
        {
          "internalType": "address",
          "name": "newRecipient",
          "type": "address"
        }
      ],
      "name": "updateBeneficiary",
      "outputs": [],
      "stateMutability": "nonpayable",
      "type": "function"
    },
    {
      "inputs": [
        {
          "internalType": "address",
          "name": "newFeeRecipient",
          "type": "address"
        }
      ],
      "name": "updateFeeCollector",
      "outputs": [],
      "stateMutability": "nonpayable",
      "type": "function"
    }
  ],
  "transactionHash": "0x45f1b598dac466d72118c279deca0909923fc99408b65fd6802251d5c4a92a63",
  "args": [
    "0x366454Aa75572d6Aa9D505bca1199B5c148C0b2A",
    "0x1401b4FF86A31737a75513039435131578704a25",
    "0x366454Aa75572d6Aa9D505bca1199B5c148C0b2A",
    "0x366454Aa75572d6Aa9D505bca1199B5c148C0b2A"
  ],
  "numDeployments": 15,
  "solcInputHash": "689feda1e0527ffd5ecf35c32f8970d9",
  "bytecode": "0x60806040523480156200001157600080fd5b5060405162004ba338038062004ba3833981016040819052620000349162000109565b600160005562000044336200009a565b6200004f846200009a565b600280546001600160a01b039485166001600160a01b03199182161790915560058054938516938216939093179092556006805491909316911617905550620186a060045562000166565b600180546001600160a01b038381166001600160a01b0319831681179093556040519116919082907f8be0079c531659141344cd1fd0a4f28419497f9722a3daafe3b4186f6b6457e090600090a35050565b80516001600160a01b03811681146200010457600080fd5b919050565b600080600080608085870312156200012057600080fd5b6200012b85620000ec565b93506200013b60208601620000ec565b92506200014b60408601620000ec565b91506200015b60608601620000ec565b905092959194509250565b614a2d80620001766000396000f3fe6080604052600436106101e35760003560e01c8063855f1a8c11610102578063bb33360411610095578063daebec1111610064578063daebec1114610567578063e95394341461057a578063f2fde38b1461059a578063f71db568146105ba57600080fd5b8063bb333604146104e7578063c61a7e4d14610507578063d2c35ce814610527578063d7c0a97e1461054757600080fd5b8063a6054c49116100d1578063a6054c4914610469578063ad5c464814610489578063b7785afb146104a9578063b8ae0aab146104c957600080fd5b8063855f1a8c146103e4578063894e9a0d146103fe5780638da5cb5b1461042b578063a2e40c441461044957600080fd5b806356e50c021161017a57806371ade6291161014957806371ade6291461036457806374e522181461038457806375d26e44146103a457806384d3e098146103c457600080fd5b806356e50c02146102fc57806362e9a2f51461031c5780636bcf87b91461033c578063715018a61461034f57600080fd5b806327c5cb0f116101b657806327c5cb0f14610266578063338c5371146102865780633e8eb5a4146102be57806346904840146102de57600080fd5b806308913ce8146101e857806308d575cb1461021b5780631e99d5691461023d57806326bf672914610253575b600080fd5b3480156101f457600080fd5b5061020861020336600461417a565b6105cd565b6040519081526020015b60405180910390f35b34801561022757600080fd5b5061023b6102363660046141df565b6108b8565b005b34801561024957600080fd5b5061020860045481565b61023b61026136600461424b565b61093e565b34801561027257600080fd5b5061023b61028136600461425e565b610a86565b34801561029257600080fd5b506003546102a6906001600160a01b031681565b6040516001600160a01b039091168152602001610212565b3480156102ca57600080fd5b5061023b6102d93660046142bc565b610ac9565b3480156102ea57600080fd5b506005546001600160a01b03166102a6565b34801561030857600080fd5b5061023b61031736600461425e565b610dd2565b34801561032857600080fd5b5061023b6103373660046142e8565b610e10565b61023b61034a36600461430a565b610e3a565b34801561035b57600080fd5b5061023b610fe9565b34801561037057600080fd5b5061023b61037f3660046142e8565b610ffd565b34801561039057600080fd5b5061020861039f3660046142bc565b611027565b3480156103b057600080fd5b5061023b6103bf36600461417a565b61133a565b3480156103d057600080fd5b5061023b6103df36600461417a565b6117eb565b3480156103f057600080fd5b506611c37937e08000610208565b34801561040a57600080fd5b5061041e61041936600461417a565b611a15565b60405161021291906143e8565b34801561043757600080fd5b506001546001600160a01b03166102a6565b34801561045557600080fd5b506102086104643660046142e8565b611c68565b34801561047557600080fd5b5061023b61048436600461425e565b611cbc565b34801561049557600080fd5b506002546102a6906001600160a01b031681565b3480156104b557600080fd5b5061023b6104c436600461454f565b611cfa565b3480156104d557600080fd5b506006546001600160a01b03166102a6565b3480156104f357600080fd5b5061023b6105023660046141df565b611d67565b34801561051357600080fd5b5061023b61052236600461417a565b611df3565b34801561053357600080fd5b5061023b6105423660046142e8565b611f29565b34801561055357600080fd5b5061023b61056236600461425e565b611f53565b61023b610575366004614579565b611f91565b34801561058657600080fd5b5061023b61059536600461417a565b612092565b3480156105a657600080fd5b5061023b6105b53660046142e8565b61279c565b61023b6105c83660046141df565b612812565b6000818152600960205260408120600d0154829062010000900460ff1661060f5760405162461bcd60e51b81526004016106069061459b565b60405180910390fd5b600083815260096020818152604080842081516102608101835281546001600160a01b0390811682526001830154811682860152600283015481168285015260038084015460608085019190915260048501549092166080840152600584015460a0840152600684015460c0840152600784015460e084015260088401546101008085019190915296840154610120840152600a840154610140840152600b840154610160840152600c840154610180840152600d84015460ff80821615156101a0860152978104881615156101c0850152620100009004871615156101e084015284518083018652600e8501548152600f85015496810196909652601084015487161515868601526102008301959095528351908101909352601182018054919592946102208701949391928492169081111561074f5761074f614380565b600381111561076057610760614380565b81528154602090910190610100900460ff16600381111561078357610783614380565b600381111561079457610794614380565b8152815460209091019062010000900460ff1660038111156107b8576107b8614380565b60038111156107c9576107c9614380565b9052508152604080516080810182526012840154815260138401546020808301919091526014909401546001600160a01b03811692820192909252600160a01b90910460ff1615156060820152908201526102408201510151610140820151919250610834916145de565b4210156108455760009250506108b2565b8060c00151421115610891578060e00151816102400151602001518261014001518360c0015161087591906145f7565b61087f91906145f7565b610889919061460a565b9250506108b2565b60e08101516102408201516020015161014083015161087590426145f7565b505b50919050565b8281146108d75760405162461bcd60e51b81526004016106069061462c565b60005b83811015610937576109258585838181106108f7576108f761465c565b905060200201358484848181106109105761091061465c565b90506020020160208101906102d991906142e8565b8061092f81614672565b9150506108da565b5050505050565b6109466129a9565b6007600061095a60808401606085016142e8565b6001600160a01b0316815260208101919091526040016000205460ff166109935760405162461bcd60e51b81526004016106069061468b565b6004546040805160c0810182526002546001600160a01b039081168252600354811660208301526005548116928201929092526006549091166060808301919091526611c37937e08000608080840191909152600093610a2d939092349260a08301916008918891610a09918b01908b016142e8565b6001600160a01b031681526020810191909152604001600020549052856009612a02565b90506004546001610a3e91906145de565b600455336108fc610a4f83346145f7565b6040518115909202916000818181858888f19350505050158015610a77573d6000803e3d6000fd5b5050610a836001600055565b50565b60005b81811015610ac457610ab2838383818110610aa657610aa661465c565b905060200201356117eb565b80610abc81614672565b915050610a89565b505050565b6000828152600960205260409020600d0154829062010000900460ff16610b025760405162461bcd60e51b81526004016106069061459b565b6000838152600960205260409020600d810154610100900460ff1615610b3a5760405162461bcd60e51b8152600401610606906146b9565b6014810154600160a01b900460ff1615610b875760405162461bcd60e51b815260206004820152600e60248201526d199b1bddc81a5cc81a185b1d195960921b6044820152606401610606565b60018101546001600160a01b03163303610c55576003601182015462010000900460ff166003811115610bbc57610bbc614380565b1480610be657506001601182015462010000900460ff166003811115610be457610be4614380565b145b610c505760405162461bcd60e51b815260206004820152603560248201527f696e69746961746f72206973206e6f7420617574686f72697a656420746f206360448201527468616e6765207468652062656e656669636961727960581b6064820152608401610606565b610d7f565b60028101546001600160a01b03163303610d26576003601182015462010000900460ff166003811115610c8a57610c8a614380565b1480610cb457506002601182015462010000900460ff166003811115610cb257610cb2614380565b145b610c505760405162461bcd60e51b815260206004820152603760248201527f62656e6566696369617279206973206e6f7420617574686f72697a656420746f60448201527f206368616e6765207468652062656e65666963696172790000000000000000006064820152608401610606565b60405162461bcd60e51b815260206004820152602860248201527f6e6f7420617574686f72697a656420746f206368616e6765207468652062656e604482015267656669636961727960c01b6064820152608401610606565b6002810180546001600160a01b0319166001600160a01b038516908117909155604051339086907f2332b32c657da903f97fc41b3802c0d654be883822c4fc814f7aac8826f6024290600090a450505050565b60005b81811015610ac457610dfe838383818110610df257610df261465c565b90506020020135612092565b80610e0881614672565b915050610dd5565b610e18613281565b600380546001600160a01b0319166001600160a01b0392909216919091179055565b610e426129a9565b3460005b82811015610fab5760076000858584818110610e6457610e6461465c565b90506101c002016060016020810190610e7d91906142e8565b6001600160a01b0316815260208101919091526040016000205460ff16610eb65760405162461bcd60e51b81526004016106069061468b565b6004546040805160c0810182526002546001600160a01b0390811682526003548116602083015260055481169282019290925260065490911660608201526611c37937e080006080820152600091610f7891859060a081016008868b8b8a818110610f2357610f2361465c565b90506101c002016060016020810190610f3c91906142e8565b6001600160a01b031681526020810191909152604001600020549052888887818110610f6a57610f6a61465c565b90506101c002016009612a02565b9050610f8481846145f7565b92506004546001610f9591906145de565b6004555080610fa381614672565b915050610e46565b50604051339082156108fc029083906000818181858888f19350505050158015610fd9573d6000803e3d6000fd5b5050610fe56001600055565b5050565b610ff1613281565b610ffb60006132db565b565b611005613281565b600680546001600160a01b0319166001600160a01b0392909216919091179055565b6000828152600960205260408120600d0154839062010000900460ff166110605760405162461bcd60e51b81526004016106069061459b565b600084815260096020818152604080842081516102608101835281546001600160a01b0390811682526001830154811682860152600283015481168285015260038084015460608085019190915260048501549092166080840152600584015460a0840152600684015460c0840152600784015460e084015260088401546101008085019190915296840154610120840152600a840154610140840152600b840154610160840152600c840154610180840152600d84015460ff80821615156101a0860152978104881615156101c0850152620100009004871615156101e084015284518083018652600e8501548152600f8501549681019690965260108401548716151586860152610200830195909552835190810190935260118201805491959294610220870194939192849216908111156111a0576111a0614380565b60038111156111b1576111b1614380565b81528154602090910190610100900460ff1660038111156111d4576111d4614380565b60038111156111e5576111e5614380565b8152815460209091019062010000900460ff16600381111561120957611209614380565b600381111561121a5761121a614380565b9052508152604080516080810182526012840154815260138401546020808301919091526014909401546001600160a01b03811692820192909252600160a01b90910460ff161515606082015291015290506000611277866105cd565b905060008261010001518261128c91906146e5565b610200840151604001519091501580156112af5750428361020001516020015111155b156112c857610200830151516112c590826145de565b90505b82604001516001600160a01b0316866001600160a01b0316036112ef579350611333915050565b82602001516001600160a01b0316866001600160a01b03160361132b5760008184610120015161131f91906145f7565b95506113339350505050565b600094505050505b5092915050565b6000818152600960205260409020600d0154819062010000900460ff166113735760405162461bcd60e51b81526004016106069061459b565b60008281526009602052604090206014810154600160a01b900460ff16156113d65760405162461bcd60e51b8152602060048201526016602482015275199b1bddc81a5cc8185b1c9958591e481a185b1d195960521b6044820152606401610606565b600d810154610100900460ff16156114005760405162461bcd60e51b8152600401610606906146b9565b428160060154116114465760405162461bcd60e51b815260206004820152601060248201526f199b1bddc81a185cc8195e1c1a5c995960821b6044820152606401610606565b60048101546002546001600160a01b039081169116148015611471575080546001600160a01b031633145b156116385760018101546001600160a01b031632036115565760035b601182015460ff1660038111156114a6576114a6614380565b14806114ca57506001601182015460ff1660038111156114c8576114c8614380565b145b61152b5760405162461bcd60e51b815260206004820152602c60248201527f696e69746961746f72206973206e6f7420617574686f72697a656420746f206860448201526b616c742074686520666c6f7760a01b6064820152608401610606565b60018101546014820180546001600160a01b0319166001600160a01b039092169190911790556116e9565b60028101546001600160a01b031632036115f0576003601182015460ff16600381111561158557611585614380565b14806115a957506002601182015460ff1660038111156115a7576115a7614380565b145b6115c55760405162461bcd60e51b8152600401610606906146fc565b60028101546014820180546001600160a01b0319166001600160a01b039092169190911790556116e9565b60405162461bcd60e51b815260206004820152601f60248201527f6e6f7420617574686f72697a656420746f2068616c742074686520666c6f77006044820152606401610606565b60018101546001600160a01b0316330361165357600361148d565b60028101546001600160a01b031633036115f0576003601182015460ff16600381111561168257611682614380565b14806116a657506002601182015460ff1660038111156116a4576116a4614380565b145b6116c25760405162461bcd60e51b8152600401610606906146fc565b60028101546014820180546001600160a01b0319166001600160a01b039092169190911790555b60028101546000906117059085906001600160a01b0316611027565b90508015611786576117868461171a866105cd565b6040805160c0810182526002546001600160a01b0390811682526003548116602080840191909152600554821683850152600654821660608401526611c37937e080006080840152600489015490911660009081526008909152919091205460a082015284908661332d565b426012830155601482018054600160a01b60ff60a01b198216179091556040518281526001600160a01b039091169085907f1836062ce566b70b50773e3c19affdd6107e4c3fb04def16baed7812b7a705bc906020015b60405180910390a350505050565b6000818152600960205260409020600d0154819062010000900460ff166118245760405162461bcd60e51b81526004016106069061459b565b60008281526009602052604090206014810154600160a01b900460ff1615156001146118875760405162461bcd60e51b8152602060048201526012602482015271199b1bddc81a5cc81b9bdd081a185b1d195960721b6044820152606401610606565b600d810154610100900460ff16156118b15760405162461bcd60e51b8152600401610606906146b9565b60148101546001600160a01b03163314806118e55750336118da6001546001600160a01b031690565b6001600160a01b0316145b6119495760405162461bcd60e51b815260206004820152602f60248201527f6f6e6c7920746865206f6e652077686f2068616c7465642074686520666c6f7760448201526e0818d85b881c995cdd185c9d081a5d608a1b6064820152608401610606565b6000816005015442111561198f5760058201546012830154111561197d57601282015461197690426145f7565b905061198f565b600582015461198c90426145f7565b90505b6014820180546000601285018190556001600160a81b03199091169091556013830180548392906119c19084906145de565b92505081905550808260060160008282546119dc91906145de565b9091555050604051818152339085907f2f1ed4ab782430de5128fcfb83b70e880e2101a6f6f6573e5fc375dc39ddd3c3906020016117dd565b611a1d61405b565b6000828152600960205260409020600d0154829062010000900460ff16611a565760405162461bcd60e51b81526004016106069061459b565b60008381526009602081815260409283902083516102608101855281546001600160a01b0390811682526001830154811682850152600283015481168287015260038084015460608085019190915260048501549092166080840152600584015460a0840152600684015460c0840152600784015460e084015260088401546101008085019190915295840154610120840152600a840154610140840152600b840154610160840152600c840154610180840152600d84015460ff80821615156101a0860152968104871615156101c0850152620100009004861615156101e084015286518083018852600e8501548152600f850154958101959095526010840154861615158588015261020083019490945285519081019095526011820180549195929461022087019491928492911690811115611b9757611b97614380565b6003811115611ba857611ba8614380565b81528154602090910190610100900460ff166003811115611bcb57611bcb614380565b6003811115611bdc57611bdc614380565b8152815460209091019062010000900460ff166003811115611c0057611c00614380565b6003811115611c1157611c11614380565b9052508152604080516080810182526012840154815260138401546020808301919091526014909401546001600160a01b03811692820192909252600160a01b90910460ff16151560608201529101529392505050565b6001600160a01b03811660009081526007602052604081205460ff16611ca05760405162461bcd60e51b81526004016106069061468b565b506001600160a01b031660009081526008602052604090205490565b60005b81811015610ac457611ce8838383818110611cdc57611cdc61465c565b90506020020135611df3565b80611cf281614672565b915050611cbf565b611d02613281565b6001600160a01b0382166000818152600760209081526040808320805460ff19166001179055600882529182902084905590518381527f83bb6d7c6f5ef6b5807f5736263050cf35f0f7a47a0c4387182426d4e68da434910160405180910390a25050565b611d6f613281565b828114611d8e5760405162461bcd60e51b81526004016106069061462c565b60005b8381101561093757611de1858583818110611dae57611dae61465c565b9050602002016020810190611dc391906142e8565b848484818110611dd557611dd561465c565b90506020020135611cfa565b80611deb81614672565b915050611d91565b6000818152600960205260409020600d0154819062010000900460ff16611e2c5760405162461bcd60e51b81526004016106069061459b565b600082815260096020526040812090611e44846105cd565b6002830154909150600090611e639086906001600160a01b0316611027565b905060008111611eb55760405162461bcd60e51b815260206004820152601c60248201527f6e6f2066756e647320617661696c61626c6520666f7220636c61696d000000006044820152606401610606565b6040805160c0810182526002546001600160a01b0390811682526003548116602080840191909152600554821683850152600654821660608401526611c37937e080006080840152600487015490911660009081526008909152919091205460a0820152610937908690849084908761332d565b611f31613281565b600580546001600160a01b0319166001600160a01b0392909216919091179055565b60005b81811015610ac457611f7f838383818110611f7357611f7361465c565b9050602002013561133a565b80611f8981614672565b915050611f56565b611f996129a9565b6000828152600960205260409020600d0154829062010000900460ff16611fd25760405162461bcd60e51b81526004016106069061459b565b6000838152600960209081526040808320815160c0810183526002546001600160a01b039081168252600354811682860152600554811682850152600654811660608301526611c37937e080006080830152600483015416855260089093529083205460a0830152919061204c9086908690349086613554565b9050336108fc61205c83346145f7565b6040518115909202916000818181858888f19350505050158015612084573d6000803e3d6000fd5b50505050610fe56001600055565b6000818152600960205260409020600d0154819062010000900460ff166120cb5760405162461bcd60e51b81526004016106069061459b565b600082815260096020818152604080842081516102608101835281546001600160a01b0390811682526001830154811682860152600283015481168285015260038084015460608085019190915260048501549092166080840152600584015460a0840152600684015460c0840152600784015460e084015260088401546101008085019190915296840154610120840152600a840154610140840152600b840154610160840152600c840154610180840152600d84015460ff80821615156101a0860152978104881615156101c0850152620100009004871615156101e084015284518083018652600e8501548152600f85015496810196909652601084015487161515868601526102008301959095528351908101909352601182018054919592946102208701949391928492169081111561220b5761220b614380565b600381111561221c5761221c614380565b81528154602090910190610100900460ff16600381111561223f5761223f614380565b600381111561225057612250614380565b8152815460209091019062010000900460ff16600381111561227457612274614380565b600381111561228557612285614380565b9052508152604080516080810182526012840154815260138401546020808301919091526014909401546001600160a01b03811692820192909252600160a01b90910460ff16151560608201529101526101c08101519091501561232b5760405162461bcd60e51b815260206004820152601a60248201527f666c6f7720697320616c7265616479207465726d696e617465640000000000006044820152606401610606565b6000612336846105cd565b90506000612348858460200151611027565b9050600061235a868560400151611027565b60808501516002549192506001600160a01b039182169116148015612388575083516001600160a01b031633145b156125005760208401516001600160a01b031632036124055760038461022001516020015160038111156123be576123be614380565b14806123e4575060018461022001516020015160038111156123e2576123e2614380565b145b6124005760405162461bcd60e51b81526004016106069061474a565b6124cc565b60408401516001600160a01b0316320361247857600384610220015160200151600381111561243657612436614380565b148061245c5750600284610220015160200151600381111561245a5761245a614380565b145b6124005760405162461bcd60e51b81526004016106069061479b565b60405162461bcd60e51b8152602060048201526024808201527f6e6f7420617574686f72697a656420746f207465726d696e6174652074686520604482015263666c6f7760e01b6064820152608401610606565b83516000878152600960208190526040909120015460808601516124fb926001600160a01b03909116916138e4565b61269e565b60208401516001600160a01b0316330361257857600384610220015160200151600381111561253157612531614380565b14806125575750600184610220015160200151600381111561255557612555614380565b145b6125735760405162461bcd60e51b81526004016106069061474a565b6125eb565b60408401516001600160a01b031633036124785760038461022001516020015160038111156125a9576125a9614380565b14806125cf575060028461022001516020015160038111156125cd576125cd614380565b145b6125735760405162461bcd60e51b81526004016106069061479b565b80156126725760808401516001600160a01b03166000908152600860205260408120546127109061261c90846146e5565b612626919061460a565b6005546080870151919250612648916001600160a01b039081169116836138e4565b60408501516126709061265b83856145f7565b60808801516001600160a01b031691906138e4565b505b811561269e5761269e84602001518386608001516001600160a01b03166138e49092919063ffffffff16565b6102008401516040015115156000036126ce576000868152600960205260409020601001805460ff191660011790555b82156127315783610240015160200151838560e001516126ee91906146e5565b6126f891906145de565b6000878152600960205260408120600a0180549091906127199084906145de565b90915550506000868152600960205260408120601301555b6000868152600960208181526040808420600d8101805461ff001916610100179055909201929092558051848152918201839052339188917f43acfd20cba69d3105bc741dd2309494a8078fbd9edbba352f55c1d2e8d5a073910160405180910390a3505050505050565b6127a4613281565b6001600160a01b0381166128095760405162461bcd60e51b815260206004820152602660248201527f4f776e61626c653a206e6577206f776e657220697320746865207a65726f206160448201526564647265737360d01b6064820152608401610606565b610a83816132db565b61281a6129a9565b3483821461283a5760405162461bcd60e51b81526004016106069061462c565b60005b848110156129695760006009600088888581811061285d5761285d61465c565b905060200201358152602001908152602001600020905080600d0160029054906101000a900460ff166128a25760405162461bcd60e51b81526004016106069061459b565b60006129468888858181106128b9576128b961465c565b905060200201358787868181106128d2576128d261465c565b6040805160c0810182526002546001600160a01b0390811682526003548116602083810191909152600554821683850152600654821660608401526611c37937e08000608084015260048b0154909116600090815260088252929092205460a0820152910292909201359188915086613554565b905061295281856145f7565b93505050808061296190614672565b91505061283d565b50604051339082156108fc029083906000818181858888f19350505050158015612997573d6000803e3d6000fd5b50506129a36001600055565b50505050565b6002600054036129fb5760405162461bcd60e51b815260206004820152601f60248201527f5265656e7472616e637947756172643a207265656e7472616e742063616c6c006044820152606401610606565b6002600055565b6000612a1b612a163685900385018561484e565b613947565b6000612a34612a2f3686900386018661484e565b613b61565b60408051610260810190915260008152909150602080820190612a59908701876142e8565b6001600160a01b03168152602001856020016020810190612a7a91906142e8565b6001600160a01b03168152604080870135602083015201612aa160808701606088016142e8565b6001600160a01b03168152602001856080013581526020018560a0013581526020018560c0013581526020018281526020018560400135815260200185608001358152602001428152602001856101200135815260200185610140016020810190612b0c919061492f565b1515815260200160001515815260200160011515815260200160405180606001604052808760e0013581526020018761010001358152602001600015158152508152602001604051806060016040528087610160016020810190612b70919061494c565b6003811115612b8157612b81614380565b8152602001612b986101a089016101808a0161494c565b6003811115612ba957612ba9614380565b8152602001612bc06101c089016101a08a0161494c565b6003811115612bd157612bd1614380565b905281526040805160808082018352600080835260208381018290528385018290526060808501839052958101939093528c8152888352839020855181546001600160a01b039182166001600160a01b031991821617835587850151600184810180549285169284169290921790915588870151600285018054918516918416919091179055968801516003808501919091559388015160048401805491909316911617905560a0860151600582015560c0860151600682015560e086015160078201556101008087015160088301556101208701516009830155610140870151600a830155610160870151600b830155610180870151600c8301556101a0870151600d830180546101c08a01516101e08b01511515620100000262ff00001991151590950261ff00199415159490941661ffff199092169190911792909217919091169190911790556102008601518051600e83015592830151600f820155919092015160108201805491151560ff19928316179055610220850151805160118401805494969295909491938593921691908490811115612d7557612d75614380565b021790555060208201518154829061ff001916610100836003811115612d9d57612d9d614380565b021790555060408201518154829062ff0000191662010000836003811115612dc757612dc7614380565b0217905550505061024091909101518051601283015560208082015160138401556040820151601490930180546060909301511515600160a01b026001600160a81b03199093166001600160a01b039485161792909217909155860151163303612e5d57602085810151600089815291859052604090912080546001600160a01b0319166001600160a01b039092169190911790555b612e8833306040870135612e776080890160608a016142e8565b6001600160a01b0316929190613c83565b612e9a6101608501610140860161492f565b15612f35578460800151915081861015612ef65760405162461bcd60e51b815260206004820152601760248201527f6175746f20776974686472617720666565206572726f720000000000000000006044820152606401610606565b84606001516001600160a01b03166108fc839081150290604051600060405180830381858888f19350505050158015612f33573d6000803e3d6000fd5b505b8360e00135600003612f62576000878152602084905260409020601001805460ff19166001179055613063565b42846101000135116130635760208501516001600160a01b03163303612fb057612fab3360e0860135612f9b60808801606089016142e8565b6001600160a01b031691906138e4565b613029565b60006127108660a001518660e00135612fc991906146e5565b612fd3919061460a565b90506000612fe58260e08801356145f7565b60408801519091506130029083612f9b60808a0160608b016142e8565b61302661301560408801602089016142e8565b82612f9b60808a0160608b016142e8565b50505b600087815260208490526040812060108101805460ff19166001179055600901805460e0870135929061305d9084906145f7565b90915550505b6000878152602084815260409182902082516102608101845281546001600160a01b0390811682526001830154811682850152600283015481168286015260038084015460608085019190915260048501549092166080840152600584015460a0840152600684015460c0840152600784015460e08401526008840154610100808501919091526009850154610120850152600a850154610140850152600b850154610160850152600c850154610180850152600d85015460ff80821615156101a0870152918104821615156101c0860152620100009004811615156101e085015286518084018852600e8601548152600f86015496810196909652601085015481161515868801526102008401959095528551918201909552601183018054613277968e96949594610220870194939284929116908111156131a8576131a8614380565b60038111156131b9576131b9614380565b81528154602090910190610100900460ff1660038111156131dc576131dc614380565b60038111156131ed576131ed614380565b8152815460209091019062010000900460ff16600381111561321157613211614380565b600381111561322257613222614380565b9052508152604080516080810182526012840154815260138401546020808301919091526014909401546001600160a01b03811692820192909252600160a01b90910460ff1615156060820152910152613cbb565b5095945050505050565b6001546001600160a01b03163314610ffb5760405162461bcd60e51b815260206004820181905260248201527f4f776e61626c653a2063616c6c6572206973206e6f7420746865206f776e65726044820152606401610606565b600180546001600160a01b038381166001600160a01b0319831681179093556040519116919082907f8be0079c531659141344cd1fd0a4f28419497f9722a3daafe3b4186f6b6457e090600090a35050565b6014810154600160a01b900460ff161561337c5760405162461bcd60e51b815260206004820152601060248201526f1cdd1c99585b481a5cc81c185d5cd95960821b6044820152606401610606565b600d810154610100900460ff16156133c95760405162461bcd60e51b815260206004820152601060248201526f1cdd1c99585b481a5cc818db1bdcd95960821b6044820152606401610606565b8281600901546133d991906145f7565b6009820155831561342357601381015460078201546133f99086906146e5565b61340391906145de565b81600a01600082825461341691906145de565b9091555050600060138201555b600481015482516001600160a01b03908116911614801561344d575080546001600160a01b031633145b156134755780546004820154613470916001600160a01b039182169116856138e4565b6134e8565b60006127108360a001518561348a91906146e5565b613494919061460a565b604084015160048401549192506134b5916001600160a01b031690836138e4565b60028201546134e6906001600160a01b03166134d183876145f7565b60048501546001600160a01b031691906138e4565b505b601081015460ff161580156135015750600f8101544210155b156135165760108101805460ff191660011790555b604051838152339086907f1d04bd1271909efd9c053804a5059d66fd1106cf314b06f64bc78225f0f0965f9060200160405180910390a35050505050565b6000816006015485116135bb5760405162461bcd60e51b815260206004820152602960248201527f73746f702074696d65206e6f74206166746572207468652063757272656e742060448201526873746f702074696d6560b81b6064820152608401610606565b6014820154600160a01b900460ff161561360a5760405162461bcd60e51b815260206004820152601060248201526f1cdd1c99585b481a5cc81c185d5cd95960821b6044820152606401610606565b600d820154610100900460ff16156136575760405162461bcd60e51b815260206004820152601060248201526f1cdd1c99585b481a5cc818db1bdcd95960821b6044820152606401610606565b60018201546001600160a01b03163314806136975750600482015483516001600160a01b039081169116148015613697575081546001600160a01b031633145b6136e35760405162461bcd60e51b815260206004820181905260248201527f6e6f7420616c6c6f77656420746f20657874656e64207468652073747265616d6044820152606401610606565b60008260060154866136f591906145f7565b90506000836007015482613709919061460a565b90508184600701548261371c91906146e5565b146137745760405162461bcd60e51b815260206004820152602260248201527f73746f702074696d65206e6f74206d756c7469706c65206f6620696e74657276604482015261185b60f21b6064820152608401610606565b600d84015460ff161561383b57600c840154613790908361460a565b61379b9060016145de565b85608001516137aa91906146e5565b9250828610156137fc5760405162461bcd60e51b815260206004820152601b60248201527f6175746f20776974686472617720666565206e6f20656e6f75676800000000006044820152606401610606565b84606001516001600160a01b03166108fc849081150290604051600060405180830381858888f19350505050158015613839573d6000803e3d6000fd5b505b600084600801548261384d91906146e5565b6006860189905560038601549091506138679082906145de565b6003860155600985015461387c9082906145de565b6009860155600485015461389b906001600160a01b0316333084613c83565b604080518981526020810183905233918b917fa8a3291df9a56984eb649b8a6750e262e6f9bf1e02a64f3274b8407e2c520261910160405180910390a350505095945050505050565b6040516001600160a01b038316602482015260448101829052610ac490849063a9059cbb60e01b906064015b60408051601f198184030181529190526020810180516001600160e01b03166001600160e01b031990931692909217909152613df6565b60208101516001600160a01b03166139a15760405162461bcd60e51b815260206004820152601a60248201527f73747265616d20746f20746865207a65726f20616464726573730000000000006044820152606401610606565b306001600160a01b031681602001516001600160a01b031603613a065760405162461bcd60e51b815260206004820152601d60248201527f73747265616d20746f2074686520636f6e747261637420697473656c660000006044820152606401610606565b80600001516001600160a01b031681602001516001600160a01b031603613a665760405162461bcd60e51b815260206004820152601460248201527339ba3932b0b6903a37903a34329031b0b63632b960611b6044820152606401610606565b6000816040015111613aac5760405162461bcd60e51b815260206004820152600f60248201526e6465706f736974206973207a65726f60881b6044820152606401610606565b4281608001511015613b0a5760405162461bcd60e51b815260206004820152602160248201527f73746172742074696d65206265666f726520626c6f636b2e74696d657374616d6044820152600760fc1b6064820152608401610606565b80608001518160a0015111610a835760405162461bcd60e51b815260206004820152601f60248201527f73746f702074696d65206265666f7265207468652073746172742074696d65006044820152606401610606565b60008082608001518360a00151613b7891906145f7565b905060008360c0015182613b8c919061460a565b9050818460c0015182613b9f91906146e5565b14613bec5760405162461bcd60e51b815260206004820152601d60248201527f6465706f73697420736d616c6c6572207468616e206475726174696f6e0000006044820152606401610606565b808460e001518560400151613c0191906145f7565b613c0b919061460a565b92508360e001518460400151613c2191906145f7565b613c2b82856146e5565b146108b05760405162461bcd60e51b815260206004820152602260248201527f6465706f736974206e6f74206d756c7469706c65206f662074696d652064656c604482015261746160f01b6064820152608401610606565b6040516001600160a01b03808516602483015283166044820152606481018290526129a39085906323b872dd60e01b90608401613910565b80604001516001600160a01b031681602001516001600160a01b0316837f84b2cf2d8353011c4921c23f6fddd1c8cc6d156d62bf0cca909405cbe06a962e846060015185608001518660a001518760c001518860e00151896102000151600001518a6102000151602001518b61018001518c6101a001518d6102200151600001516003811115613d4d57613d4d614380565b8e6102200151602001516003811115613d6857613d68614380565b8f6102200151604001516003811115613d8357613d83614380565b604080519c8d526001600160a01b03909b1660208d0152998b019890985260608a0196909652608089019490945260a088019290925260c087015260e0860152151561010085015260ff908116610120850152908116610140840152166101608201526101800160405180910390a45050565b6000613e4b826040518060400160405280602081526020017f5361666545524332303a206c6f772d6c6576656c2063616c6c206661696c6564815250856001600160a01b0316613ecb9092919063ffffffff16565b9050805160001480613e6c575080806020019051810190613e6c9190614967565b610ac45760405162461bcd60e51b815260206004820152602a60248201527f5361666545524332303a204552433230206f7065726174696f6e20646964206e6044820152691bdd081cdd58d8d9595960b21b6064820152608401610606565b6060613eda8484600085613ee2565b949350505050565b606082471015613f435760405162461bcd60e51b815260206004820152602660248201527f416464726573733a20696e73756666696369656e742062616c616e636520666f6044820152651c8818d85b1b60d21b6064820152608401610606565b600080866001600160a01b03168587604051613f5f91906149a8565b60006040518083038185875af1925050503d8060008114613f9c576040519150601f19603f3d011682016040523d82523d6000602084013e613fa1565b606091505b5091509150613fb287838387613fbd565b979650505050505050565b6060831561402c578251600003614025576001600160a01b0385163b6140255760405162461bcd60e51b815260206004820152601d60248201527f416464726573733a2063616c6c20746f206e6f6e2d636f6e74726163740000006044820152606401610606565b5081613eda565b613eda83838151156140415781518083602001fd5b8060405162461bcd60e51b815260040161060691906149c4565b60405180610260016040528060006001600160a01b0316815260200160006001600160a01b0316815260200160006001600160a01b031681526020016000815260200160006001600160a01b031681526020016000815260200160008152602001600081526020016000815260200160008152602001600081526020016000815260200160008152602001600015158152602001600015158152602001600015158152602001614127604051806060016040528060008152602001600081526020016000151581525090565b815260200161415060408051606081019091528060008152602001600081526020016000905290565b81526040805160808101825260008082526020828101829052928201819052606082015291015290565b60006020828403121561418c57600080fd5b5035919050565b60008083601f8401126141a557600080fd5b50813567ffffffffffffffff8111156141bd57600080fd5b6020830191508360208260051b85010111156141d857600080fd5b9250929050565b600080600080604085870312156141f557600080fd5b843567ffffffffffffffff8082111561420d57600080fd5b61421988838901614193565b9096509450602087013591508082111561423257600080fd5b5061423f87828801614193565b95989497509550505050565b60006101c082840312156108b257600080fd5b6000806020838503121561427157600080fd5b823567ffffffffffffffff81111561428857600080fd5b61429485828601614193565b90969095509350505050565b80356001600160a01b03811681146142b757600080fd5b919050565b600080604083850312156142cf57600080fd5b823591506142df602084016142a0565b90509250929050565b6000602082840312156142fa57600080fd5b614303826142a0565b9392505050565b6000806020838503121561431d57600080fd5b823567ffffffffffffffff8082111561433557600080fd5b818501915085601f83011261434957600080fd5b81358181111561435857600080fd5b8660206101c08302850101111561436e57600080fd5b60209290920196919550909350505050565b634e487b7160e01b600052602160045260246000fd5b600481106143b457634e487b7160e01b600052602160045260246000fd5b9052565b6143c3828251614396565b60208101516143d56020840182614396565b506040810151610ac46040840182614396565b81516001600160a01b031681526103408101602083015161441460208401826001600160a01b03169052565b50604083015161442f60408401826001600160a01b03169052565b5060608301516060830152608083015161445460808401826001600160a01b03169052565b5060a0838101519083015260c0808401519083015260e08084015190830152610100808401519083015261012080840151908301526101408084015190830152610160808401519083015261018080840151908301526101a0808401511515908301526101c0808401511515908301526101e08084015115159083015261020080840151805191840191909152602081015161022080850191909152604090910151151561024084015283015161450f6102608401826143b8565b5061024083015180516102c084015260208101516102e084015260408101516001600160a01b031661030084015260608101511515610320840152611333565b6000806040838503121561456257600080fd5b61456b836142a0565b946020939093013593505050565b6000806040838503121561458c57600080fd5b50508035926020909101359150565b602080825260139082015272199b1bddc8191bd95cc81b9bdd08195e1a5cdd606a1b604082015260600190565b634e487b7160e01b600052601160045260246000fd5b808201808211156145f1576145f16145c8565b92915050565b818103818111156145f1576145f16145c8565b60008261462757634e487b7160e01b600052601260045260246000fd5b500490565b6020808252601690820152750c2e4e4c2f2e640d8cadccee8d040dad2e6dac2e8c6d60531b604082015260600190565b634e487b7160e01b600052603260045260246000fd5b600060018201614684576146846145c8565b5060010190565b602080825260149082015273185cdcd95d081b9bdd081c9959da5cdd195c995960621b604082015260600190565b602080825260129082015271199b1bddc81a5cc81d195c9b5a5b985d195960721b604082015260600190565b80820281158282048414176145f1576145f16145c8565b6020808252602e908201527f62656e6566696369617279206973206e6f7420617574686f72697a656420746f60408201526d2068616c742074686520666c6f7760901b606082015260800190565b60208082526031908201527f696e69746961746f72206973206e6f7420617574686f72697a656420746f207460408201527065726d696e6174652074686520666c6f7760781b606082015260800190565b60208082526033908201527f62656e6566696369617279206973206e6f7420617574686f72697a656420746f604082015272207465726d696e6174652074686520666c6f7760681b606082015260800190565b6040516101c0810167ffffffffffffffff8111828210171561482057634e487b7160e01b600052604160045260246000fd5b60405290565b8015158114610a8357600080fd5b80356142b781614826565b8035600481106142b757600080fd5b60006101c0828403121561486157600080fd5b6148696147ee565b614872836142a0565b8152614880602084016142a0565b60208201526040830135604082015261489b606084016142a0565b60608201526080830135608082015260a083013560a082015260c083013560c082015260e083013560e08201526101008084013581830152506101208084013581830152506101406148ee818501614834565b9082015261016061490084820161483f565b9082015261018061491284820161483f565b908201526101a061492484820161483f565b908201529392505050565b60006020828403121561494157600080fd5b813561430381614826565b60006020828403121561495e57600080fd5b6143038261483f565b60006020828403121561497957600080fd5b815161430381614826565b60005b8381101561499f578181015183820152602001614987565b50506000910152565b600082516149ba818460208701614984565b9190910192915050565b60208152600082518060208401526149e3816040850160208701614984565b601f01601f1916919091016040019291505056fea2646970667358221220a31bc25104be23a2d20f65e640683a4ffb9eb529464d47997cb4493d8c19af6964736f6c63430008130033",
  "devdoc": {
    "kind": "dev",
    "methods": {
      "availableFunds(uint256,address)": {
        "details": "Throws if the id does not point to a valid stream.",
        "params": {
          "streamId": "The id of the stream for which to query the balance.",
          "who": "The address for which to query the balance."
        },
        "returns": {
          "balance": "The total funds allocated to `who` as uint256."
        }
      },
      "claimFromFlow(uint256)": {
        "params": {
          "streamId": "The id of the stream to withdraw tokens from."
        }
      },
      "getStream(uint256)": {
        "details": "Throws if the id does not point to a valid stream.",
        "params": {
          "streamId": "The id of the stream to query."
        }
      },
      "owner()": {
        "details": "Returns the address of the current owner."
      },
      "renounceOwnership()": {
        "details": "Leaves the contract without owner. It will not be possible to call `onlyOwner` functions. Can only be called by the current owner. NOTE: Renouncing ownership will leave the contract without an owner, thereby disabling any functionality that is only available to the owner."
      },
      "terminateFlow(uint256)": {
        "details": "Throws if the id does not point to a valid stream.  Throws if the caller is not the sender or the recipient of the stream.  Throws if there is a token transfer failure.",
        "params": {
          "streamId": "The id of the stream to close."
        }
      },
      "timeElapsed(uint256)": {
        "details": "Throws if the id does not point to a valid stream.",
        "params": {
          "streamId": "The id of the stream for which to query the delta."
        },
        "returns": {
          "delta": "The time delta in intervals."
        }
      },
      "transferOwnership(address)": {
        "details": "Transfers ownership of the contract to a new account (`newOwner`). Can only be called by the current owner."
      }
    },
    "version": 1
  },
  "userdoc": {
    "events": {
      "CloseStream(uint256,address,uint256,uint256)": {
        "notice": "Emits when a stream is successfully closed and tokens are transferred back on a pro rata basis."
      },
      "PauseStream(uint256,address,uint256)": {
        "notice": "Emits when a stream is successfully paused."
      },
      "ResumeStream(uint256,address,uint256)": {
        "notice": "Emits when a stream is successfully resumed."
      },
      "SetNewRecipient(uint256,address,address)": {
        "notice": "Emits when the recipient of a stream is successfully changed."
      },
      "TokenRegister(address,uint256)": {
        "notice": "Emits when a token is successfully registered."
      }
    },
    "kind": "user",
    "methods": {
      "availableFunds(uint256,address)": {
        "notice": "Returns the available funds for the given stream id and address."
      },
      "claimFromFlow(uint256)": {
        "notice": "Withdraws from the contract to the recipient's account."
      },
      "getStream(uint256)": {
        "notice": "Returns the stream with all its properties."
      },
      "nextStreamId()": {
        "notice": "Counter for new stream ids."
      },
      "terminateFlow(uint256)": {
        "notice": "close the stream and transfers the tokens back on a pro rata basis."
      },
      "timeElapsed(uint256)": {
        "notice": "Returns either the delta in intervals between `block.timestamp` and `startTime` or  between `stopTime` and `startTime, whichever is smaller. If `block.timestamp` is before  `startTime`, it returns 0."
      }
    },
    "version": 1
  },
  "storageLayout": {
    "storage": [
      {
        "astId": 123,
        "contract": "contracts/Stream.sol:Stream",
        "label": "_status",
        "offset": 0,
        "slot": "0",
        "type": "t_uint256"
      },
      {
        "astId": 7,
        "contract": "contracts/Stream.sol:Stream",
        "label": "_owner",
        "offset": 0,
        "slot": "1",
        "type": "t_address"
      },
      {
        "astId": 1059,
        "contract": "contracts/Stream.sol:Stream",
        "label": "WETH",
        "offset": 0,
        "slot": "2",
        "type": "t_address"
      },
      {
        "astId": 1061,
        "contract": "contracts/Stream.sol:Stream",
        "label": "GATEWAY",
        "offset": 0,
        "slot": "3",
        "type": "t_address"
      },
      {
        "astId": 1064,
        "contract": "contracts/Stream.sol:Stream",
        "label": "nextStreamId",
        "offset": 0,
        "slot": "4",
        "type": "t_uint256"
      },
      {
        "astId": 1066,
        "contract": "contracts/Stream.sol:Stream",
        "label": "_feeRecipient",
        "offset": 0,
        "slot": "5",
        "type": "t_address"
      },
      {
        "astId": 1068,
        "contract": "contracts/Stream.sol:Stream",
        "label": "_autoWithdrawAccount",
        "offset": 0,
        "slot": "6",
        "type": "t_address"
      },
      {
        "astId": 1075,
        "contract": "contracts/Stream.sol:Stream",
        "label": "_tokenAllowed",
        "offset": 0,
        "slot": "7",
        "type": "t_mapping(t_address,t_bool)"
      },
      {
        "astId": 1079,
        "contract": "contracts/Stream.sol:Stream",
        "label": "_tokenFeeRate",
        "offset": 0,
        "slot": "8",
        "type": "t_mapping(t_address,t_uint256)"
      },
      {
        "astId": 1085,
        "contract": "contracts/Stream.sol:Stream",
        "label": "_streams",
        "offset": 0,
        "slot": "9",
        "type": "t_mapping(t_uint256,t_struct(Stream)3628_storage)"
      }
    ],
    "types": {
      "t_address": {
        "encoding": "inplace",
        "label": "address",
        "numberOfBytes": "20"
      },
      "t_bool": {
        "encoding": "inplace",
        "label": "bool",
        "numberOfBytes": "1"
      },
      "t_enum(Capability)3586": {
        "encoding": "inplace",
        "label": "enum Struct.Capability",
        "numberOfBytes": "1"
      },
      "t_mapping(t_address,t_bool)": {
        "encoding": "mapping",
        "key": "t_address",
        "label": "mapping(address => bool)",
        "numberOfBytes": "32",
        "value": "t_bool"
      },
      "t_mapping(t_address,t_uint256)": {
        "encoding": "mapping",
        "key": "t_address",
        "label": "mapping(address => uint256)",
        "numberOfBytes": "32",
        "value": "t_uint256"
      },
      "t_mapping(t_uint256,t_struct(Stream)3628_storage)": {
        "encoding": "mapping",
        "key": "t_uint256",
        "label": "mapping(uint256 => struct Struct.Stream)",
        "numberOfBytes": "32",
        "value": "t_struct(Stream)3628_storage"
      },
      "t_struct(CliffInfo)3635_storage": {
        "encoding": "inplace",
        "label": "struct Struct.CliffInfo",
        "members": [
          {
            "astId": 3630,
            "contract": "contracts/Stream.sol:Stream",
            "label": "cliffAmount",
            "offset": 0,
            "slot": "0",
            "type": "t_uint256"
          },
          {
            "astId": 3632,
            "contract": "contracts/Stream.sol:Stream",
            "label": "cliffTime",
            "offset": 0,
            "slot": "1",
            "type": "t_uint256"
          },
          {
            "astId": 3634,
            "contract": "contracts/Stream.sol:Stream",
            "label": "cliffDone",
            "offset": 0,
            "slot": "2",
            "type": "t_bool"
          }
        ],
        "numberOfBytes": "96"
      },
      "t_struct(FeatureInfo)3645_storage": {
        "encoding": "inplace",
        "label": "struct Struct.FeatureInfo",
        "members": [
          {
            "astId": 3638,
            "contract": "contracts/Stream.sol:Stream",
            "label": "pauseable",
            "offset": 0,
            "slot": "0",
            "type": "t_enum(Capability)3586"
          },
          {
            "astId": 3641,
            "contract": "contracts/Stream.sol:Stream",
            "label": "closeable",
            "offset": 1,
            "slot": "0",
            "type": "t_enum(Capability)3586"
          },
          {
            "astId": 3644,
            "contract": "contracts/Stream.sol:Stream",
            "label": "recipientModifiable",
            "offset": 2,
            "slot": "0",
            "type": "t_enum(Capability)3586"
          }
        ],
        "numberOfBytes": "32"
      },
      "t_struct(PauseInfo)3654_storage": {
        "encoding": "inplace",
        "label": "struct Struct.PauseInfo",
        "members": [
          {
            "astId": 3647,
            "contract": "contracts/Stream.sol:Stream",
            "label": "pauseAt",
            "offset": 0,
            "slot": "0",
            "type": "t_uint256"
          },
          {
            "astId": 3649,
            "contract": "contracts/Stream.sol:Stream",
            "label": "accPauseTime",
            "offset": 0,
            "slot": "1",
            "type": "t_uint256"
          },
          {
            "astId": 3651,
            "contract": "contracts/Stream.sol:Stream",
            "label": "pauseBy",
            "offset": 0,
            "slot": "2",
            "type": "t_address"
          },
          {
            "astId": 3653,
            "contract": "contracts/Stream.sol:Stream",
            "label": "isPaused",
            "offset": 20,
            "slot": "2",
            "type": "t_bool"
          }
        ],
        "numberOfBytes": "96"
      },
      "t_struct(Stream)3628_storage": {
        "encoding": "inplace",
        "label": "struct Struct.Stream",
        "members": [
          {
            "astId": 3588,
            "contract": "contracts/Stream.sol:Stream",
            "label": "onBehalfOf",
            "offset": 0,
            "slot": "0",
            "type": "t_address"
          },
          {
            "astId": 3590,
            "contract": "contracts/Stream.sol:Stream",
            "label": "sender",
            "offset": 0,
            "slot": "1",
            "type": "t_address"
          },
          {
            "astId": 3592,
            "contract": "contracts/Stream.sol:Stream",
            "label": "recipient",
            "offset": 0,
            "slot": "2",
            "type": "t_address"
          },
          {
            "astId": 3594,
            "contract": "contracts/Stream.sol:Stream",
            "label": "deposit",
            "offset": 0,
            "slot": "3",
            "type": "t_uint256"
          },
          {
            "astId": 3596,
            "contract": "contracts/Stream.sol:Stream",
            "label": "tokenAddress",
            "offset": 0,
            "slot": "4",
            "type": "t_address"
          },
          {
            "astId": 3598,
            "contract": "contracts/Stream.sol:Stream",
            "label": "startTime",
            "offset": 0,
            "slot": "5",
            "type": "t_uint256"
          },
          {
            "astId": 3600,
            "contract": "contracts/Stream.sol:Stream",
            "label": "stopTime",
            "offset": 0,
            "slot": "6",
            "type": "t_uint256"
          },
          {
            "astId": 3602,
            "contract": "contracts/Stream.sol:Stream",
            "label": "interval",
            "offset": 0,
            "slot": "7",
            "type": "t_uint256"
          },
          {
            "astId": 3604,
            "contract": "contracts/Stream.sol:Stream",
            "label": "ratePerInterval",
            "offset": 0,
            "slot": "8",
            "type": "t_uint256"
          },
          {
            "astId": 3606,
            "contract": "contracts/Stream.sol:Stream",
            "label": "remainingBalance",
            "offset": 0,
            "slot": "9",
            "type": "t_uint256"
          },
          {
            "astId": 3608,
            "contract": "contracts/Stream.sol:Stream",
            "label": "lastWithdrawTime",
            "offset": 0,
            "slot": "10",
            "type": "t_uint256"
          },
          {
            "astId": 3610,
            "contract": "contracts/Stream.sol:Stream",
            "label": "createAt",
            "offset": 0,
            "slot": "11",
            "type": "t_uint256"
          },
          {
            "astId": 3612,
            "contract": "contracts/Stream.sol:Stream",
            "label": "autoWithdrawInterval",
            "offset": 0,
            "slot": "12",
            "type": "t_uint256"
          },
          {
            "astId": 3614,
            "contract": "contracts/Stream.sol:Stream",
            "label": "autoWithdraw",
            "offset": 0,
            "slot": "13",
            "type": "t_bool"
          },
          {
            "astId": 3616,
            "contract": "contracts/Stream.sol:Stream",
            "label": "closed",
            "offset": 1,
            "slot": "13",
            "type": "t_bool"
          },
          {
            "astId": 3618,
            "contract": "contracts/Stream.sol:Stream",
            "label": "isEntity",
            "offset": 2,
            "slot": "13",
            "type": "t_bool"
          },
          {
            "astId": 3621,
            "contract": "contracts/Stream.sol:Stream",
            "label": "cliffInfo",
            "offset": 0,
            "slot": "14",
            "type": "t_struct(CliffInfo)3635_storage"
          },
          {
            "astId": 3624,
            "contract": "contracts/Stream.sol:Stream",
            "label": "featureInfo",
            "offset": 0,
            "slot": "17",
            "type": "t_struct(FeatureInfo)3645_storage"
          },
          {
            "astId": 3627,
            "contract": "contracts/Stream.sol:Stream",
            "label": "pauseInfo",
            "offset": 0,
            "slot": "18",
            "type": "t_struct(PauseInfo)3654_storage"
          }
        ],
        "numberOfBytes": "672"
      },
      "t_uint256": {
        "encoding": "inplace",
        "label": "uint256",
        "numberOfBytes": "32"
      }
    }
  }
}