{"abi":[{"type":"constructor","inputs":[],"stateMutability":"nonpayable"},{"type":"function","name":"DOMAIN_SEPARATOR","inputs":[],"outputs":[{"name":"","type":"bytes32","internalType":"bytes32"}],"stateMutability":"view"},{"type":"function","name":"allowance","inputs":[{"name":"owner","type":"address","internalType":"address"},{"name":"spender","type":"address","internalType":"address"}],"outputs":[{"name":"","type":"uint256","internalType":"uint256"}],"stateMutability":"view"},{"type":"function","name":"approve","inputs":[{"name":"spender","type":"address","internalType":"address"},{"name":"amount","type":"uint256","internalType":"uint256"}],"outputs":[{"name":"","type":"bool","internalType":"bool"}],"stateMutability":"nonpayable"},{"type":"function","name":"balanceOf","inputs":[{"name":"account","type":"address","internalType":"address"}],"outputs":[{"name":"","type":"uint256","internalType":"uint256"}],"stateMutability":"view"},{"type":"function","name":"decimals","inputs":[],"outputs":[{"name":"","type":"uint8","internalType":"uint8"}],"stateMutability":"view"},{"type":"function","name":"decreaseAllowance","inputs":[{"name":"spender","type":"address","internalType":"address"},{"name":"subtractedValue","type":"uint256","internalType":"uint256"}],"outputs":[{"name":"","type":"bool","internalType":"bool"}],"stateMutability":"nonpayable"},{"type":"function","name":"eip712Domain","inputs":[],"outputs":[{"name":"fields","type":"bytes1","internalType":"bytes1"},{"name":"name","type":"string","internalType":"string"},{"name":"version","type":"string","internalType":"string"},{"name":"chainId","type":"uint256","internalType":"uint256"},{"name":"verifyingContract","type":"address","internalType":"address"},{"name":"salt","type":"bytes32","internalType":"bytes32"},{"name":"extensions","type":"uint256[]","internalType":"uint256[]"}],"stateMutability":"view"},{"type":"function","name":"increaseAllowance","inputs":[{"name":"spender","type":"address","internalType":"address"},{"name":"addedValue","type":"uint256","internalType":"uint256"}],"outputs":[{"name":"","type":"bool","internalType":"bool"}],"stateMutability":"nonpayable"},{"type":"function","name":"name","inputs":[],"outputs":[{"name":"","type":"string","internalType":"string"}],"stateMutability":"view"},{"type":"function","name":"nonces","inputs":[{"name":"owner","type":"address","internalType":"address"}],"outputs":[{"name":"","type":"uint256","internalType":"uint256"}],"stateMutability":"view"},{"type":"function","name":"permit","inputs":[{"name":"owner","type":"address","internalType":"address"},{"name":"spender","type":"address","internalType":"address"},{"name":"value","type":"uint256","internalType":"uint256"},{"name":"deadline","type":"uint256","internalType":"uint256"},{"name":"v","type":"uint8","internalType":"uint8"},{"name":"r","type":"bytes32","internalType":"bytes32"},{"name":"s","type":"bytes32","internalType":"bytes32"}],"outputs":[],"stateMutability":"nonpayable"},{"type":"function","name":"symbol","inputs":[],"outputs":[{"name":"","type":"string","internalType":"string"}],"stateMutability":"view"},{"type":"function","name":"totalSupply","inputs":[],"outputs":[{"name":"","type":"uint256","internalType":"uint256"}],"stateMutability":"view"},{"type":"function","name":"transfer","inputs":[{"name":"to","type":"address","internalType":"address"},{"name":"amount","type":"uint256","internalType":"uint256"}],"outputs":[{"name":"","type":"bool","internalType":"bool"}],"stateMutability":"nonpayable"},{"type":"function","name":"transferFrom","inputs":[{"name":"from","type":"address","internalType":"address"},{"name":"to","type":"address","internalType":"address"},{"name":"amount","type":"uint256","internalType":"uint256"}],"outputs":[{"name":"","type":"bool","internalType":"bool"}],"stateMutability":"nonpayable"},{"type":"event","name":"Approval","inputs":[{"name":"owner","type":"address","indexed":true,"internalType":"address"},{"name":"spender","type":"address","indexed":true,"internalType":"address"},{"name":"value","type":"uint256","indexed":false,"internalType":"uint256"}],"anonymous":false},{"type":"event","name":"EIP712DomainChanged","inputs":[],"anonymous":false},{"type":"event","name":"Transfer","inputs":[{"name":"from","type":"address","indexed":true,"internalType":"address"},{"name":"to","type":"address","indexed":true,"internalType":"address"},{"name":"value","type":"uint256","indexed":false,"internalType":"uint256"}],"anonymous":false},{"type":"error","name":"InvalidShortString","inputs":[]},{"type":"error","name":"StringTooLong","inputs":[{"name":"str","type":"string","internalType":"string"}]}],"bytecode":{"object":"0x610160604052348015610010575f80fd5b50604051806040016040528060088152602001674d6f636b5553444360c01b81525080604051806040016040528060018152602001603160f81b815250604051806040016040528060098152602001684d6f636b205553444360b81b815250604051806040016040528060088152602001674d6f636b5553444360c01b815250816003908161009f9190610349565b5060046100ac8282610349565b506100bc9150839050600561017c565b610120526100cb81600661017c565b61014052815160208084019190912060e052815190820120610100524660a05261015760e05161010051604080517f8b73c3c69bb8fe3d512ecc4cf759cc79239f7b179b0ffacaa9a75d522b39400f60208201529081019290925260608201524660808201523060a08201525f9060c00160405160208183030381529060405280519060200120905090565b60805250503060c05250610177336b033b2e3c9fd0803ce80000006101ae565b61047f565b5f6020835110156101975761019083610270565b90506101a8565b816101a28482610349565b5060ff90505b92915050565b6001600160a01b0382166102095760405162461bcd60e51b815260206004820152601f60248201527f45524332303a206d696e7420746f20746865207a65726f20616464726573730060448201526064015b60405180910390fd5b8060025f82825461021a9190610408565b90915550506001600160a01b0382165f81815260208181526040808320805486019055518481527fddf252ad1be2c89b69c2b068fc378daa952ba7f163c4a11628f55a4df523b3ef910160405180910390a35050565b5f80829050601f8151111561029a578260405163305a27a960e01b81526004016102009190610427565b80516102a58261045c565b179392505050565b505050565b634e487b7160e01b5f52604160045260245ffd5b600181811c908216806102da57607f821691505b6020821081036102f857634e487b7160e01b5f52602260045260245ffd5b50919050565b601f8211156102ad57805f5260205f20601f840160051c810160208510156103235750805b601f840160051c820191505b81811015610342575f815560010161032f565b5050505050565b81516001600160401b03811115610362576103626102b2565b6103768161037084546102c6565b846102fe565b602080601f8311600181146103a9575f84156103925750858301515b5f19600386901b1c1916600185901b178555610400565b5f85815260208120601f198616915b828110156103d7578886015182559484019460019091019084016103b8565b50858210156103f457878501515f19600388901b60f8161c191681555b505060018460011b0185555b505050505050565b808201808211156101a857634e487b7160e01b5f52601160045260245ffd5b602081525f82518060208401528060208501604085015e5f604082850101526040601f19601f83011684010191505092915050565b805160208083015191908110156102f8575f1960209190910360031b1b16919050565b60805160a05160c05160e0516101005161012051610140516110966104d05f395f61038001525f61035501525f610a0b01525f6109e301525f61093e01525f61096801525f61099201526110965ff3fe608060405234801561000f575f80fd5b50600436106100f0575f3560e01c806370a0823111610093578063a457c2d711610063578063a457c2d7146101e2578063a9059cbb146101f5578063d505accf14610208578063dd62ed3e1461021d575f80fd5b806370a08231146101845780637ecebe00146101ac57806384b0196e146101bf57806395d89b41146101da575f80fd5b806323b872dd116100ce57806323b872dd14610147578063313ce5671461015a5780633644e515146101695780633950935114610171575f80fd5b806306fdde03146100f4578063095ea7b31461011257806318160ddd14610135575b5f80fd5b6100fc610230565b6040516101099190610e18565b60405180910390f35b610125610120366004610e4c565b6102c0565b6040519015158152602001610109565b6002545b604051908152602001610109565b610125610155366004610e74565b6102d9565b60405160128152602001610109565b6101396102fc565b61012561017f366004610e4c565b61030a565b610139610192366004610ead565b6001600160a01b03165f9081526020819052604090205490565b6101396101ba366004610ead565b61032b565b6101c7610348565b6040516101099796959493929190610ec6565b6100fc6103cf565b6101256101f0366004610e4c565b6103de565b610125610203366004610e4c565b61045d565b61021b610216366004610f5d565b61046a565b005b61013961022b366004610fca565b6105cb565b60606003805461023f90610ffb565b80601f016020809104026020016040519081016040528092919081815260200182805461026b90610ffb565b80156102b65780601f1061028d576101008083540402835291602001916102b6565b820191905f5260205f20905b81548152906001019060200180831161029957829003601f168201915b5050505050905090565b5f336102cd8185856105f5565b60019150505b92915050565b5f336102e6858285610718565b6102f1858585610790565b506001949350505050565b5f610305610932565b905090565b5f336102cd81858561031c83836105cb565b610326919061102d565b6105f5565b6001600160a01b0381165f908152600760205260408120546102d3565b5f6060808280808361037b7f00000000000000000000000000000000000000000000000000000000000000006005610a5b565b6103a67f00000000000000000000000000000000000000000000000000000000000000006006610a5b565b604080515f80825260208201909252600f60f81b9b939a50919850469750309650945092509050565b60606004805461023f90610ffb565b5f33816103eb82866105cb565b9050838110156104505760405162461bcd60e51b815260206004820152602560248201527f45524332303a2064656372656173656420616c6c6f77616e63652062656c6f77604482015264207a65726f60d81b60648201526084015b60405180910390fd5b6102f182868684036105f5565b5f336102cd818585610790565b834211156104ba5760405162461bcd60e51b815260206004820152601d60248201527f45524332305065726d69743a206578706972656420646561646c696e650000006044820152606401610447565b5f7f6e71edae12b1b97f4d1f60370fef10105fa2faae0126114a169c64845d6126c98888886104e88c610b04565b6040805160208101969096526001600160a01b0394851690860152929091166060840152608083015260a082015260c0810186905260e0016040516020818303038152906040528051906020012090505f61054282610b2b565b90505f61055182878787610b57565b9050896001600160a01b0316816001600160a01b0316146105b45760405162461bcd60e51b815260206004820152601e60248201527f45524332305065726d69743a20696e76616c6964207369676e617475726500006044820152606401610447565b6105bf8a8a8a6105f5565b50505050505050505050565b6001600160a01b039182165f90815260016020908152604080832093909416825291909152205490565b6001600160a01b0383166106575760405162461bcd60e51b8152602060048201526024808201527f45524332303a20617070726f76652066726f6d20746865207a65726f206164646044820152637265737360e01b6064820152608401610447565b6001600160a01b0382166106b85760405162461bcd60e51b815260206004820152602260248201527f45524332303a20617070726f766520746f20746865207a65726f206164647265604482015261737360f01b6064820152608401610447565b6001600160a01b038381165f8181526001602090815260408083209487168084529482529182902085905590518481527f8c5be1e5ebec7d5bd14f71427d1e84f3dd0314c0f7b2291e5b200ac8c7c3b925910160405180910390a3505050565b5f61072384846105cb565b90505f19811461078a578181101561077d5760405162461bcd60e51b815260206004820152601d60248201527f45524332303a20696e73756666696369656e7420616c6c6f77616e63650000006044820152606401610447565b61078a84848484036105f5565b50505050565b6001600160a01b0383166107f45760405162461bcd60e51b815260206004820152602560248201527f45524332303a207472616e736665722066726f6d20746865207a65726f206164604482015264647265737360d81b6064820152608401610447565b6001600160a01b0382166108565760405162461bcd60e51b815260206004820152602360248201527f45524332303a207472616e7366657220746f20746865207a65726f206164647260448201526265737360e81b6064820152608401610447565b6001600160a01b0383165f90815260208190526040902054818110156108cd5760405162461bcd60e51b815260206004820152602660248201527f45524332303a207472616e7366657220616d6f756e7420657863656564732062604482015265616c616e636560d01b6064820152608401610447565b6001600160a01b038481165f81815260208181526040808320878703905593871680835291849020805487019055925185815290927fddf252ad1be2c89b69c2b068fc378daa952ba7f163c4a11628f55a4df523b3ef910160405180910390a361078a565b5f306001600160a01b037f00000000000000000000000000000000000000000000000000000000000000001614801561098a57507f000000000000000000000000000000000000000000000000000000000000000046145b156109b457507f000000000000000000000000000000000000000000000000000000000000000090565b610305604080517f8b73c3c69bb8fe3d512ecc4cf759cc79239f7b179b0ffacaa9a75d522b39400f60208201527f0000000000000000000000000000000000000000000000000000000000000000918101919091527f000000000000000000000000000000000000000000000000000000000000000060608201524660808201523060a08201525f9060c00160405160208183030381529060405280519060200120905090565b606060ff8314610a7557610a6e83610b7d565b90506102d3565b818054610a8190610ffb565b80601f0160208091040260200160405190810160405280929190818152602001828054610aad90610ffb565b8015610af85780601f10610acf57610100808354040283529160200191610af8565b820191905f5260205f20905b815481529060010190602001808311610adb57829003601f168201915b505050505090506102d3565b6001600160a01b0381165f9081526007602052604090208054600181018255905b50919050565b5f6102d3610b37610932565b8360405161190160f01b8152600281019290925260228201526042902090565b5f805f610b6687878787610bba565b91509150610b7381610c77565b5095945050505050565b60605f610b8983610dc3565b6040805160208082528183019092529192505f91906020820181803683375050509182525060208101929092525090565b5f807f7fffffffffffffffffffffffffffffff5d576e7357a4501ddfe92f46681b20a0831115610bef57505f90506003610c6e565b604080515f8082526020820180845289905260ff881692820192909252606081018690526080810185905260019060a0016020604051602081039080840390855afa158015610c40573d5f803e3d5ffd5b5050604051601f1901519150506001600160a01b038116610c68575f60019250925050610c6e565b91505f90505b94509492505050565b5f816004811115610c8a57610c8a61104c565b03610c925750565b6001816004811115610ca657610ca661104c565b03610cf35760405162461bcd60e51b815260206004820152601860248201527f45434453413a20696e76616c6964207369676e617475726500000000000000006044820152606401610447565b6002816004811115610d0757610d0761104c565b03610d545760405162461bcd60e51b815260206004820152601f60248201527f45434453413a20696e76616c6964207369676e6174757265206c656e677468006044820152606401610447565b6003816004811115610d6857610d6861104c565b03610dc05760405162461bcd60e51b815260206004820152602260248201527f45434453413a20696e76616c6964207369676e6174757265202773272076616c604482015261756560f01b6064820152608401610447565b50565b5f60ff8216601f8111156102d357604051632cd44ac360e21b815260040160405180910390fd5b5f81518084528060208401602086015e5f602082860101526020601f19601f83011685010191505092915050565b602081525f610e2a6020830184610dea565b9392505050565b80356001600160a01b0381168114610e47575f80fd5b919050565b5f8060408385031215610e5d575f80fd5b610e6683610e31565b946020939093013593505050565b5f805f60608486031215610e86575f80fd5b610e8f84610e31565b9250610e9d60208501610e31565b9150604084013590509250925092565b5f60208284031215610ebd575f80fd5b610e2a82610e31565b60ff60f81b881681525f602060e06020840152610ee660e084018a610dea565b8381036040850152610ef8818a610dea565b606085018990526001600160a01b038816608086015260a0850187905284810360c0860152855180825260208088019350909101905f5b81811015610f4b57835183529284019291840191600101610f2f565b50909c9b505050505050505050505050565b5f805f805f805f60e0888a031215610f73575f80fd5b610f7c88610e31565b9650610f8a60208901610e31565b95506040880135945060608801359350608088013560ff81168114610fad575f80fd5b9699959850939692959460a0840135945060c09093013592915050565b5f8060408385031215610fdb575f80fd5b610fe483610e31565b9150610ff260208401610e31565b90509250929050565b600181811c9082168061100f57607f821691505b602082108103610b2557634e487b7160e01b5f52602260045260245ffd5b808201808211156102d357634e487b7160e01b5f52601160045260245ffd5b634e487b7160e01b5f52602160045260245ffdfea2646970667358221220bab733c68ecd600c5107ccbf17bc80a9663460539ad4328cab5465099abffead64736f6c63430008190033","linkReferences":{}},"methodIdentifiers":{"DOMAIN_SEPARATOR()":"3644e515","allowance(address,address)":"dd62ed3e","approve(address,uint256)":"095ea7b3","balanceOf(address)":"70a08231","decimals()":"313ce567","decreaseAllowance(address,uint256)":"a457c2d7","eip712Domain()":"84b0196e","increaseAllowance(address,uint256)":"39509351","name()":"06fdde03","nonces(address)":"7ecebe00","permit(address,address,uint256,uint256,uint8,bytes32,bytes32)":"d505accf","symbol()":"95d89b41","totalSupply()":"18160ddd","transfer(address,uint256)":"a9059cbb","transferFrom(address,address,uint256)":"23b872dd"},"id":1}