{
  "abi": [
    {
      "type": "constructor",
      "inputs": [
        {
          "name": "_weth",
          "type": "address",
          "internalType": "address"
        },
        {
          "name": "_stream",
          "type": "address",
          "internalType": "contract IStream"
        }
      ],
      "stateMutability": "nonpayable"
    },
    {
      "type": "fallback",
      "stateMutability": "payable"
    },
    {
      "type": "receive",
      "stateMutability": "payable"
    },
    {
      "type": "function",
      "name": "claimFromMultipleStreamsETH",
      "inputs": [
        {
          "name": "streamIds",
          "type": "uint256[]",
          "internalType": "uint256[]"
        }
      ],
      "outputs": [],
      "stateMutability": "nonpayable"
    },
    {
      "type": "function",
      "name": "claimFromStreamETH",
      "inputs": [
        {
          "name": "streamId",
          "type": "uint256",
          "internalType": "uint256"
        }
      ],
      "outputs": [],
      "stateMutability": "nonpayable"
    },
    {
      "type": "function",
      "name": "createMultipleStreamsETH",
      "inputs": [
        {
          "name": "params",
          "type": "tuple[]",
          "internalType": "struct StreamStructs.initializeStreamData[]",
          "components": [
            {
              "name": "sender",
              "type": "address",
              "internalType": "address"
            },
            {
              "name": "recipient",
              "type": "address",
              "internalType": "address"
            },
            {
              "name": "deposit",
              "type": "uint256",
              "internalType": "uint256"
            },
            {
              "name": "tokenAddress",
              "type": "address",
              "internalType": "address"
            },
            {
              "name": "startTime",
              "type": "uint256",
              "internalType": "uint256"
            },
            {
              "name": "stopTime",
              "type": "uint256",
              "internalType": "uint256"
            },
            {
              "name": "interval",
              "type": "uint256",
              "internalType": "uint256"
            },
            {
              "name": "cliffAmount",
              "type": "uint256",
              "internalType": "uint256"
            },
            {
              "name": "cliffTime",
              "type": "uint256",
              "internalType": "uint256"
            },
            {
              "name": "autoWithdrawInterval",
              "type": "uint256",
              "internalType": "uint256"
            },
            {
              "name": "autoWithdraw",
              "type": "bool",
              "internalType": "bool"
            },
            {
              "name": "pauseable",
              "type": "uint8",
              "internalType": "enum StreamStructs.Permission"
            },
            {
              "name": "closeable",
              "type": "uint8",
              "internalType": "enum StreamStructs.Permission"
            },
            {
              "name": "recipientModifiable",
              "type": "uint8",
              "internalType": "enum StreamStructs.Permission"
            }
          ]
        }
      ],
      "outputs": [],
      "stateMutability": "payable"
    },
    {
      "type": "function",
      "name": "emergencyEtherTransfer",
      "inputs": [
        {
          "name": "to",
          "type": "address",
          "internalType": "address"
        },
        {
          "name": "amount",
          "type": "uint256",
          "internalType": "uint256"
        }
      ],
      "outputs": [],
      "stateMutability": "nonpayable"
    },
    {
      "type": "function",
      "name": "emergencyTokenTransfer",
      "inputs": [
        {
          "name": "token",
          "type": "address",
          "internalType": "address"
        },
        {
          "name": "to",
          "type": "address",
          "internalType": "address"
        },
        {
          "name": "amount",
          "type": "uint256",
          "internalType": "uint256"
        }
      ],
      "outputs": [],
      "stateMutability": "nonpayable"
    },
    {
      "type": "function",
      "name": "getWETHAddress",
      "inputs": [],
      "outputs": [
        {
          "name": "",
          "type": "address",
          "internalType": "address"
        }
      ],
      "stateMutability": "view"
    },
    {
      "type": "function",
      "name": "haltMultipleStreamsETH",
      "inputs": [
        {
          "name": "streamIds",
          "type": "uint256[]",
          "internalType": "uint256[]"
        }
      ],
      "outputs": [],
      "stateMutability": "nonpayable"
    },
    {
      "type": "function",
      "name": "haltStreamETH",
      "inputs": [
        {
          "name": "streamId",
          "type": "uint256",
          "internalType": "uint256"
        }
      ],
      "outputs": [],
      "stateMutability": "nonpayable"
    },
    {
      "type": "function",
      "name": "initializeStreamETH",
      "inputs": [
        {
          "name": "params",
          "type": "tuple",
          "internalType": "struct StreamStructs.initializeStreamData",
          "components": [
            {
              "name": "sender",
              "type": "address",
              "internalType": "address"
            },
            {
              "name": "recipient",
              "type": "address",
              "internalType": "address"
            },
            {
              "name": "deposit",
              "type": "uint256",
              "internalType": "uint256"
            },
            {
              "name": "tokenAddress",
              "type": "address",
              "internalType": "address"
            },
            {
              "name": "startTime",
              "type": "uint256",
              "internalType": "uint256"
            },
            {
              "name": "stopTime",
              "type": "uint256",
              "internalType": "uint256"
            },
            {
              "name": "interval",
              "type": "uint256",
              "internalType": "uint256"
            },
            {
              "name": "cliffAmount",
              "type": "uint256",
              "internalType": "uint256"
            },
            {
              "name": "cliffTime",
              "type": "uint256",
              "internalType": "uint256"
            },
            {
              "name": "autoWithdrawInterval",
              "type": "uint256",
              "internalType": "uint256"
            },
            {
              "name": "autoWithdraw",
              "type": "bool",
              "internalType": "bool"
            },
            {
              "name": "pauseable",
              "type": "uint8",
              "internalType": "enum StreamStructs.Permission"
            },
            {
              "name": "closeable",
              "type": "uint8",
              "internalType": "enum StreamStructs.Permission"
            },
            {
              "name": "recipientModifiable",
              "type": "uint8",
              "internalType": "enum StreamStructs.Permission"
            }
          ]
        }
      ],
      "outputs": [],
      "stateMutability": "payable"
    },
    {
      "type": "function",
      "name": "owner",
      "inputs": [],
      "outputs": [
        {
          "name": "",
          "type": "address",
          "internalType": "address"
        }
      ],
      "stateMutability": "view"
    },
    {
      "type": "function",
      "name": "prolongMultipleStreamsETH",
      "inputs": [
        {
          "name": "streamIds",
          "type": "uint256[]",
          "internalType": "uint256[]"
        },
        {
          "name": "newStopTimes",
          "type": "uint256[]",
          "internalType": "uint256[]"
        }
      ],
      "outputs": [],
      "stateMutability": "payable"
    },
    {
      "type": "function",
      "name": "prolongStreamETH",
      "inputs": [
        {
          "name": "streamId",
          "type": "uint256",
          "internalType": "uint256"
        },
        {
          "name": "newStopTime",
          "type": "uint256",
          "internalType": "uint256"
        }
      ],
      "outputs": [],
      "stateMutability": "payable"
    },
    {
      "type": "function",
      "name": "renounceOwnership",
      "inputs": [],
      "outputs": [],
      "stateMutability": "nonpayable"
    },
    {
      "type": "function",
      "name": "terminateMultipleStreamsETH",
      "inputs": [
        {
          "name": "streamIds",
          "type": "uint256[]",
          "internalType": "uint256[]"
        }
      ],
      "outputs": [],
      "stateMutability": "nonpayable"
    },
    {
      "type": "function",
      "name": "terminateStreamETH",
      "inputs": [
        {
          "name": "streamId",
          "type": "uint256",
          "internalType": "uint256"
        }
      ],
      "outputs": [],
      "stateMutability": "nonpayable"
    },
    {
      "type": "function",
      "name": "transferOwnership",
      "inputs": [
        {
          "name": "newOwner",
          "type": "address",
          "internalType": "address"
        }
      ],
      "outputs": [],
      "stateMutability": "nonpayable"
    },
    {
      "type": "event",
      "name": "OwnershipTransferred",
      "inputs": [
        {
          "name": "previousOwner",
          "type": "address",
          "indexed": true,
          "internalType": "address"
        },
        {
          "name": "newOwner",
          "type": "address",
          "indexed": true,
          "internalType": "address"
        }
      ],
      "anonymous": false
    },
    {
      "type": "error",
      "name": "ArrayLengthMismatch",
      "inputs": []
    },
    {
      "type": "error",
      "name": "FallbackNotAllowed",
      "inputs": []
    },
    {
      "type": "error",
      "name": "InvalidStopTime",
      "inputs": []
    },
    {
      "type": "error",
      "name": "InvalidTokenAddress",
      "inputs": []
    },
    {
      "type": "error",
      "name": "TransferFailed",
      "inputs": []
    },
    {
      "type": "error",
      "name": "UnauthorizedReceiver",
      "inputs": []
    }
  ],
  "bytecode": {
    "object": "0x60c060405234801561000f575f80fd5b5060405161340538038061340583398101604081905261002e91610126565b610037336100c0565b600180556001600160a01b03828116608081905290821660a081905260405163095ea7b360e01b815260048101919091525f19602482015263095ea7b3906044016020604051808303815f875af1158015610094573d5f803e3d5ffd5b505050506040513d601f19601f820116820180604052508101906100b8919061015e565b505050610184565b5f80546001600160a01b038381166001600160a01b0319831681178455604051919092169283917f8be0079c531659141344cd1fd0a4f28419497f9722a3daafe3b4186f6b6457e09190a35050565b6001600160a01b0381168114610123575f80fd5b50565b5f8060408385031215610137575f80fd5b82516101428161010f565b60208401519092506101538161010f565b809150509250929050565b5f6020828403121561016e575f80fd5b8151801515811461017d575f80fd5b9392505050565b60805160a0516130e661031f5f395f818161013a015281816103bc0152818161042c0152818161053a015281816105aa015281816106a801528181610718015281816107fa0152818161086a0152818161091501528181610a2301528181610b6a01528181610c5901528181610cc901528181610de801528181610e580152818161106b015281816110fe0152818161118901528181611243015281816113a30152818161141a015281816114d4015281816116080152818161167f01528181611739015281816117e7015281816118d101528181611b4b01528181611bbb01528181611dfe01528181611ec001528181611f2e015281816120ff0152818161226b015281816122f801526124dd01525f8181610106015281816102cc01528181610392015281816105100152818161067e015281816107d00152818161099b01528181610aea01528181610c2f01528181610dbe015281816112a40152818161156d015281816119ec01528181611b2101528181611c7301528181611e930152818161207f015281816121cd015261246d01526130e65ff3fe6080604052600436106100f6575f3560e01c806392f14f6811610089578063cb8ac71c11610058578063cb8ac71c1461030f578063e5ac388514610322578063eed88b8d14610335578063f2fde38b146103545761017d565b806392f14f6814610280578063a3d5b2551461029f578063affa8817146102be578063c872c725146102f05761017d565b8063299b8202116100c5578063299b8202146102125780633e6f79f414610225578063715018a6146102385780638da5cb5b1461024c5761017d565b80630388ecdc146101965780631d875353146101b55780631e7451d2146101d457806328ec1fa6146101f35761017d565b3661017d57336001600160a01b037f0000000000000000000000000000000000000000000000000000000000000000161480159061015d5750336001600160a01b037f00000000000000000000000000000000000000000000000000000000000000001614155b1561017b576040516379f0ddd560e01b815260040160405180910390fd5b005b604051630deab4c360e41b815260040160405180910390fd5b3480156101a1575f80fd5b5061017b6101b0366004612969565b610373565b3480156101c0575f80fd5b5061017b6101cf366004612969565b6104f1565b3480156101df575f80fd5b5061017b6101ee3660046129a8565b61065f565b3480156101fe575f80fd5b5061017b61020d3660046129a8565b6107b1565b61017b6102203660046129bf565b6108f5565b61017b6102333660046129df565b610a9c565b348015610243575f80fd5b5061017b610bfd565b348015610257575f80fd5b505f546001600160a01b03165b6040516001600160a01b03909116815260200160405180910390f35b34801561028b575f80fd5b5061017b61029a366004612969565b610c10565b3480156102aa575f80fd5b5061017b6102b9366004612a0a565b610d7e565b3480156102c9575f80fd5b507f0000000000000000000000000000000000000000000000000000000000000000610264565b3480156102fb575f80fd5b5061017b61030a3660046129a8565b610d9f565b61017b61031d366004612a48565b610ee3565b61017b610330366004612ab8565b610f14565b348015610340575f80fd5b5061017b61034f366004612b1f565b610f6d565b34801561035f575f80fd5b5061017b61036e366004612b49565b610f7f565b61037b610ffa565b6040516328b9031160e21b81526001600160a01b037f0000000000000000000000000000000000000000000000000000000000000000811660048301525f917f00000000000000000000000000000000000000000000000000000000000000009091169063a2e40c4490602401602060405180830381865afa158015610403573d5f803e3d5ffd5b505050506040513d601f19601f820116820180604052508101906104279190612b64565b90505f7f00000000000000000000000000000000000000000000000000000000000000006001600160a01b031663469048406040518163ffffffff1660e01b8152600401602060405180830381865afa158015610486573d5f803e3d5ffd5b505050506040513d601f19601f820116820180604052508101906104aa9190612b8b565b90505f5b838110156104e1576104d98585838181106104cb576104cb612ba6565b905060200201358484611053565b6001016104ae565b5050506104ed60018055565b5050565b6104f9610ffa565b6040516328b9031160e21b81526001600160a01b037f0000000000000000000000000000000000000000000000000000000000000000811660048301525f917f00000000000000000000000000000000000000000000000000000000000000009091169063a2e40c4490602401602060405180830381865afa158015610581573d5f803e3d5ffd5b505050506040513d601f19601f820116820180604052508101906105a59190612b64565b90505f7f00000000000000000000000000000000000000000000000000000000000000006001600160a01b031663469048406040518163ffffffff1660e01b8152600401602060405180830381865afa158015610604573d5f803e3d5ffd5b505050506040513d601f19601f820116820180604052508101906106289190612b8b565b90505f5b838110156104e15761065785858381811061064957610649612ba6565b90506020020135848461138b565b60010161062c565b610667610ffa565b6040516328b9031160e21b81526001600160a01b037f0000000000000000000000000000000000000000000000000000000000000000811660048301525f917f00000000000000000000000000000000000000000000000000000000000000009091169063a2e40c4490602401602060405180830381865afa1580156106ef573d5f803e3d5ffd5b505050506040513d601f19601f820116820180604052508101906107139190612b64565b90505f7f00000000000000000000000000000000000000000000000000000000000000006001600160a01b031663469048406040518163ffffffff1660e01b8152600401602060405180830381865afa158015610772573d5f803e3d5ffd5b505050506040513d601f19601f820116820180604052508101906107969190612b8b565b90506107a38383836115f0565b50506107ae60018055565b50565b6107b9610ffa565b6040516328b9031160e21b81526001600160a01b037f0000000000000000000000000000000000000000000000000000000000000000811660048301525f917f00000000000000000000000000000000000000000000000000000000000000009091169063a2e40c4490602401602060405180830381865afa158015610841573d5f803e3d5ffd5b505050506040513d601f19601f820116820180604052508101906108659190612b64565b90505f7f00000000000000000000000000000000000000000000000000000000000000006001600160a01b031663469048406040518163ffffffff1660e01b8152600401602060405180830381865afa1580156108c4573d5f803e3d5ffd5b505050506040513d601f19601f820116820180604052508101906108e89190612b8b565b90506107a383838361138b565b6108fd610ffa565b60405163894e9a0d60e01b8152600481018390525f907f00000000000000000000000000000000000000000000000000000000000000006001600160a01b03169063894e9a0d9060240161034060405180830381865afa158015610963573d5f803e3d5ffd5b505050506040513d601f19601f820116820180604052508101906109879190612d4f565b90505f806109958385611770565b915091507f00000000000000000000000000000000000000000000000000000000000000006001600160a01b031663d0e30db0836040518263ffffffff1660e01b81526004015f604051808303818588803b1580156109f2575f80fd5b505af1158015610a04573d5f803e3d5ffd5b50506040516350e5099f60e11b815260048101899052602481018890527f00000000000000000000000000000000000000000000000000000000000000006001600160a01b0316935063a1ca133e92508491506044015f604051808303818588803b158015610a71575f80fd5b505af1158015610a83573d5f803e3d5ffd5b50505050506104e18183610a979190612e91565b61189a565b610aa4610ffa565b5f610ab56080830160608401612b49565b6001600160a01b031614610adc57604051630f58058360e11b815260040160405180910390fd5b5f610ae6826118b0565b90507f00000000000000000000000000000000000000000000000000000000000000006001600160a01b031663d0e30db083604001356040518263ffffffff1660e01b81526004015f604051808303818588803b158015610b45575f80fd5b505af1158015610b57573d5f803e3d5ffd5b50505050505f610b668361198f565b90507f00000000000000000000000000000000000000000000000000000000000000006001600160a01b0316632b501d9783836040518363ffffffff1660e01b8152600401610bb59190612ede565b5f604051808303818588803b158015610bcc575f80fd5b505af1158015610bde573d5f803e3d5ffd5b5050505050610bec83611aed565b6107a3610a97836040860135612e91565b610c05611cff565b610c0e5f611d58565b565b610c18610ffa565b6040516328b9031160e21b81526001600160a01b037f0000000000000000000000000000000000000000000000000000000000000000811660048301525f917f00000000000000000000000000000000000000000000000000000000000000009091169063a2e40c4490602401602060405180830381865afa158015610ca0573d5f803e3d5ffd5b505050506040513d601f19601f82011682018060405250810190610cc49190612b64565b90505f7f00000000000000000000000000000000000000000000000000000000000000006001600160a01b031663469048406040518163ffffffff1660e01b8152600401602060405180830381865afa158015610d23573d5f803e3d5ffd5b505050506040513d601f19601f82011682018060405250810190610d479190612b8b565b90505f5b838110156104e157610d76858583818110610d6857610d68612ba6565b9050602002013584846115f0565b600101610d4b565b610d86611cff565b610d9a6001600160a01b0384168383611da7565b505050565b610da7610ffa565b6040516328b9031160e21b81526001600160a01b037f0000000000000000000000000000000000000000000000000000000000000000811660048301525f917f00000000000000000000000000000000000000000000000000000000000000009091169063a2e40c4490602401602060405180830381865afa158015610e2f573d5f803e3d5ffd5b505050506040513d601f19601f82011682018060405250810190610e539190612b64565b90505f7f00000000000000000000000000000000000000000000000000000000000000006001600160a01b031663469048406040518163ffffffff1660e01b8152600401602060405180830381865afa158015610eb2573d5f803e3d5ffd5b505050506040513d601f19601f82011682018060405250810190610ed69190612b8b565b90506107a3838383611053565b610eeb610ffa565b5f80610ef78484611df9565b9092509050610f09610a978284612e91565b50506104ed60018055565b610f1c610ffa565b828114610f3c5760405163512509d360e11b815260040160405180910390fd5b5f80610f4a86868686612266565b9092509050610f5c610a978284612e91565b5050610f6760018055565b50505050565b610f75611cff565b6104ed82826125ac565b610f87611cff565b6001600160a01b038116610ff15760405162461bcd60e51b815260206004820152602660248201527f4f776e61626c653a206e6577206f776e657220697320746865207a65726f206160448201526564647265737360d01b60648201526084015b60405180910390fd5b6107ae81611d58565b60026001540361104c5760405162461bcd60e51b815260206004820152601f60248201527f5265656e7472616e637947756172643a207265656e7472616e742063616c6c006044820152606401610fe8565b6002600155565b60405163894e9a0d60e01b8152600481018490525f907f00000000000000000000000000000000000000000000000000000000000000006001600160a01b03169063894e9a0d9060240161034060405180830381865afa1580156110b9573d5f803e3d5ffd5b505050506040513d601f19601f820116820180604052508101906110dd9190612d4f565b6020810151604051631b2b776160e11b81529192505f916001600160a01b037f00000000000000000000000000000000000000000000000000000000000000001691633656eec2916111459189916004019182526001600160a01b0316602082015260400190565b602060405180830381865afa158015611160573d5f803e3d5ffd5b505050506040513d601f19601f820116820180604052508101906111849190612b64565b90505f7f00000000000000000000000000000000000000000000000000000000000000006001600160a01b0316633656eec28785604001516040518363ffffffff1660e01b81526004016111eb9291909182526001600160a01b0316602082015260400190565b602060405180830381865afa158015611206573d5f803e3d5ffd5b505050506040513d601f19601f8201168201806040525081019061122a9190612b64565b604051631d1b7b7760e01b8152600481018890529091507f00000000000000000000000000000000000000000000000000000000000000006001600160a01b031690631d1b7b77906024015f604051808303815f87803b15801561128c575f80fd5b505af115801561129e573d5f803e3d5ffd5b505050507f00000000000000000000000000000000000000000000000000000000000000006001600160a01b0316632e1a7d4d82846112dd9190612e91565b6040518263ffffffff1660e01b81526004016112fb91815260200190565b5f604051808303815f87803b158015611312575f80fd5b505af1158015611324573d5f803e3d5ffd5b505050505f82111561133e5761133e8360200151836125ac565b8015611383575f6127106113528784612fcb565b61135c9190612fe2565b9050611377846040015182846113729190613001565b6125ac565b61138185826125ac565b505b505050505050565b60405163894e9a0d60e01b8152600481018490525f907f00000000000000000000000000000000000000000000000000000000000000006001600160a01b03169063894e9a0d9060240161034060405180830381865afa1580156113f1573d5f803e3d5ffd5b505050506040513d601f19601f820116820180604052508101906114159190612d4f565b90505f7f00000000000000000000000000000000000000000000000000000000000000006001600160a01b0316633656eec28684604001516040518363ffffffff1660e01b815260040161147c9291909182526001600160a01b0316602082015260400190565b602060405180830381865afa158015611497573d5f803e3d5ffd5b505050506040513d601f19601f820116820180604052508101906114bb9190612b64565b60405163074b2fe960e31b8152600481018790529091507f00000000000000000000000000000000000000000000000000000000000000006001600160a01b031690633a597f48906024015b5f604051808303815f87803b15801561151e575f80fd5b505af1158015611530573d5f803e3d5ffd5b505050505f8111156115e9575f61271061154a8684612fcb565b6115549190612fe2565b604051632e1a7d4d60e01b8152600481018490529091507f00000000000000000000000000000000000000000000000000000000000000006001600160a01b031690632e1a7d4d906024015f604051808303815f87803b1580156115b6575f80fd5b505af11580156115c8573d5f803e3d5ffd5b50505060408401516115df91506113728385613001565b61138384826125ac565b5050505050565b60405163894e9a0d60e01b8152600481018490525f907f00000000000000000000000000000000000000000000000000000000000000006001600160a01b03169063894e9a0d9060240161034060405180830381865afa158015611656573d5f803e3d5ffd5b505050506040513d601f19601f8201168201806040525081019061167a9190612d4f565b90505f7f00000000000000000000000000000000000000000000000000000000000000006001600160a01b0316633656eec28684604001516040518363ffffffff1660e01b81526004016116e19291909182526001600160a01b0316602082015260400190565b602060405180830381865afa1580156116fc573d5f803e3d5ffd5b505050506040513d601f19601f820116820180604052508101906117209190612b64565b60405163746ff13d60e01b8152600481018790529091507f00000000000000000000000000000000000000000000000000000000000000006001600160a01b03169063746ff13d90602401611507565b5f805f8460c00151846117839190613001565b90505f8560e00151826117969190612fe2565b9050818660e00151826117a99190612fcb565b146117c757604051635f5ab34960e01b815260040160405180910390fd5b6101008601516117d79082612fcb565b9350856101a0015115611891575f7f00000000000000000000000000000000000000000000000000000000000000006001600160a01b031663855f1a8c6040518163ffffffff1660e01b8152600401602060405180830381865afa158015611841573d5f803e3d5ffd5b505050506040513d601f19601f820116820180604052508101906118659190612b64565b9050866101800151836118789190612fe2565b611883906001612e91565b61188d9082612fcb565b9350505b50509250929050565b803411156107ae576107ae336113728334613001565b5f6118c361016083016101408401613014565b6118ce57505f919050565b5f7f00000000000000000000000000000000000000000000000000000000000000006001600160a01b031663855f1a8c6040518163ffffffff1660e01b8152600401602060405180830381865afa15801561192b573d5f803e3d5ffd5b505050506040513d601f19601f8201168201806040525081019061194f9190612b64565b9050610120830135611969608085013560a0860135613001565b6119739190612fe2565b61197e906001612e91565b6119889082612fcb565b9392505050565b611997612893565b604080516101c08101909152806119b16020850185612b49565b6001600160a01b031681526020018360200160208101906119d29190612b49565b6001600160a01b03168152602001836040013581526020017f00000000000000000000000000000000000000000000000000000000000000006001600160a01b03168152602001836080013581526020018360a0013581526020018360c0013581526020018360e0013581526020018361010001358152602001836101200135815260200183610140016020810190611a6b9190613014565b15158152602001611a846101808501610160860161302f565b6003811115611a9557611a95612eaa565b8152602001611aac6101a08501610180860161302f565b6003811115611abd57611abd612eaa565b8152602001611ad46101c085016101a0860161302f565b6003811115611ae557611ae5612eaa565b905292915050565b4281610100013511158015611b0557505f8160e00135115b156107ae576040516328b9031160e21b81526001600160a01b037f0000000000000000000000000000000000000000000000000000000000000000811660048301525f917f00000000000000000000000000000000000000000000000000000000000000009091169063a2e40c4490602401602060405180830381865afa158015611b92573d5f803e3d5ffd5b505050506040513d601f19601f82011682018060405250810190611bb69190612b64565b90505f7f00000000000000000000000000000000000000000000000000000000000000006001600160a01b031663469048406040518163ffffffff1660e01b8152600401602060405180830381865afa158015611c15573d5f803e3d5ffd5b505050506040513d601f19601f82011682018060405250810190611c399190612b8b565b90505f612710611c4d8460e0870135612fcb565b611c579190612fe2565b604051632e1a7d4d60e01b815260e086013560048201529091507f00000000000000000000000000000000000000000000000000000000000000006001600160a01b031690632e1a7d4d906024015f604051808303815f87803b158015611cbc575f80fd5b505af1158015611cce573d5f803e3d5ffd5b50611cf59250611ce79150506040860160208701612b49565b6113728360e0880135613001565b610f6782826125ac565b5f546001600160a01b03163314610c0e5760405162461bcd60e51b815260206004820181905260248201527f4f776e61626c653a2063616c6c6572206973206e6f7420746865206f776e65726044820152606401610fe8565b5f80546001600160a01b038381166001600160a01b0319831681178455604051919092169283917f8be0079c531659141344cd1fd0a4f28419497f9722a3daafe3b4186f6b6457e09190a35050565b604080516001600160a01b038416602482015260448082018490528251808303909101815260649091019091526020810180516001600160e01b031663a9059cbb60e01b179052610d9a908490612636565b5f805f7f00000000000000000000000000000000000000000000000000000000000000006001600160a01b031663855f1a8c6040518163ffffffff1660e01b8152600401602060405180830381865afa158015611e58573d5f803e3d5ffd5b505050506040513d601f19601f82011682018060405250810190611e7c9190612b64565b6040516328b9031160e21b81526001600160a01b037f0000000000000000000000000000000000000000000000000000000000000000811660048301529192505f917f0000000000000000000000000000000000000000000000000000000000000000169063a2e40c4490602401602060405180830381865afa158015611f05573d5f803e3d5ffd5b505050506040513d601f19601f82011682018060405250810190611f299190612b64565b90505f7f00000000000000000000000000000000000000000000000000000000000000006001600160a01b031663469048406040518163ffffffff1660e01b8152600401602060405180830381865afa158015611f88573d5f803e3d5ffd5b505050506040513d601f19601f82011682018060405250810190611fac9190612b8b565b90505f5b8681101561225b5736888883818110611fcb57611fcb612ba6565b6101c0029190910191505f9050611fe86080830160608401612b49565b6001600160a01b03161461200f57604051630f58058360e11b815260040160405180910390fd5b5f61202261016083016101408401613014565b1561206d5761012082013561203f608084013560a0850135613001565b6120499190612fe2565b612054906001612e91565b61205e9087612fcb565b905061206a8188612e91565b96505b61207b604083013589612e91565b97507f00000000000000000000000000000000000000000000000000000000000000006001600160a01b031663d0e30db083604001356040518263ffffffff1660e01b81526004015f604051808303818588803b1580156120da575f80fd5b505af11580156120ec573d5f803e3d5ffd5b50505050505f6120fb8361198f565b90507f00000000000000000000000000000000000000000000000000000000000000006001600160a01b0316632b501d9783836040518363ffffffff1660e01b815260040161214a9190612ede565b5f604051808303818588803b158015612161575f80fd5b505af1158015612173573d5f803e3d5ffd5b5050505050428361010001351115801561219057505f8360e00135115b1561224d575f6127106121a78860e0870135612fcb565b6121b19190612fe2565b604051632e1a7d4d60e01b815260e086013560048201529091507f00000000000000000000000000000000000000000000000000000000000000006001600160a01b031690632e1a7d4d906024015f604051808303815f87803b158015612216575f80fd5b505af1158015612228573d5f803e3d5ffd5b506122419250611ce79150506040860160208701612b49565b61224b86826125ac565b505b505050806001019050611fb0565b505050509250929050565b5f805f7f00000000000000000000000000000000000000000000000000000000000000006001600160a01b031663855f1a8c6040518163ffffffff1660e01b8152600401602060405180830381865afa1580156122c5573d5f803e3d5ffd5b505050506040513d601f19601f820116820180604052508101906122e99190612b64565b90505f5b868110156125a1575f7f00000000000000000000000000000000000000000000000000000000000000006001600160a01b031663894e9a0d8a8a8581811061233757612337612ba6565b905060200201356040518263ffffffff1660e01b815260040161235c91815260200190565b61034060405180830381865afa158015612378573d5f803e3d5ffd5b505050506040513d601f19601f8201168201806040525081019061239c9190612d4f565b90505f8160c001518888858181106123b6576123b6612ba6565b905060200201356123c79190613001565b90505f8260e00151826123da9190612fe2565b9050818360e00151826123ed9190612fcb565b1461240b57604051635f5ab34960e01b815260040160405180910390fd5b5f8361010001518261241d9190612fcb565b90506124298189612e91565b97505f846101a001511561246b576101808501516124479085612fe2565b612452906001612e91565b61245c9088612fcb565b90506124688189612e91565b97505b7f00000000000000000000000000000000000000000000000000000000000000006001600160a01b031663d0e30db0836040518263ffffffff1660e01b81526004015f604051808303818588803b1580156124c4575f80fd5b505af11580156124d6573d5f803e3d5ffd5b50505050507f00000000000000000000000000000000000000000000000000000000000000006001600160a01b031663a1ca133e828f8f8a81811061251d5761251d612ba6565b905060200201358e8e8b81811061253657612536612ba6565b905060200201356040518463ffffffff1660e01b8152600401612563929190918252602082015260400190565b5f604051808303818588803b15801561257a575f80fd5b505af115801561258c573d5f803e3d5ffd5b505050505050505050508060010190506122ed565b505094509492505050565b604080515f808252602082019092526001600160a01b0384169083906040516125d5919061304a565b5f6040518083038185875af1925050503d805f811461260f576040519150601f19603f3d011682016040523d82523d5f602084013e612614565b606091505b5050905080610d9a576040516312171d8360e31b815260040160405180910390fd5b5f61268a826040518060400160405280602081526020017f5361666545524332303a206c6f772d6c6576656c2063616c6c206661696c6564815250856001600160a01b03166127099092919063ffffffff16565b905080515f14806126aa5750808060200190518101906126aa9190613060565b610d9a5760405162461bcd60e51b815260206004820152602a60248201527f5361666545524332303a204552433230206f7065726174696f6e20646964206e6044820152691bdd081cdd58d8d9595960b21b6064820152608401610fe8565b606061271784845f8561271f565b949350505050565b6060824710156127805760405162461bcd60e51b815260206004820152602660248201527f416464726573733a20696e73756666696369656e742062616c616e636520666f6044820152651c8818d85b1b60d21b6064820152608401610fe8565b5f80866001600160a01b0316858760405161279b919061304a565b5f6040518083038185875af1925050503d805f81146127d5576040519150601f19603f3d011682016040523d82523d5f602084013e6127da565b606091505b50915091506127eb878383876127f6565b979650505050505050565b606083156128645782515f0361285d576001600160a01b0385163b61285d5760405162461bcd60e51b815260206004820152601d60248201527f416464726573733a2063616c6c20746f206e6f6e2d636f6e74726163740000006044820152606401610fe8565b5081612717565b61271783838151156128795781518083602001fd5b8060405162461bcd60e51b8152600401610fe8919061307b565b604051806101c001604052805f6001600160a01b031681526020015f6001600160a01b031681526020015f81526020015f6001600160a01b031681526020015f81526020015f81526020015f81526020015f81526020015f81526020015f81526020015f151581526020015f600381111561291057612910612eaa565b81526020015f81526020015f905290565b5f8083601f840112612931575f80fd5b50813567ffffffffffffffff811115612948575f80fd5b6020830191508360208260051b8501011115612962575f80fd5b9250929050565b5f806020838503121561297a575f80fd5b823567ffffffffffffffff811115612990575f80fd5b61299c85828601612921565b90969095509350505050565b5f602082840312156129b8575f80fd5b5035919050565b5f80604083850312156129d0575f80fd5b50508035926020909101359150565b5f6101c082840312156129f0575f80fd5b50919050565b6001600160a01b03811681146107ae575f80fd5b5f805f60608486031215612a1c575f80fd5b8335612a27816129f6565b92506020840135612a37816129f6565b929592945050506040919091013590565b5f8060208385031215612a59575f80fd5b823567ffffffffffffffff80821115612a70575f80fd5b818501915085601f830112612a83575f80fd5b813581811115612a91575f80fd5b8660206101c083028501011115612aa6575f80fd5b60209290920196919550909350505050565b5f805f8060408587031215612acb575f80fd5b843567ffffffffffffffff80821115612ae2575f80fd5b612aee88838901612921565b90965094506020870135915080821115612b06575f80fd5b50612b1387828801612921565b95989497509550505050565b5f8060408385031215612b30575f80fd5b8235612b3b816129f6565b946020939093013593505050565b5f60208284031215612b59575f80fd5b8135611988816129f6565b5f60208284031215612b74575f80fd5b5051919050565b8051612b86816129f6565b919050565b5f60208284031215612b9b575f80fd5b8151611988816129f6565b634e487b7160e01b5f52603260045260245ffd5b6040516060810167ffffffffffffffff81118282101715612be957634e487b7160e01b5f52604160045260245ffd5b60405290565b604051610260810167ffffffffffffffff81118282101715612be957634e487b7160e01b5f52604160045260245ffd5b80151581146107ae575f80fd5b8051612b8681612c1f565b5f60608284031215612c47575f80fd5b612c4f612bba565b905081518152602082015160208201526040820151612c6d81612c1f565b604082015292915050565b600481106107ae575f80fd5b5f60608284031215612c94575f80fd5b612c9c612bba565b90508151612ca981612c78565b81526020820151612cb981612c78565b60208201526040820151612c6d81612c78565b5f60808284031215612cdc575f80fd5b6040516080810181811067ffffffffffffffff82111715612d0b57634e487b7160e01b5f52604160045260245ffd5b806040525080915082518152602083015160208201526040830151612d2f816129f6565b60408201526060830151612d4281612c1f565b6060919091015292915050565b5f6103408284031215612d60575f80fd5b612d68612bef565b612d7183612b7b565b8152612d7f60208401612b7b565b6020820152612d9060408401612b7b565b604082015260608301516060820152612dab60808401612b7b565b608082015260a0838101519082015260c0808401519082015260e08084015190820152610100808401519082015261012080840151908201526101408084015190820152610160808401519082015261018080840151908201526101a0612e13818501612c2c565b908201526101c0612e25848201612c2c565b908201526101e0612e37848201612c2c565b90820152610200612e4a85858301612c37565b90820152612e5c846102608501612c84565b610220820152612e70846102c08501612ccc565b6102408201529392505050565b634e487b7160e01b5f52601160045260245ffd5b80820180821115612ea457612ea4612e7d565b92915050565b634e487b7160e01b5f52602160045260245ffd5b60048110612eda57634e487b7160e01b5f52602160045260245ffd5b9052565b81516001600160a01b031681526101c081016020830151612f0a60208401826001600160a01b03169052565b50604083015160408301526060830151612f2f60608401826001600160a01b03169052565b506080830151608083015260a083015160a083015260c083015160c083015260e083015160e083015261010080840151818401525061012080840151818401525061014080840151612f848285018215159052565b505061016080840151612f9982850182612ebe565b505061018080840151612fae82850182612ebe565b50506101a080840151612fc382850182612ebe565b505092915050565b8082028115828204841417612ea457612ea4612e7d565b5f82612ffc57634e487b7160e01b5f52601260045260245ffd5b500490565b81810381811115612ea457612ea4612e7d565b5f60208284031215613024575f80fd5b813561198881612c1f565b5f6020828403121561303f575f80fd5b813561198881612c78565b5f82518060208501845e5f920191825250919050565b5f60208284031215613070575f80fd5b815161198881612c1f565b602081525f82518060208401528060208501604085015e5f604082850101526040601f19601f8301168401019150509291505056fea2646970667358221220d177ed14cb48fa9dae40eb40738dc8e66eb1f344c50c95ea73d0a034ea13f7f364736f6c63430008190033",
    "linkReferences": {}
  },
  "methodIdentifiers": {
    "claimFromMultipleStreamsETH(uint256[])": "1d875353",
    "claimFromStreamETH(uint256)": "28ec1fa6",
    "createMultipleStreamsETH((address,address,uint256,address,uint256,uint256,uint256,uint256,uint256,uint256,bool,uint8,uint8,uint8)[])": "cb8ac71c",
    "emergencyEtherTransfer(address,uint256)": "eed88b8d",
    "emergencyTokenTransfer(address,address,uint256)": "a3d5b255",
    "getWETHAddress()": "affa8817",
    "haltMultipleStreamsETH(uint256[])": "92f14f68",
    "haltStreamETH(uint256)": "1e7451d2",
    "initializeStreamETH((address,address,uint256,address,uint256,uint256,uint256,uint256,uint256,uint256,bool,uint8,uint8,uint8))": "3e6f79f4",
    "owner()": "8da5cb5b",
    "prolongMultipleStreamsETH(uint256[],uint256[])": "e5ac3885",
    "prolongStreamETH(uint256,uint256)": "299b8202",
    "renounceOwnership()": "715018a6",
    "terminateMultipleStreamsETH(uint256[])": "0388ecdc",
    "terminateStreamETH(uint256)": "c872c725",
    "transferOwnership(address)": "f2fde38b"
  },
  "id": 0
}